{
  "_format": "hh-sol-artifact-1",
  "contractName": "LinkswapRouter",
  "sourceName": "contracts/LinkswapRouter.sol",
  "abi": [
    {
      "inputs": [
        {
          "internalType": "address",
          "name": "_factory",
          "type": "address"
        },
        {
          "internalType": "address",
          "name": "_WETH",
          "type": "address"
        }
      ],
      "stateMutability": "nonpayable",
      "type": "constructor"
    },
    {
      "inputs": [],
      "name": "WETH",
      "outputs": [
        {
          "internalType": "address",
          "name": "",
          "type": "address"
        }
      ],
      "stateMutability": "view",
      "type": "function"
    },
    {
      "inputs": [
        {
          "internalType": "address",
          "name": "tokenA",
          "type": "address"
        },
        {
          "internalType": "address",
          "name": "tokenB",
          "type": "address"
        },
        {
          "internalType": "uint256",
          "name": "amountADesired",
          "type": "uint256"
        },
        {
          "internalType": "uint256",
          "name": "amountBDesired",
          "type": "uint256"
        },
        {
          "internalType": "uint256",
          "name": "amountAMin",
          "type": "uint256"
        },
        {
          "internalType": "uint256",
          "name": "amountBMin",
          "type": "uint256"
        },
        {
          "internalType": "address",
          "name": "to",
          "type": "address"
        },
        {
          "internalType": "uint256",
          "name": "deadline",
          "type": "uint256"
        }
      ],
      "name": "addLiquidity",
      "outputs": [
        {
          "internalType": "uint256",
          "name": "amountA",
          "type": "uint256"
        },
        {
          "internalType": "uint256",
          "name": "amountB",
          "type": "uint256"
        },
        {
          "internalType": "uint256",
          "name": "liquidity",
          "type": "uint256"
        }
      ],
      "stateMutability": "nonpayable",
      "type": "function"
    },
    {
      "inputs": [
        {
          "internalType": "address",
          "name": "token",
          "type": "address"
        },
        {
          "internalType": "uint256",
          "name": "amountTokenDesired",
          "type": "uint256"
        },
        {
          "internalType": "uint256",
          "name": "amountTokenMin",
          "type": "uint256"
        },
        {
          "internalType": "uint256",
          "name": "amountETHMin",
          "type": "uint256"
        },
        {
          "internalType": "address",
          "name": "to",
          "type": "address"
        },
        {
          "internalType": "uint256",
          "name": "deadline",
          "type": "uint256"
        }
      ],
      "name": "addLiquidityETH",
      "outputs": [
        {
          "internalType": "uint256",
          "name": "amountToken",
          "type": "uint256"
        },
        {
          "internalType": "uint256",
          "name": "amountETH",
          "type": "uint256"
        },
        {
          "internalType": "uint256",
          "name": "liquidity",
          "type": "uint256"
        }
      ],
      "stateMutability": "payable",
      "type": "function"
    },
    {
      "inputs": [
        {
          "internalType": "address",
          "name": "newToken",
          "type": "address"
        },
        {
          "internalType": "uint256",
          "name": "newTokenAmount",
          "type": "uint256"
        },
        {
          "internalType": "address",
          "name": "lockupToken",
          "type": "address"
        },
        {
          "internalType": "uint256",
          "name": "lockupTokenAmount",
          "type": "uint256"
        },
        {
          "internalType": "uint256",
          "name": "lockupPeriod",
          "type": "uint256"
        },
        {
          "internalType": "address",
          "name": "listingFeeToken",
          "type": "address"
        }
      ],
      "name": "createPairUsingETH",
      "outputs": [
        {
          "internalType": "address",
          "name": "pair",
          "type": "address"
        }
      ],
      "stateMutability": "payable",
      "type": "function"
    },
    {
      "inputs": [],
      "name": "factory",
      "outputs": [
        {
          "internalType": "address",
          "name": "",
          "type": "address"
        }
      ],
      "stateMutability": "view",
      "type": "function"
    },
    {
      "inputs": [
        {
          "internalType": "uint256",
          "name": "amountOut",
          "type": "uint256"
        },
        {
          "internalType": "uint256",
          "name": "reserveIn",
          "type": "uint256"
        },
        {
          "internalType": "uint256",
          "name": "reserveOut",
          "type": "uint256"
        },
        {
          "internalType": "uint256",
          "name": "tradingFeePercent",
          "type": "uint256"
        }
      ],
      "name": "getAmountIn",
      "outputs": [
        {
          "internalType": "uint256",
          "name": "amountIn",
          "type": "uint256"
        }
      ],
      "stateMutability": "pure",
      "type": "function"
    },
    {
      "inputs": [
        {
          "internalType": "uint256",
          "name": "amountIn",
          "type": "uint256"
        },
        {
          "internalType": "uint256",
          "name": "reserveIn",
          "type": "uint256"
        },
        {
          "internalType": "uint256",
          "name": "reserveOut",
          "type": "uint256"
        },
        {
          "internalType": "uint256",
          "name": "tradingFeePercent",
          "type": "uint256"
        }
      ],
      "name": "getAmountOut",
      "outputs": [
        {
          "internalType": "uint256",
          "name": "amountOut",
          "type": "uint256"
        }
      ],
      "stateMutability": "pure",
      "type": "function"
    },
    {
      "inputs": [
        {
          "internalType": "uint256",
          "name": "amountOut",
          "type": "uint256"
        },
        {
          "internalType": "address[]",
          "name": "path",
          "type": "address[]"
        }
      ],
      "name": "getAmountsIn",
      "outputs": [
        {
          "internalType": "uint256[]",
          "name": "amounts",
          "type": "uint256[]"
        }
      ],
      "stateMutability": "view",
      "type": "function"
    },
    {
      "inputs": [
        {
          "internalType": "uint256",
          "name": "amountIn",
          "type": "uint256"
        },
        {
          "internalType": "address[]",
          "name": "path",
          "type": "address[]"
        }
      ],
      "name": "getAmountsOut",
      "outputs": [
        {
          "internalType": "uint256[]",
          "name": "amounts",
          "type": "uint256[]"
        }
      ],
      "stateMutability": "view",
      "type": "function"
    },
    {
      "inputs": [
        {
          "internalType": "uint256",
          "name": "amountA",
          "type": "uint256"
        },
        {
          "internalType": "uint256",
          "name": "reserveA",
          "type": "uint256"
        },
        {
          "internalType": "uint256",
          "name": "reserveB",
          "type": "uint256"
        }
      ],
      "name": "quote",
      "outputs": [
        {
          "internalType": "uint256",
          "name": "amountB",
          "type": "uint256"
        }
      ],
      "stateMutability": "pure",
      "type": "function"
    },
    {
      "inputs": [
        {
          "internalType": "address",
          "name": "tokenA",
          "type": "address"
        },
        {
          "internalType": "address",
          "name": "tokenB",
          "type": "address"
        },
        {
          "internalType": "uint256",
          "name": "liquidity",
          "type": "uint256"
        },
        {
          "internalType": "uint256",
          "name": "amountAMin",
          "type": "uint256"
        },
        {
          "internalType": "uint256",
          "name": "amountBMin",
          "type": "uint256"
        },
        {
          "internalType": "address",
          "name": "to",
          "type": "address"
        },
        {
          "internalType": "uint256",
          "name": "deadline",
          "type": "uint256"
        }
      ],
      "name": "removeLiquidity",
      "outputs": [
        {
          "internalType": "uint256",
          "name": "amountA",
          "type": "uint256"
        },
        {
          "internalType": "uint256",
          "name": "amountB",
          "type": "uint256"
        }
      ],
      "stateMutability": "nonpayable",
      "type": "function"
    },
    {
      "inputs": [
        {
          "internalType": "address",
          "name": "token",
          "type": "address"
        },
        {
          "internalType": "uint256",
          "name": "liquidity",
          "type": "uint256"
        },
        {
          "internalType": "uint256",
          "name": "amountTokenMin",
          "type": "uint256"
        },
        {
          "internalType": "uint256",
          "name": "amountETHMin",
          "type": "uint256"
        },
        {
          "internalType": "address",
          "name": "to",
          "type": "address"
        },
        {
          "internalType": "uint256",
          "name": "deadline",
          "type": "uint256"
        }
      ],
      "name": "removeLiquidityETH",
      "outputs": [
        {
          "internalType": "uint256",
          "name": "amountToken",
          "type": "uint256"
        },
        {
          "internalType": "uint256",
          "name": "amountETH",
          "type": "uint256"
        }
      ],
      "stateMutability": "nonpayable",
      "type": "function"
    },
    {
      "inputs": [
        {
          "internalType": "address",
          "name": "token",
          "type": "address"
        },
        {
          "internalType": "uint256",
          "name": "liquidity",
          "type": "uint256"
        },
        {
          "internalType": "uint256",
          "name": "amountTokenMin",
          "type": "uint256"
        },
        {
          "internalType": "uint256",
          "name": "amountETHMin",
          "type": "uint256"
        },
        {
          "internalType": "address",
          "name": "to",
          "type": "address"
        },
        {
          "internalType": "uint256",
          "name": "deadline",
          "type": "uint256"
        }
      ],
      "name": "removeLiquidityETHSupportingFeeOnTransferTokens",
      "outputs": [
        {
          "internalType": "uint256",
          "name": "amountETH",
          "type": "uint256"
        }
      ],
      "stateMutability": "nonpayable",
      "type": "function"
    },
    {
      "inputs": [
        {
          "internalType": "address",
          "name": "token",
          "type": "address"
        },
        {
          "internalType": "uint256",
          "name": "liquidity",
          "type": "uint256"
        },
        {
          "internalType": "uint256",
          "name": "amountTokenMin",
          "type": "uint256"
        },
        {
          "internalType": "uint256",
          "name": "amountETHMin",
          "type": "uint256"
        },
        {
          "internalType": "address",
          "name": "to",
          "type": "address"
        },
        {
          "internalType": "uint256",
          "name": "deadline",
          "type": "uint256"
        },
        {
          "internalType": "bool",
          "name": "approveMax",
          "type": "bool"
        },
        {
          "internalType": "uint8",
          "name": "v",
          "type": "uint8"
        },
        {
          "internalType": "bytes32",
          "name": "r",
          "type": "bytes32"
        },
        {
          "internalType": "bytes32",
          "name": "s",
          "type": "bytes32"
        }
      ],
      "name": "removeLiquidityETHWithPermit",
      "outputs": [
        {
          "internalType": "uint256",
          "name": "amountToken",
          "type": "uint256"
        },
        {
          "internalType": "uint256",
          "name": "amountETH",
          "type": "uint256"
        }
      ],
      "stateMutability": "nonpayable",
      "type": "function"
    },
    {
      "inputs": [
        {
          "internalType": "address",
          "name": "token",
          "type": "address"
        },
        {
          "internalType": "uint256",
          "name": "liquidity",
          "type": "uint256"
        },
        {
          "internalType": "uint256",
          "name": "amountTokenMin",
          "type": "uint256"
        },
        {
          "internalType": "uint256",
          "name": "amountETHMin",
          "type": "uint256"
        },
        {
          "internalType": "address",
          "name": "to",
          "type": "address"
        },
        {
          "internalType": "uint256",
          "name": "deadline",
          "type": "uint256"
        },
        {
          "internalType": "bool",
          "name": "approveMax",
          "type": "bool"
        },
        {
          "internalType": "uint8",
          "name": "v",
          "type": "uint8"
        },
        {
          "internalType": "bytes32",
          "name": "r",
          "type": "bytes32"
        },
        {
          "internalType": "bytes32",
          "name": "s",
          "type": "bytes32"
        }
      ],
      "name": "removeLiquidityETHWithPermitSupportingFeeOnTransferTokens",
      "outputs": [
        {
          "internalType": "uint256",
          "name": "amountETH",
          "type": "uint256"
        }
      ],
      "stateMutability": "nonpayable",
      "type": "function"
    },
    {
      "inputs": [
        {
          "internalType": "address",
          "name": "tokenA",
          "type": "address"
        },
        {
          "internalType": "address",
          "name": "tokenB",
          "type": "address"
        },
        {
          "internalType": "uint256",
          "name": "liquidity",
          "type": "uint256"
        },
        {
          "internalType": "uint256",
          "name": "amountAMin",
          "type": "uint256"
        },
        {
          "internalType": "uint256",
          "name": "amountBMin",
          "type": "uint256"
        },
        {
          "internalType": "address",
          "name": "to",
          "type": "address"
        },
        {
          "internalType": "uint256",
          "name": "deadline",
          "type": "uint256"
        },
        {
          "internalType": "bool",
          "name": "approveMax",
          "type": "bool"
        },
        {
          "internalType": "uint8",
          "name": "v",
          "type": "uint8"
        },
        {
          "internalType": "bytes32",
          "name": "r",
          "type": "bytes32"
        },
        {
          "internalType": "bytes32",
          "name": "s",
          "type": "bytes32"
        }
      ],
      "name": "removeLiquidityWithPermit",
      "outputs": [
        {
          "internalType": "uint256",
          "name": "amountA",
          "type": "uint256"
        },
        {
          "internalType": "uint256",
          "name": "amountB",
          "type": "uint256"
        }
      ],
      "stateMutability": "nonpayable",
      "type": "function"
    },
    {
      "inputs": [
        {
          "internalType": "uint256",
          "name": "amountOut",
          "type": "uint256"
        },
        {
          "internalType": "address[]",
          "name": "path",
          "type": "address[]"
        },
        {
          "internalType": "address",
          "name": "to",
          "type": "address"
        },
        {
          "internalType": "uint256",
          "name": "deadline",
          "type": "uint256"
        }
      ],
      "name": "swapETHForExactTokens",
      "outputs": [
        {
          "internalType": "uint256[]",
          "name": "amounts",
          "type": "uint256[]"
        }
      ],
      "stateMutability": "payable",
      "type": "function"
    },
    {
      "inputs": [
        {
          "internalType": "uint256",
          "name": "amountOutMin",
          "type": "uint256"
        },
        {
          "internalType": "address[]",
          "name": "path",
          "type": "address[]"
        },
        {
          "internalType": "address",
          "name": "to",
          "type": "address"
        },
        {
          "internalType": "uint256",
          "name": "deadline",
          "type": "uint256"
        }
      ],
      "name": "swapExactETHForTokens",
      "outputs": [
        {
          "internalType": "uint256[]",
          "name": "amounts",
          "type": "uint256[]"
        }
      ],
      "stateMutability": "payable",
      "type": "function"
    },
    {
      "inputs": [
        {
          "internalType": "uint256",
          "name": "amountOutMin",
          "type": "uint256"
        },
        {
          "internalType": "address[]",
          "name": "path",
          "type": "address[]"
        },
        {
          "internalType": "address",
          "name": "to",
          "type": "address"
        },
        {
          "internalType": "uint256",
          "name": "deadline",
          "type": "uint256"
        }
      ],
      "name": "swapExactETHForTokensSupportingFeeOnTransferTokens",
      "outputs": [],
      "stateMutability": "payable",
      "type": "function"
    },
    {
      "inputs": [
        {
          "internalType": "uint256",
          "name": "amountIn",
          "type": "uint256"
        },
        {
          "internalType": "uint256",
          "name": "amountOutMin",
          "type": "uint256"
        },
        {
          "internalType": "address[]",
          "name": "path",
          "type": "address[]"
        },
        {
          "internalType": "address",
          "name": "to",
          "type": "address"
        },
        {
          "internalType": "uint256",
          "name": "deadline",
          "type": "uint256"
        }
      ],
      "name": "swapExactTokensForETH",
      "outputs": [
        {
          "internalType": "uint256[]",
          "name": "amounts",
          "type": "uint256[]"
        }
      ],
      "stateMutability": "nonpayable",
      "type": "function"
    },
    {
      "inputs": [
        {
          "internalType": "uint256",
          "name": "amountIn",
          "type": "uint256"
        },
        {
          "internalType": "uint256",
          "name": "amountOutMin",
          "type": "uint256"
        },
        {
          "internalType": "address[]",
          "name": "path",
          "type": "address[]"
        },
        {
          "internalType": "address",
          "name": "to",
          "type": "address"
        },
        {
          "internalType": "uint256",
          "name": "deadline",
          "type": "uint256"
        }
      ],
      "name": "swapExactTokensForETHSupportingFeeOnTransferTokens",
      "outputs": [],
      "stateMutability": "nonpayable",
      "type": "function"
    },
    {
      "inputs": [
        {
          "internalType": "uint256",
          "name": "amountIn",
          "type": "uint256"
        },
        {
          "internalType": "uint256",
          "name": "amountOutMin",
          "type": "uint256"
        },
        {
          "internalType": "address[]",
          "name": "path",
          "type": "address[]"
        },
        {
          "internalType": "address",
          "name": "to",
          "type": "address"
        },
        {
          "internalType": "uint256",
          "name": "deadline",
          "type": "uint256"
        }
      ],
      "name": "swapExactTokensForTokens",
      "outputs": [
        {
          "internalType": "uint256[]",
          "name": "amounts",
          "type": "uint256[]"
        }
      ],
      "stateMutability": "nonpayable",
      "type": "function"
    },
    {
      "inputs": [
        {
          "internalType": "uint256",
          "name": "amountIn",
          "type": "uint256"
        },
        {
          "internalType": "uint256",
          "name": "amountOutMin",
          "type": "uint256"
        },
        {
          "internalType": "address[]",
          "name": "path",
          "type": "address[]"
        },
        {
          "internalType": "address",
          "name": "to",
          "type": "address"
        },
        {
          "internalType": "uint256",
          "name": "deadline",
          "type": "uint256"
        }
      ],
      "name": "swapExactTokensForTokensSupportingFeeOnTransferTokens",
      "outputs": [],
      "stateMutability": "nonpayable",
      "type": "function"
    },
    {
      "inputs": [
        {
          "internalType": "uint256",
          "name": "amountOut",
          "type": "uint256"
        },
        {
          "internalType": "uint256",
          "name": "amountInMax",
          "type": "uint256"
        },
        {
          "internalType": "address[]",
          "name": "path",
          "type": "address[]"
        },
        {
          "internalType": "address",
          "name": "to",
          "type": "address"
        },
        {
          "internalType": "uint256",
          "name": "deadline",
          "type": "uint256"
        }
      ],
      "name": "swapTokensForExactETH",
      "outputs": [
        {
          "internalType": "uint256[]",
          "name": "amounts",
          "type": "uint256[]"
        }
      ],
      "stateMutability": "nonpayable",
      "type": "function"
    },
    {
      "inputs": [
        {
          "internalType": "uint256",
          "name": "amountOut",
          "type": "uint256"
        },
        {
          "internalType": "uint256",
          "name": "amountInMax",
          "type": "uint256"
        },
        {
          "internalType": "address[]",
          "name": "path",
          "type": "address[]"
        },
        {
          "internalType": "address",
          "name": "to",
          "type": "address"
        },
        {
          "internalType": "uint256",
          "name": "deadline",
          "type": "uint256"
        }
      ],
      "name": "swapTokensForExactTokens",
      "outputs": [
        {
          "internalType": "uint256[]",
          "name": "amounts",
          "type": "uint256[]"
        }
      ],
      "stateMutability": "nonpayable",
      "type": "function"
    },
    {
      "stateMutability": "payable",
      "type": "receive"
    }
  ],
  "bytecode": "0x60c06040523480156200001157600080fd5b50604051620073d2380380620073d2833981810160405260408110156200003757600080fd5b8101908080519060200190929190805190602001909291905050508173ffffffffffffffffffffffffffffffffffffffff1660808173ffffffffffffffffffffffffffffffffffffffff1660601b815250508073ffffffffffffffffffffffffffffffffffffffff1660a08173ffffffffffffffffffffffffffffffffffffffff1660601b81525050505060805160601c60a05160601c6171b062000222600039806101705280611608528061168952806118eb528061190d5280611a725280611ab05280611bca5280611ea8528061241c52806126f7528061281d5280612dbd5280612faa52806130dd52806131f552806133bd5280613452528061389052806139475280613a3a5280613b515280613c405280613cc152806144b8528061485652806148af52806148e352806149645280614ba45280614d695280614dfe5250806116c5528061178c5280611cbc5280611dc85280611f7b5280611fb352806121ac52806122b8528061250e528061261752806127fb5280612a375280612edd52806132e25280613491528061369c52806137a55280613d0052806141335280614435528061445e528061449652806146c8528061488d5280614c915280614e3d5280615a3d5280615a815280616222528061650a52806169be5280616b5a52506171b06000f3fe6080604052600436106101695760003560e01c80637ff36ab5116100d1578063baa2abde1161008a578063ded9382a11610064578063ded9382a1461128c578063e8e337001461136e578063f305d71914611454578063fb3bdb4114611502576101c5565b8063baa2abde1461103d578063c45a015514611111578063d06ca61f14611168576101c5565b80637ff36ab514610c0e5780638803dbee14610d10578063ad5c464814610e29578063ad615dec14610e80578063af2979eb14610ee3578063b6f9de9514610f90576101c5565b80634a25d94a116101235780634a25d94a146107b857806352707d8c146108d1578063571fd0121461093e5780635b0d5984146109ab5780635c11d79514610a86578063791ac94714610b4a576101c5565b80629d2793146101ca57806302751cec146102ac57806318cbafe5146103605780631f00ca74146104795780632195995c1461059d57806338ed17391461069f576101c5565b366101c5577f000000000000000000000000000000000000000000000000000000000000000073ffffffffffffffffffffffffffffffffffffffff163373ffffffffffffffffffffffffffffffffffffffff16146101c357fe5b005b600080fd5b61026a600480360360c08110156101e057600080fd5b81019080803573ffffffffffffffffffffffffffffffffffffffff16906020019092919080359060200190929190803573ffffffffffffffffffffffffffffffffffffffff1690602001909291908035906020019092919080359060200190929190803573ffffffffffffffffffffffffffffffffffffffff169060200190929190505050611604565b604051808273ffffffffffffffffffffffffffffffffffffffff1673ffffffffffffffffffffffffffffffffffffffff16815260200191505060405180910390f35b3480156102b857600080fd5b50610343600480360360c08110156102cf57600080fd5b81019080803573ffffffffffffffffffffffffffffffffffffffff169060200190929190803590602001909291908035906020019092919080359060200190929190803573ffffffffffffffffffffffffffffffffffffffff169060200190929190803590602001909291905050506119f2565b604051808381526020018281526020019250505060405180910390f35b34801561036c57600080fd5b50610422600480360360a081101561038357600080fd5b810190808035906020019092919080359060200190929190803590602001906401000000008111156103b457600080fd5b8201836020820111156103c657600080fd5b803590602001918460208302840111640100000000831117156103e857600080fd5b9091929391929390803573ffffffffffffffffffffffffffffffffffffffff16906020019092919080359060200190929190505050611b4f565b6040518080602001828103825283818151815260200191508051906020019060200280838360005b8381101561046557808201518184015260208101905061044a565b505050509050019250505060405180910390f35b34801561048557600080fd5b506105466004803603604081101561049c57600080fd5b8101908080359060200190929190803590602001906401000000008111156104c357600080fd5b8201836020820111156104d557600080fd5b803590602001918460208302840111640100000000831117156104f757600080fd5b919080806020026020016040519081016040528093929190818152602001838360200280828437600081840152601f19601f820116905080830192505050505050509192919290505050611f74565b6040518080602001828103825283818151815260200191508051906020019060200280838360005b8381101561058957808201518184015260208101905061056e565b505050509050019250505060405180910390f35b3480156105a957600080fd5b5061068260048036036101608110156105c157600080fd5b81019080803573ffffffffffffffffffffffffffffffffffffffff169060200190929190803573ffffffffffffffffffffffffffffffffffffffff169060200190929190803590602001909291908035906020019092919080359060200190929190803573ffffffffffffffffffffffffffffffffffffffff16906020019092919080359060200190929190803515159060200190929190803560ff1690602001909291908035906020019092919080359060200190929190505050611fa9565b604051808381526020018281526020019250505060405180910390f35b3480156106ab57600080fd5b50610761600480360360a08110156106c257600080fd5b810190808035906020019092919080359060200190929190803590602001906401000000008111156106f357600080fd5b82018360208201111561070557600080fd5b8035906020019184602083028401116401000000008311171561072757600080fd5b9091929391929390803573ffffffffffffffffffffffffffffffffffffffff1690602001909291908035906020019092919050505061212e565b6040518080602001828103825283818151815260200191508051906020019060200280838360005b838110156107a4578082015181840152602081019050610789565b505050509050019250505060405180910390f35b3480156107c457600080fd5b5061087a600480360360a08110156107db57600080fd5b8101908080359060200190929190803590602001909291908035906020019064010000000081111561080c57600080fd5b82018360208201111561081e57600080fd5b8035906020019184602083028401116401000000008311171561084057600080fd5b9091929391929390803573ffffffffffffffffffffffffffffffffffffffff169060200190929190803590602001909291905050506123a1565b6040518080602001828103825283818151815260200191508051906020019060200280838360005b838110156108bd5780820151818401526020810190506108a2565b505050509050019250505060405180910390f35b3480156108dd57600080fd5b50610928600480360360808110156108f457600080fd5b81019080803590602001909291908035906020019092919080359060200190929190803590602001909291905050506127c3565b6040518082815260200191505060405180910390f35b34801561094a57600080fd5b506109956004803603608081101561096157600080fd5b81019080803590602001909291908035906020019092919080359060200190929190803590602001909291905050506127db565b6040518082815260200191505060405180910390f35b3480156109b757600080fd5b50610a7060048036036101408110156109cf57600080fd5b81019080803573ffffffffffffffffffffffffffffffffffffffff169060200190929190803590602001909291908035906020019092919080359060200190929190803573ffffffffffffffffffffffffffffffffffffffff16906020019092919080359060200190929190803515159060200190929190803560ff16906020019092919080359060200190929190803590602001909291905050506127f3565b6040518082815260200191505060405180910390f35b348015610a9257600080fd5b50610b48600480360360a0811015610aa957600080fd5b81019080803590602001909291908035906020019092919080359060200190640100000000811115610ada57600080fd5b820183602082011115610aec57600080fd5b80359060200191846020830284011164010000000083111715610b0e57600080fd5b9091929391929390803573ffffffffffffffffffffffffffffffffffffffff1690602001909291908035906020019092919050505061298d565b005b348015610b5657600080fd5b50610c0c600480360360a0811015610b6d57600080fd5b81019080803590602001909291908035906020019092919080359060200190640100000000811115610b9e57600080fd5b820183602082011115610bb057600080fd5b80359060200191846020830284011164010000000083111715610bd257600080fd5b9091929391929390803573ffffffffffffffffffffffffffffffffffffffff16906020019092919080359060200190929190505050612d44565b005b610cb960048036036080811015610c2457600080fd5b810190808035906020019092919080359060200190640100000000811115610c4b57600080fd5b820183602082011115610c5d57600080fd5b80359060200191846020830284011164010000000083111715610c7f57600080fd5b9091929391929390803573ffffffffffffffffffffffffffffffffffffffff1690602001909291908035906020019092919050505061317a565b6040518080602001828103825283818151815260200191508051906020019060200280838360005b83811015610cfc578082015181840152602081019050610ce1565b505050509050019250505060405180910390f35b348015610d1c57600080fd5b50610dd2600480360360a0811015610d3357600080fd5b81019080803590602001909291908035906020019092919080359060200190640100000000811115610d6457600080fd5b820183602082011115610d7657600080fd5b80359060200191846020830284011164010000000083111715610d9857600080fd5b9091929391929390803573ffffffffffffffffffffffffffffffffffffffff1690602001909291908035906020019092919050505061361e565b6040518080602001828103825283818151815260200191508051906020019060200280838360005b83811015610e15578082015181840152602081019050610dfa565b505050509050019250505060405180910390f35b348015610e3557600080fd5b50610e3e61388e565b604051808273ffffffffffffffffffffffffffffffffffffffff1673ffffffffffffffffffffffffffffffffffffffff16815260200191505060405180910390f35b348015610e8c57600080fd5b50610ecd60048036036060811015610ea357600080fd5b810190808035906020019092919080359060200190929190803590602001909291905050506138b2565b6040518082815260200191505060405180910390f35b348015610eef57600080fd5b50610f7a600480360360c0811015610f0657600080fd5b81019080803573ffffffffffffffffffffffffffffffffffffffff169060200190929190803590602001909291908035906020019092919080359060200190929190803573ffffffffffffffffffffffffffffffffffffffff169060200190929190803590602001909291905050506138c8565b6040518082815260200191505060405180910390f35b61103b60048036036080811015610fa657600080fd5b810190808035906020019092919080359060200190640100000000811115610fcd57600080fd5b820183602082011115610fdf57600080fd5b8035906020019184602083028401116401000000008311171561100157600080fd5b9091929391929390803573ffffffffffffffffffffffffffffffffffffffff16906020019092919080359060200190929190505050613ad8565b005b34801561104957600080fd5b506110f4600480360360e081101561106057600080fd5b81019080803573ffffffffffffffffffffffffffffffffffffffff169060200190929190803573ffffffffffffffffffffffffffffffffffffffff169060200190929190803590602001909291908035906020019092919080359060200190929190803573ffffffffffffffffffffffffffffffffffffffff169060200190929190803590602001909291905050506140b2565b604051808381526020018281526020019250505060405180910390f35b34801561111d57600080fd5b50611126614433565b604051808273ffffffffffffffffffffffffffffffffffffffff1673ffffffffffffffffffffffffffffffffffffffff16815260200191505060405180910390f35b34801561117457600080fd5b506112356004803603604081101561118b57600080fd5b8101908080359060200190929190803590602001906401000000008111156111b257600080fd5b8201836020820111156111c457600080fd5b803590602001918460208302840111640100000000831117156111e657600080fd5b919080806020026020016040519081016040528093929190818152602001838360200280828437600081840152601f19601f820116905080830192505050505050509192919290505050614457565b6040518080602001828103825283818151815260200191508051906020019060200280838360005b8381101561127857808201518184015260208101905061125d565b505050509050019250505060405180910390f35b34801561129857600080fd5b5061135160048036036101408110156112b057600080fd5b81019080803573ffffffffffffffffffffffffffffffffffffffff169060200190929190803590602001909291908035906020019092919080359060200190929190803573ffffffffffffffffffffffffffffffffffffffff16906020019092919080359060200190929190803515159060200190929190803560ff169060200190929190803590602001909291908035906020019092919050505061448c565b604051808381526020018281526020019250505060405180910390f35b34801561137a57600080fd5b50611430600480360361010081101561139257600080fd5b81019080803573ffffffffffffffffffffffffffffffffffffffff169060200190929190803573ffffffffffffffffffffffffffffffffffffffff16906020019092919080359060200190929190803590602001909291908035906020019092919080359060200190929190803573ffffffffffffffffffffffffffffffffffffffff1690602001909291908035906020019092919050505061462f565b60405180848152602001838152602001828152602001935050505060405180910390f35b6114de600480360360c081101561146a57600080fd5b81019080803573ffffffffffffffffffffffffffffffffffffffff169060200190929190803590602001909291908035906020019092919080359060200190929190803573ffffffffffffffffffffffffffffffffffffffff169060200190929190803590602001909291905050506147d4565b60405180848152602001838152602001828152602001935050505060405180910390f35b6115ad6004803603608081101561151857600080fd5b81019080803590602001909291908035906020019064010000000081111561153f57600080fd5b82018360208201111561155157600080fd5b8035906020019184602083028401116401000000008311171561157357600080fd5b9091929391929390803573ffffffffffffffffffffffffffffffffffffffff16906020019092919080359060200190929190505050614b29565b6040518080602001828103825283818151815260200191508051906020019060200280838360005b838110156115f05780820151818401526020810190506115d5565b505050509050019250505060405180910390f35b60007f000000000000000000000000000000000000000000000000000000000000000073ffffffffffffffffffffffffffffffffffffffff1663d0e30db0346040518263ffffffff1660e01b81526004016000604051808303818588803b15801561166e57600080fd5b505af1158015611682573d6000803e3d6000fd5b50505050507f000000000000000000000000000000000000000000000000000000000000000073ffffffffffffffffffffffffffffffffffffffff1663095ea7b37f0000000000000000000000000000000000000000000000000000000000000000346040518363ffffffff1660e01b8152600401808373ffffffffffffffffffffffffffffffffffffffff1673ffffffffffffffffffffffffffffffffffffffff16815260200182815260200192505050602060405180830381600087803b15801561174e57600080fd5b505af1158015611762573d6000803e3d6000fd5b505050506040513d602081101561177857600080fd5b8101908080519060200190929190505050507f000000000000000000000000000000000000000000000000000000000000000073ffffffffffffffffffffffffffffffffffffffff1663eb80d6d88888888888886040518763ffffffff1660e01b8152600401808773ffffffffffffffffffffffffffffffffffffffff1673ffffffffffffffffffffffffffffffffffffffff1681526020018681526020018573ffffffffffffffffffffffffffffffffffffffff1673ffffffffffffffffffffffffffffffffffffffff1681526020018481526020018381526020018273ffffffffffffffffffffffffffffffffffffffff1673ffffffffffffffffffffffffffffffffffffffff1681526020019650505050505050602060405180830381600087803b1580156118a957600080fd5b505af11580156118bd573d6000803e3d6000fd5b505050506040513d60208110156118d357600080fd5b810190808051906020019092919050505090506119e87f0000000000000000000000000000000000000000000000000000000000000000337f000000000000000000000000000000000000000000000000000000000000000073ffffffffffffffffffffffffffffffffffffffff166370a08231306040518263ffffffff1660e01b8152600401808273ffffffffffffffffffffffffffffffffffffffff1673ffffffffffffffffffffffffffffffffffffffff16815260200191505060206040518083038186803b1580156119a857600080fd5b505afa1580156119bc573d6000803e3d6000fd5b505050506040513d60208110156119d257600080fd5b8101908080519060200190929190505050615007565b9695505050505050565b6000808242811015611a6c576040517f08c379a00000000000000000000000000000000000000000000000000000000081526004018080602001828103825260178152602001807f4c696e6b73776170526f757465723a204558504952454400000000000000000081525060200191505060405180910390fd5b611a9b897f00000000000000000000000000000000000000000000000000000000000000008a8a8a308a6140b2565b8093508194505050611aae898685615007565b7f000000000000000000000000000000000000000000000000000000000000000073ffffffffffffffffffffffffffffffffffffffff16632e1a7d4d836040518263ffffffff1660e01b815260040180828152602001915050600060405180830381600087803b158015611b2157600080fd5b505af1158015611b35573d6000803e3d6000fd5b50505050611b438583615200565b50965096945050505050565b60608142811015611bc8576040517f08c379a00000000000000000000000000000000000000000000000000000000081526004018080602001828103825260178152602001807f4c696e6b73776170526f757465723a204558504952454400000000000000000081525060200191505060405180910390fd5b7f000000000000000000000000000000000000000000000000000000000000000073ffffffffffffffffffffffffffffffffffffffff16868660018989905003818110611c1157fe5b9050602002013573ffffffffffffffffffffffffffffffffffffffff1673ffffffffffffffffffffffffffffffffffffffff1614611cb7576040517f08c379a000000000000000000000000000000000000000000000000000000000815260040180806020018281038252601c8152602001807f4c696e6b73776170526f757465723a20494e56414c49445f504154480000000081525060200191505060405180910390fd5b611d237f000000000000000000000000000000000000000000000000000000000000000089888880806020026020016040519081016040528093929190818152602001838360200280828437600081840152601f19601f8201169050808301925050505050505061535f565b91508682600184510381518110611d3657fe5b60200260200101511015611d95576040517f08c379a000000000000000000000000000000000000000000000000000000000815260040180806020018281038252602a815260200180617000602a913960400191505060405180910390fd5b611e5a86866000818110611da557fe5b9050602002013573ffffffffffffffffffffffffffffffffffffffff1633611e407f00000000000000000000000000000000000000000000000000000000000000008a8a6000818110611df457fe5b9050602002013573ffffffffffffffffffffffffffffffffffffffff168b8b6001818110611e1e57fe5b9050602002013573ffffffffffffffffffffffffffffffffffffffff1661566c565b85600081518110611e4d57fe5b6020026020010151615763565b611ea682878780806020026020016040519081016040528093929190818152602001838360200280828437600081840152601f19601f8201169050808301925050505050505030615974565b7f000000000000000000000000000000000000000000000000000000000000000073ffffffffffffffffffffffffffffffffffffffff16632e1a7d4d83600185510381518110611ef257fe5b60200260200101516040518263ffffffff1660e01b815260040180828152602001915050600060405180830381600087803b158015611f3057600080fd5b505af1158015611f44573d6000803e3d6000fd5b50505050611f698483600185510381518110611f5c57fe5b6020026020010151615200565b509695505050505050565b6060611fa17f00000000000000000000000000000000000000000000000000000000000000008484615c1f565b905092915050565b6000806000611fd97f00000000000000000000000000000000000000000000000000000000000000008f8f61566c565b9050600087611fe8578c61200a565b7fffffffffffffffffffffffffffffffffffffffffffffffffffffffffffffffff5b90508173ffffffffffffffffffffffffffffffffffffffff1663d505accf3330848d8c8c8c6040518863ffffffff1660e01b8152600401808873ffffffffffffffffffffffffffffffffffffffff1673ffffffffffffffffffffffffffffffffffffffff1681526020018773ffffffffffffffffffffffffffffffffffffffff1673ffffffffffffffffffffffffffffffffffffffff1681526020018681526020018581526020018460ff1660ff168152602001838152602001828152602001975050505050505050600060405180830381600087803b1580156120ed57600080fd5b505af1158015612101573d6000803e3d6000fd5b505050506121148f8f8f8f8f8f8f6140b2565b809450819550505050509b509b9950505050505050505050565b606081428110156121a7576040517f08c379a00000000000000000000000000000000000000000000000000000000081526004018080602001828103825260178152602001807f4c696e6b73776170526f757465723a204558504952454400000000000000000081525060200191505060405180910390fd5b6122137f000000000000000000000000000000000000000000000000000000000000000089888880806020026020016040519081016040528093929190818152602001838360200280828437600081840152601f19601f8201169050808301925050505050505061535f565b9150868260018451038151811061222657fe5b60200260200101511015612285576040517f08c379a000000000000000000000000000000000000000000000000000000000815260040180806020018281038252602a815260200180617000602a913960400191505060405180910390fd5b61234a8686600081811061229557fe5b9050602002013573ffffffffffffffffffffffffffffffffffffffff16336123307f00000000000000000000000000000000000000000000000000000000000000008a8a60008181106122e457fe5b9050602002013573ffffffffffffffffffffffffffffffffffffffff168b8b600181811061230e57fe5b9050602002013573ffffffffffffffffffffffffffffffffffffffff1661566c565b8560008151811061233d57fe5b6020026020010151615763565b61239682878780806020026020016040519081016040528093929190818152602001838360200280828437600081840152601f19601f8201169050808301925050505050505086615974565b509695505050505050565b6060814281101561241a576040517f08c379a00000000000000000000000000000000000000000000000000000000081526004018080602001828103825260178152602001807f4c696e6b73776170526f757465723a204558504952454400000000000000000081525060200191505060405180910390fd5b7f000000000000000000000000000000000000000000000000000000000000000073ffffffffffffffffffffffffffffffffffffffff1686866001898990500381811061246357fe5b9050602002013573ffffffffffffffffffffffffffffffffffffffff1673ffffffffffffffffffffffffffffffffffffffff1614612509576040517f08c379a000000000000000000000000000000000000000000000000000000000815260040180806020018281038252601c8152602001807f4c696e6b73776170526f757465723a20494e56414c49445f504154480000000081525060200191505060405180910390fd5b6125757f000000000000000000000000000000000000000000000000000000000000000089888880806020026020016040519081016040528093929190818152602001838360200280828437600081840152601f19601f82011690508083019250505050505050615c1f565b9150868260008151811061258557fe5b602002602001015111156125e4576040517f08c379a000000000000000000000000000000000000000000000000000000000815260040180806020018281038252602681526020018061704f6026913960400191505060405180910390fd5b6126a9868660008181106125f457fe5b9050602002013573ffffffffffffffffffffffffffffffffffffffff163361268f7f00000000000000000000000000000000000000000000000000000000000000008a8a600081811061264357fe5b9050602002013573ffffffffffffffffffffffffffffffffffffffff168b8b600181811061266d57fe5b9050602002013573ffffffffffffffffffffffffffffffffffffffff1661566c565b8560008151811061269c57fe5b6020026020010151615763565b6126f582878780806020026020016040519081016040528093929190818152602001838360200280828437600081840152601f19601f8201169050808301925050505050505030615974565b7f000000000000000000000000000000000000000000000000000000000000000073ffffffffffffffffffffffffffffffffffffffff16632e1a7d4d8360018551038151811061274157fe5b60200260200101516040518263ffffffff1660e01b815260040180828152602001915050600060405180830381600087803b15801561277f57600080fd5b505af1158015612793573d6000803e3d6000fd5b505050506127b884836001855103815181106127ab57fe5b6020026020010151615200565b509695505050505050565b60006127d185858585615f34565b9050949350505050565b60006127e985858585616079565b9050949350505050565b6000806128417f00000000000000000000000000000000000000000000000000000000000000008d7f000000000000000000000000000000000000000000000000000000000000000061566c565b9050600086612850578b612872565b7fffffffffffffffffffffffffffffffffffffffffffffffffffffffffffffffff5b90508173ffffffffffffffffffffffffffffffffffffffff1663d505accf3330848c8b8b8b6040518863ffffffff1660e01b8152600401808873ffffffffffffffffffffffffffffffffffffffff1673ffffffffffffffffffffffffffffffffffffffff1681526020018773ffffffffffffffffffffffffffffffffffffffff1673ffffffffffffffffffffffffffffffffffffffff1681526020018681526020018581526020018460ff1660ff168152602001838152602001828152602001975050505050505050600060405180830381600087803b15801561295557600080fd5b505af1158015612969573d6000803e3d6000fd5b5050505061297b8d8d8d8d8d8d6138c8565b925050509a9950505050505050505050565b8042811015612a04576040517f08c379a00000000000000000000000000000000000000000000000000000000081526004018080602001828103825260178152602001807f4c696e6b73776170526f757465723a204558504952454400000000000000000081525060200191505060405180910390fd5b612ab585856000818110612a1457fe5b9050602002013573ffffffffffffffffffffffffffffffffffffffff1633612aaf7f000000000000000000000000000000000000000000000000000000000000000089896000818110612a6357fe5b9050602002013573ffffffffffffffffffffffffffffffffffffffff168a8a6001818110612a8d57fe5b9050602002013573ffffffffffffffffffffffffffffffffffffffff1661566c565b8a615763565b6000858560018888905003818110612ac957fe5b9050602002013573ffffffffffffffffffffffffffffffffffffffff1673ffffffffffffffffffffffffffffffffffffffff166370a08231856040518263ffffffff1660e01b8152600401808273ffffffffffffffffffffffffffffffffffffffff1673ffffffffffffffffffffffffffffffffffffffff16815260200191505060206040518083038186803b158015612b6257600080fd5b505afa158015612b76573d6000803e3d6000fd5b505050506040513d6020811015612b8c57600080fd5b81019080805190602001909291905050509050612bea868680806020026020016040519081016040528093929190818152602001838360200280828437600081840152601f19601f82011690508083019250505050505050856161cb565b86612ce382888860018b8b905003818110612c0157fe5b9050602002013573ffffffffffffffffffffffffffffffffffffffff1673ffffffffffffffffffffffffffffffffffffffff166370a08231886040518263ffffffff1660e01b8152600401808273ffffffffffffffffffffffffffffffffffffffff1673ffffffffffffffffffffffffffffffffffffffff16815260200191505060206040518083038186803b158015612c9a57600080fd5b505afa158015612cae573d6000803e3d6000fd5b505050506040513d6020811015612cc457600080fd5b81019080805190602001909291905050506166c390919063ffffffff16565b1015612d3a576040517f08c379a000000000000000000000000000000000000000000000000000000000815260040180806020018281038252602a815260200180617000602a913960400191505060405180910390fd5b5050505050505050565b8042811015612dbb576040517f08c379a00000000000000000000000000000000000000000000000000000000081526004018080602001828103825260178152602001807f4c696e6b73776170526f757465723a204558504952454400000000000000000081525060200191505060405180910390fd5b7f000000000000000000000000000000000000000000000000000000000000000073ffffffffffffffffffffffffffffffffffffffff16858560018888905003818110612e0457fe5b9050602002013573ffffffffffffffffffffffffffffffffffffffff1673ffffffffffffffffffffffffffffffffffffffff1614612eaa576040517f08c379a000000000000000000000000000000000000000000000000000000000815260040180806020018281038252601c8152602001807f4c696e6b73776170526f757465723a20494e56414c49445f504154480000000081525060200191505060405180910390fd5b612f5b85856000818110612eba57fe5b9050602002013573ffffffffffffffffffffffffffffffffffffffff1633612f557f000000000000000000000000000000000000000000000000000000000000000089896000818110612f0957fe5b9050602002013573ffffffffffffffffffffffffffffffffffffffff168a8a6001818110612f3357fe5b9050602002013573ffffffffffffffffffffffffffffffffffffffff1661566c565b8a615763565b612fa6858580806020026020016040519081016040528093929190818152602001838360200280828437600081840152601f19601f82011690508083019250505050505050306161cb565b60007f000000000000000000000000000000000000000000000000000000000000000073ffffffffffffffffffffffffffffffffffffffff166370a08231306040518263ffffffff1660e01b8152600401808273ffffffffffffffffffffffffffffffffffffffff1673ffffffffffffffffffffffffffffffffffffffff16815260200191505060206040518083038186803b15801561304557600080fd5b505afa158015613059573d6000803e3d6000fd5b505050506040513d602081101561306f57600080fd5b81019080805190602001909291905050509050868110156130db576040517f08c379a000000000000000000000000000000000000000000000000000000000815260040180806020018281038252602a815260200180617000602a913960400191505060405180910390fd5b7f000000000000000000000000000000000000000000000000000000000000000073ffffffffffffffffffffffffffffffffffffffff16632e1a7d4d826040518263ffffffff1660e01b815260040180828152602001915050600060405180830381600087803b15801561314e57600080fd5b505af1158015613162573d6000803e3d6000fd5b505050506131708482615200565b5050505050505050565b606081428110156131f3576040517f08c379a00000000000000000000000000000000000000000000000000000000081526004018080602001828103825260178152602001807f4c696e6b73776170526f757465723a204558504952454400000000000000000081525060200191505060405180910390fd5b7f000000000000000000000000000000000000000000000000000000000000000073ffffffffffffffffffffffffffffffffffffffff168686600081811061323757fe5b9050602002013573ffffffffffffffffffffffffffffffffffffffff1673ffffffffffffffffffffffffffffffffffffffff16146132dd576040517f08c379a000000000000000000000000000000000000000000000000000000000815260040180806020018281038252601c8152602001807f4c696e6b73776170526f757465723a20494e56414c49445f504154480000000081525060200191505060405180910390fd5b6133497f000000000000000000000000000000000000000000000000000000000000000034888880806020026020016040519081016040528093929190818152602001838360200280828437600081840152601f19601f8201169050808301925050505050505061535f565b9150868260018451038151811061335c57fe5b602002602001015110156133bb576040517f08c379a000000000000000000000000000000000000000000000000000000000815260040180806020018281038252602a815260200180617000602a913960400191505060405180910390fd5b7f000000000000000000000000000000000000000000000000000000000000000073ffffffffffffffffffffffffffffffffffffffff1663d0e30db08360008151811061340457fe5b60200260200101516040518263ffffffff1660e01b81526004016000604051808303818588803b15801561343757600080fd5b505af115801561344b573d6000803e3d6000fd5b50505050507f000000000000000000000000000000000000000000000000000000000000000073ffffffffffffffffffffffffffffffffffffffff1663a9059cbb6135097f0000000000000000000000000000000000000000000000000000000000000000898960008181106134bd57fe5b9050602002013573ffffffffffffffffffffffffffffffffffffffff168a8a60018181106134e757fe5b9050602002013573ffffffffffffffffffffffffffffffffffffffff1661566c565b8460008151811061351657fe5b60200260200101516040518363ffffffff1660e01b8152600401808373ffffffffffffffffffffffffffffffffffffffff1673ffffffffffffffffffffffffffffffffffffffff16815260200182815260200192505050602060405180830381600087803b15801561358757600080fd5b505af115801561359b573d6000803e3d6000fd5b505050506040513d60208110156135b157600080fd5b81019080805190602001909291905050506135c857fe5b61361482878780806020026020016040519081016040528093929190818152602001838360200280828437600081840152601f19601f8201169050808301925050505050505086615974565b5095945050505050565b60608142811015613697576040517f08c379a00000000000000000000000000000000000000000000000000000000081526004018080602001828103825260178152602001807f4c696e6b73776170526f757465723a204558504952454400000000000000000081525060200191505060405180910390fd5b6137037f000000000000000000000000000000000000000000000000000000000000000089888880806020026020016040519081016040528093929190818152602001838360200280828437600081840152601f19601f82011690508083019250505050505050615c1f565b9150868260008151811061371357fe5b60200260200101511115613772576040517f08c379a000000000000000000000000000000000000000000000000000000000815260040180806020018281038252602681526020018061704f6026913960400191505060405180910390fd5b6138378686600081811061378257fe5b9050602002013573ffffffffffffffffffffffffffffffffffffffff163361381d7f00000000000000000000000000000000000000000000000000000000000000008a8a60008181106137d157fe5b9050602002013573ffffffffffffffffffffffffffffffffffffffff168b8b60018181106137fb57fe5b9050602002013573ffffffffffffffffffffffffffffffffffffffff1661566c565b8560008151811061382a57fe5b6020026020010151615763565b61388382878780806020026020016040519081016040528093929190818152602001838360200280828437600081840152601f19601f8201169050808301925050505050505086615974565b509695505050505050565b7f000000000000000000000000000000000000000000000000000000000000000081565b60006138bf848484616746565b90509392505050565b60008142811015613941576040517f08c379a00000000000000000000000000000000000000000000000000000000081526004018080602001828103825260178152602001807f4c696e6b73776170526f757465723a204558504952454400000000000000000081525060200191505060405180910390fd5b613970887f000000000000000000000000000000000000000000000000000000000000000089898930896140b2565b905080925050613a3888858a73ffffffffffffffffffffffffffffffffffffffff166370a08231306040518263ffffffff1660e01b8152600401808273ffffffffffffffffffffffffffffffffffffffff1673ffffffffffffffffffffffffffffffffffffffff16815260200191505060206040518083038186803b1580156139f857600080fd5b505afa158015613a0c573d6000803e3d6000fd5b505050506040513d6020811015613a2257600080fd5b8101908080519060200190929190505050615007565b7f000000000000000000000000000000000000000000000000000000000000000073ffffffffffffffffffffffffffffffffffffffff16632e1a7d4d836040518263ffffffff1660e01b815260040180828152602001915050600060405180830381600087803b158015613aab57600080fd5b505af1158015613abf573d6000803e3d6000fd5b50505050613acd8483615200565b509695505050505050565b8042811015613b4f576040517f08c379a00000000000000000000000000000000000000000000000000000000081526004018080602001828103825260178152602001807f4c696e6b73776170526f757465723a204558504952454400000000000000000081525060200191505060405180910390fd5b7f000000000000000000000000000000000000000000000000000000000000000073ffffffffffffffffffffffffffffffffffffffff1685856000818110613b9357fe5b9050602002013573ffffffffffffffffffffffffffffffffffffffff1673ffffffffffffffffffffffffffffffffffffffff1614613c39576040517f08c379a000000000000000000000000000000000000000000000000000000000815260040180806020018281038252601c8152602001807f4c696e6b73776170526f757465723a20494e56414c49445f504154480000000081525060200191505060405180910390fd5b60003490507f000000000000000000000000000000000000000000000000000000000000000073ffffffffffffffffffffffffffffffffffffffff1663d0e30db0826040518263ffffffff1660e01b81526004016000604051808303818588803b158015613ca657600080fd5b505af1158015613cba573d6000803e3d6000fd5b50505050507f000000000000000000000000000000000000000000000000000000000000000073ffffffffffffffffffffffffffffffffffffffff1663a9059cbb613d787f000000000000000000000000000000000000000000000000000000000000000089896000818110613d2c57fe5b9050602002013573ffffffffffffffffffffffffffffffffffffffff168a8a6001818110613d5657fe5b9050602002013573ffffffffffffffffffffffffffffffffffffffff1661566c565b836040518363ffffffff1660e01b8152600401808373ffffffffffffffffffffffffffffffffffffffff1673ffffffffffffffffffffffffffffffffffffffff16815260200182815260200192505050602060405180830381600087803b158015613de257600080fd5b505af1158015613df6573d6000803e3d6000fd5b505050506040513d6020811015613e0c57600080fd5b8101908080519060200190929190505050613e2357fe5b6000868660018989905003818110613e3757fe5b9050602002013573ffffffffffffffffffffffffffffffffffffffff1673ffffffffffffffffffffffffffffffffffffffff166370a08231866040518263ffffffff1660e01b8152600401808273ffffffffffffffffffffffffffffffffffffffff1673ffffffffffffffffffffffffffffffffffffffff16815260200191505060206040518083038186803b158015613ed057600080fd5b505afa158015613ee4573d6000803e3d6000fd5b505050506040513d6020811015613efa57600080fd5b81019080805190602001909291905050509050613f58878780806020026020016040519081016040528093929190818152602001838360200280828437600081840152601f19601f82011690508083019250505050505050866161cb565b8761405182898960018c8c905003818110613f6f57fe5b9050602002013573ffffffffffffffffffffffffffffffffffffffff1673ffffffffffffffffffffffffffffffffffffffff166370a08231896040518263ffffffff1660e01b8152600401808273ffffffffffffffffffffffffffffffffffffffff1673ffffffffffffffffffffffffffffffffffffffff16815260200191505060206040518083038186803b15801561400857600080fd5b505afa15801561401c573d6000803e3d6000fd5b505050506040513d602081101561403257600080fd5b81019080805190602001909291905050506166c390919063ffffffff16565b10156140a8576040517f08c379a000000000000000000000000000000000000000000000000000000000815260040180806020018281038252602a815260200180617000602a913960400191505060405180910390fd5b5050505050505050565b600080824281101561412c576040517f08c379a00000000000000000000000000000000000000000000000000000000081526004018080602001828103825260178152602001807f4c696e6b73776170526f757465723a204558504952454400000000000000000081525060200191505060405180910390fd5b60006141597f00000000000000000000000000000000000000000000000000000000000000008c8c61566c565b90508073ffffffffffffffffffffffffffffffffffffffff166323b872dd33838c6040518463ffffffff1660e01b8152600401808473ffffffffffffffffffffffffffffffffffffffff1673ffffffffffffffffffffffffffffffffffffffff1681526020018373ffffffffffffffffffffffffffffffffffffffff1673ffffffffffffffffffffffffffffffffffffffff1681526020018281526020019350505050602060405180830381600087803b15801561421657600080fd5b505af115801561422a573d6000803e3d6000fd5b505050506040513d602081101561424057600080fd5b8101908080519060200190929190505050506000808273ffffffffffffffffffffffffffffffffffffffff166389afcb44896040518263ffffffff1660e01b8152600401808273ffffffffffffffffffffffffffffffffffffffff1673ffffffffffffffffffffffffffffffffffffffff1681526020019150506040805180830381600087803b1580156142d357600080fd5b505af11580156142e7573d6000803e3d6000fd5b505050506040513d60408110156142fd57600080fd5b8101908080519060200190929190805190602001909291905050509150915060006143288e8e61682a565b5090508073ffffffffffffffffffffffffffffffffffffffff168e73ffffffffffffffffffffffffffffffffffffffff1614614365578183614368565b82825b80975081985050508a8710156143c9576040517f08c379a000000000000000000000000000000000000000000000000000000000815260040180806020018281038252602581526020018061709c6025913960400191505060405180910390fd5b89861015614422576040517f08c379a000000000000000000000000000000000000000000000000000000000815260040180806020018281038252602581526020018061702a6025913960400191505060405180910390fd5b505050505097509795505050505050565b7f000000000000000000000000000000000000000000000000000000000000000081565b60606144847f0000000000000000000000000000000000000000000000000000000000000000848461535f565b905092915050565b60008060006144dc7f00000000000000000000000000000000000000000000000000000000000000008e7f000000000000000000000000000000000000000000000000000000000000000061566c565b90506000876144eb578c61450d565b7fffffffffffffffffffffffffffffffffffffffffffffffffffffffffffffffff5b90508173ffffffffffffffffffffffffffffffffffffffff1663d505accf3330848d8c8c8c6040518863ffffffff1660e01b8152600401808873ffffffffffffffffffffffffffffffffffffffff1673ffffffffffffffffffffffffffffffffffffffff1681526020018773ffffffffffffffffffffffffffffffffffffffff1673ffffffffffffffffffffffffffffffffffffffff1681526020018681526020018581526020018460ff1660ff168152602001838152602001828152602001975050505050505050600060405180830381600087803b1580156145f057600080fd5b505af1158015614604573d6000803e3d6000fd5b505050506146168e8e8e8e8e8e6119f2565b809450819550505050509a509a98505050505050505050565b600080600083428110156146ab576040517f08c379a00000000000000000000000000000000000000000000000000000000081526004018080602001828103825260178152602001807f4c696e6b73776170526f757465723a204558504952454400000000000000000081525060200191505060405180910390fd5b6146b98c8c8c8c8c8c6169a1565b809450819550505060006146ee7f00000000000000000000000000000000000000000000000000000000000000008e8e61566c565b90506146fc8d338388615763565b6147088c338387615763565b8073ffffffffffffffffffffffffffffffffffffffff16636a627842886040518263ffffffff1660e01b8152600401808273ffffffffffffffffffffffffffffffffffffffff1673ffffffffffffffffffffffffffffffffffffffff168152602001915050602060405180830381600087803b15801561478757600080fd5b505af115801561479b573d6000803e3d6000fd5b505050506040513d60208110156147b157600080fd5b810190808051906020019092919050505092505050985098509895505050505050565b60008060008342811015614850576040517f08c379a00000000000000000000000000000000000000000000000000000000081526004018080602001828103825260178152602001807f4c696e6b73776170526f757465723a204558504952454400000000000000000081525060200191505060405180910390fd5b61487e8a7f00000000000000000000000000000000000000000000000000000000000000008b348c8c6169a1565b809450819550505060006148d37f00000000000000000000000000000000000000000000000000000000000000008c7f000000000000000000000000000000000000000000000000000000000000000061566c565b90506148e18b338388615763565b7f000000000000000000000000000000000000000000000000000000000000000073ffffffffffffffffffffffffffffffffffffffff1663d0e30db0856040518263ffffffff1660e01b81526004016000604051808303818588803b15801561494957600080fd5b505af115801561495d573d6000803e3d6000fd5b50505050507f000000000000000000000000000000000000000000000000000000000000000073ffffffffffffffffffffffffffffffffffffffff1663a9059cbb82866040518363ffffffff1660e01b8152600401808373ffffffffffffffffffffffffffffffffffffffff1673ffffffffffffffffffffffffffffffffffffffff16815260200182815260200192505050602060405180830381600087803b158015614a0957600080fd5b505af1158015614a1d573d6000803e3d6000fd5b505050506040513d6020811015614a3357600080fd5b8101908080519060200190929190505050614a4a57fe5b8073ffffffffffffffffffffffffffffffffffffffff16636a627842886040518263ffffffff1660e01b8152600401808273ffffffffffffffffffffffffffffffffffffffff1673ffffffffffffffffffffffffffffffffffffffff168152602001915050602060405180830381600087803b158015614ac957600080fd5b505af1158015614add573d6000803e3d6000fd5b505050506040513d6020811015614af357600080fd5b8101908080519060200190929190505050925083341115614b1b57614b1a33853403615200565b5b505096509650969350505050565b60608142811015614ba2576040517f08c379a00000000000000000000000000000000000000000000000000000000081526004018080602001828103825260178152602001807f4c696e6b73776170526f757465723a204558504952454400000000000000000081525060200191505060405180910390fd5b7f000000000000000000000000000000000000000000000000000000000000000073ffffffffffffffffffffffffffffffffffffffff1686866000818110614be657fe5b9050602002013573ffffffffffffffffffffffffffffffffffffffff1673ffffffffffffffffffffffffffffffffffffffff1614614c8c576040517f08c379a000000000000000000000000000000000000000000000000000000000815260040180806020018281038252601c8152602001807f4c696e6b73776170526f757465723a20494e56414c49445f504154480000000081525060200191505060405180910390fd5b614cf87f000000000000000000000000000000000000000000000000000000000000000088888880806020026020016040519081016040528093929190818152602001838360200280828437600081840152601f19601f82011690508083019250505050505050615c1f565b91503482600081518110614d0857fe5b60200260200101511115614d67576040517f08c379a000000000000000000000000000000000000000000000000000000000815260040180806020018281038252602681526020018061704f6026913960400191505060405180910390fd5b7f000000000000000000000000000000000000000000000000000000000000000073ffffffffffffffffffffffffffffffffffffffff1663d0e30db083600081518110614db057fe5b60200260200101516040518263ffffffff1660e01b81526004016000604051808303818588803b158015614de357600080fd5b505af1158015614df7573d6000803e3d6000fd5b50505050507f000000000000000000000000000000000000000000000000000000000000000073ffffffffffffffffffffffffffffffffffffffff1663a9059cbb614eb57f000000000000000000000000000000000000000000000000000000000000000089896000818110614e6957fe5b9050602002013573ffffffffffffffffffffffffffffffffffffffff168a8a6001818110614e9357fe5b9050602002013573ffffffffffffffffffffffffffffffffffffffff1661566c565b84600081518110614ec257fe5b60200260200101516040518363ffffffff1660e01b8152600401808373ffffffffffffffffffffffffffffffffffffffff1673ffffffffffffffffffffffffffffffffffffffff16815260200182815260200192505050602060405180830381600087803b158015614f3357600080fd5b505af1158015614f47573d6000803e3d6000fd5b505050506040513d6020811015614f5d57600080fd5b8101908080519060200190929190505050614f7457fe5b614fc082878780806020026020016040519081016040528093929190818152602001838360200280828437600081840152601f19601f8201169050808301925050505050505086615974565b81600081518110614fcd57fe5b6020026020010151341115614ffd57614ffc3383600081518110614fed57fe5b60200260200101513403615200565b5b5095945050505050565b600060608473ffffffffffffffffffffffffffffffffffffffff1663a9059cbb8585604051602401808373ffffffffffffffffffffffffffffffffffffffff1673ffffffffffffffffffffffffffffffffffffffff168152602001828152602001925050506040516020818303038152906040529060e01b6020820180517bffffffffffffffffffffffffffffffffffffffffffffffffffffffff83818316178352505050506040518082805190602001908083835b602083106150e057805182526020820191506020810190506020830392506150bd565b6001836020036101000a0380198251168184511680821785525050505050509050019150506000604051808303816000865af19150503d8060008114615142576040519150601f19603f3d011682016040523d82523d6000602084013e615147565b606091505b50915091508180156151875750600081511480615186575080806020019051602081101561517457600080fd5b81019080805190602001909291905050505b5b6151f9576040517f08c379a000000000000000000000000000000000000000000000000000000000815260040180806020018281038252601f8152602001807f5472616e7366657248656c7065723a205452414e534645525f4641494c45440081525060200191505060405180910390fd5b5050505050565b60008273ffffffffffffffffffffffffffffffffffffffff1682600067ffffffffffffffff8111801561523257600080fd5b506040519080825280601f01601f1916602001820160405280156152655781602001600182028036833780820191505090505b506040518082805190602001908083835b602083106152995780518252602082019150602081019050602083039250615276565b6001836020036101000a03801982511681845116808217855250505050505090500191505060006040518083038185875af1925050503d80600081146152fb576040519150601f19603f3d011682016040523d82523d6000602084013e615300565b606091505b505090508061535a576040517f08c379a00000000000000000000000000000000000000000000000000000000081526004018080602001828103825260238152602001806170e56023913960400191505060405180910390fd5b505050565b60606002825110156153d9576040517f08c379a000000000000000000000000000000000000000000000000000000000815260040180806020018281038252601d8152602001807f4c696e6b737761704c6962726172793a20494e56414c49445f5041544800000081525060200191505060405180910390fd5b815167ffffffffffffffff811180156153f157600080fd5b506040519080825280602002602001820160405280156154205781602001602082028036833780820191505090505b509050828160008151811061543157fe5b60200260200101818152505060005b6001835103811015615664576000806154838786858151811061545f57fe5b602002602001015187600187018151811061547657fe5b6020026020010151616cb3565b9150915061563a84848151811061549657fe5b602002602001015183838a73ffffffffffffffffffffffffffffffffffffffff1663e6a439058a89815181106154c857fe5b60200260200101518b60018b01815181106154df57fe5b60200260200101516040518363ffffffff1660e01b8152600401808373ffffffffffffffffffffffffffffffffffffffff1673ffffffffffffffffffffffffffffffffffffffff1681526020018273ffffffffffffffffffffffffffffffffffffffff1673ffffffffffffffffffffffffffffffffffffffff1681526020019250505060206040518083038186803b15801561557a57600080fd5b505afa15801561558e573d6000803e3d6000fd5b505050506040513d60208110156155a457600080fd5b810190808051906020019092919050505073ffffffffffffffffffffffffffffffffffffffff16632a3240276040518163ffffffff1660e01b815260040160206040518083038186803b1580156155fa57600080fd5b505afa15801561560e573d6000803e3d6000fd5b505050506040513d602081101561562457600080fd5b8101908080519060200190929190505050615f34565b84600185018151811061564957fe5b60200260200101818152505050508080600101915050615440565b509392505050565b60008373ffffffffffffffffffffffffffffffffffffffff1663e6a4390584846040518363ffffffff1660e01b8152600401808373ffffffffffffffffffffffffffffffffffffffff1673ffffffffffffffffffffffffffffffffffffffff1681526020018273ffffffffffffffffffffffffffffffffffffffff1673ffffffffffffffffffffffffffffffffffffffff1681526020019250505060206040518083038186803b15801561571f57600080fd5b505afa158015615733573d6000803e3d6000fd5b505050506040513d602081101561574957600080fd5b810190808051906020019092919050505090509392505050565b600060608573ffffffffffffffffffffffffffffffffffffffff166323b872dd868686604051602401808473ffffffffffffffffffffffffffffffffffffffff1673ffffffffffffffffffffffffffffffffffffffff1681526020018373ffffffffffffffffffffffffffffffffffffffff1673ffffffffffffffffffffffffffffffffffffffff16815260200182815260200193505050506040516020818303038152906040529060e01b6020820180517bffffffffffffffffffffffffffffffffffffffffffffffffffffffff83818316178352505050506040518082805190602001908083835b60208310615870578051825260208201915060208101905060208303925061584d565b6001836020036101000a0380198251168184511680821785525050505050509050019150506000604051808303816000865af19150503d80600081146158d2576040519150601f19603f3d011682016040523d82523d6000602084013e6158d7565b606091505b50915091508180156159175750600081511480615916575080806020019051602081101561590457600080fd5b81019080805190602001909291905050505b5b61596c576040517f08c379a00000000000000000000000000000000000000000000000000000000081526004018080602001828103825260248152602001806171576024913960400191505060405180910390fd5b505050505050565b60005b6001835103811015615c195760008084838151811061599257fe5b60200260200101518560018501815181106159a957fe5b60200260200101519150915060006159c1838361682a565b50905060008760018601815181106159d557fe5b602002602001015190506000808373ffffffffffffffffffffffffffffffffffffffff168673ffffffffffffffffffffffffffffffffffffffff1614615a1d57826000615a21565b6000835b91509150600060028a51038810615a385788615a7a565b615a797f0000000000000000000000000000000000000000000000000000000000000000878c60028c0181518110615a6c57fe5b602002602001015161566c565b5b9050615aa77f0000000000000000000000000000000000000000000000000000000000000000888861566c565b73ffffffffffffffffffffffffffffffffffffffff1663022c0d9f848484600067ffffffffffffffff81118015615add57600080fd5b506040519080825280601f01601f191660200182016040528015615b105781602001600182028036833780820191505090505b506040518563ffffffff1660e01b8152600401808581526020018481526020018373ffffffffffffffffffffffffffffffffffffffff1673ffffffffffffffffffffffffffffffffffffffff16815260200180602001828103825283818151815260200191508051906020019080838360005b83811015615b9e578082015181840152602081019050615b83565b50505050905090810190601f168015615bcb5780820380516001836020036101000a031916815260200191505b5095505050505050600060405180830381600087803b158015615bed57600080fd5b505af1158015615c01573d6000803e3d6000fd5b50505050505050505050508080600101915050615977565b50505050565b6060600282511015615c99576040517f08c379a000000000000000000000000000000000000000000000000000000000815260040180806020018281038252601d8152602001807f4c696e6b737761704c6962726172793a20494e56414c49445f5041544800000081525060200191505060405180910390fd5b815167ffffffffffffffff81118015615cb157600080fd5b50604051908082528060200260200182016040528015615ce05781602001602082028036833780820191505090505b5090508281600183510381518110615cf457fe5b6020026020010181815250506000600183510390505b6000811115615f2c57600080615d4a87866001860381518110615d2957fe5b6020026020010151878681518110615d3d57fe5b6020026020010151616cb3565b91509150615f01848481518110615d5d57fe5b602002602001015183838a73ffffffffffffffffffffffffffffffffffffffff1663e6a439058a60018a0381518110615d9257fe5b60200260200101518b8a81518110615da657fe5b60200260200101516040518363ffffffff1660e01b8152600401808373ffffffffffffffffffffffffffffffffffffffff1673ffffffffffffffffffffffffffffffffffffffff1681526020018273ffffffffffffffffffffffffffffffffffffffff1673ffffffffffffffffffffffffffffffffffffffff1681526020019250505060206040518083038186803b158015615e4157600080fd5b505afa158015615e55573d6000803e3d6000fd5b505050506040513d6020811015615e6b57600080fd5b810190808051906020019092919050505073ffffffffffffffffffffffffffffffffffffffff16632a3240276040518163ffffffff1660e01b815260040160206040518083038186803b158015615ec157600080fd5b505afa158015615ed5573d6000803e3d6000fd5b505050506040513d6020811015615eeb57600080fd5b8101908080519060200190929190505050616079565b846001850381518110615f1057fe5b6020026020010181815250505050808060019003915050615d0a565b509392505050565b6000808511615f8e576040517f08c379a000000000000000000000000000000000000000000000000000000000815260040180806020018281038252602a815260200180616fd6602a913960400191505060405180910390fd5b600084118015615f9e5750600083115b615ff3576040517f08c379a00000000000000000000000000000000000000000000000000000000081526004018080602001828103825260278152602001806170756027913960400191505060405180910390fd5b600061601d61600e84620f42406166c390919063ffffffff16565b87616ebd90919063ffffffff16565b905060006160348583616ebd90919063ffffffff16565b9050600061606083616052620f42408a616ebd90919063ffffffff16565b616f5290919063ffffffff16565b905080828161606b57fe5b049350505050949350505050565b60008085116160d3576040517f08c379a000000000000000000000000000000000000000000000000000000000815260040180806020018281038252602b815260200180617108602b913960400191505060405180910390fd5b6000841180156160e35750600083115b616138576040517f08c379a00000000000000000000000000000000000000000000000000000000081526004018080602001828103825260278152602001806170756027913960400191505060405180910390fd5b6000616162620f42406161548888616ebd90919063ffffffff16565b616ebd90919063ffffffff16565b905060006161a061617f85620f42406166c390919063ffffffff16565b61619289886166c390919063ffffffff16565b616ebd90919063ffffffff16565b90506161bf60018284816161b057fe5b04616f5290919063ffffffff16565b92505050949350505050565b60005b60018351038110156166be576000808483815181106161e957fe5b602002602001015185600185018151811061620057fe5b6020026020010151915091506000616218838361682a565b50905060006162487f0000000000000000000000000000000000000000000000000000000000000000858561566c565b90506000806000808473ffffffffffffffffffffffffffffffffffffffff16630902f1ac6040518163ffffffff1660e01b815260040160606040518083038186803b15801561629657600080fd5b505afa1580156162aa573d6000803e3d6000fd5b505050506040513d60608110156162c057600080fd5b81019080805190602001909291908051906020019092919080519060200190929190505050506dffffffffffffffffffffffffffff1691506dffffffffffffffffffffffffffff1691506000808773ffffffffffffffffffffffffffffffffffffffff168a73ffffffffffffffffffffffffffffffffffffffff161461634757828461634a565b83835b91509150616418828b73ffffffffffffffffffffffffffffffffffffffff166370a082318a6040518263ffffffff1660e01b8152600401808273ffffffffffffffffffffffffffffffffffffffff1673ffffffffffffffffffffffffffffffffffffffff16815260200191505060206040518083038186803b1580156163cf57600080fd5b505afa1580156163e3573d6000803e3d6000fd5b505050506040513d60208110156163f957600080fd5b81019080805190602001909291905050506166c390919063ffffffff16565b95506164a68683838a73ffffffffffffffffffffffffffffffffffffffff16632a3240276040518163ffffffff1660e01b815260040160206040518083038186803b15801561646657600080fd5b505afa15801561647a573d6000803e3d6000fd5b505050506040513d602081101561649057600080fd5b8101908080519060200190929190505050615f34565b9450505050506000808573ffffffffffffffffffffffffffffffffffffffff168873ffffffffffffffffffffffffffffffffffffffff16146164ea578260006164ee565b6000835b91509150600060028c51038a10616505578a616547565b6165467f0000000000000000000000000000000000000000000000000000000000000000898e60028e018151811061653957fe5b602002602001015161566c565b5b90508573ffffffffffffffffffffffffffffffffffffffff1663022c0d9f848484600067ffffffffffffffff8111801561658057600080fd5b506040519080825280601f01601f1916602001820160405280156165b35781602001600182028036833780820191505090505b506040518563ffffffff1660e01b8152600401808581526020018481526020018373ffffffffffffffffffffffffffffffffffffffff1673ffffffffffffffffffffffffffffffffffffffff16815260200180602001828103825283818151815260200191508051906020019080838360005b83811015616641578082015181840152602081019050616626565b50505050905090810190601f16801561666e5780820380516001836020036101000a031916815260200191505b5095505050505050600060405180830381600087803b15801561669057600080fd5b505af11580156166a4573d6000803e3d6000fd5b5050505050505050505050505080806001019150506161ce565b505050565b6000828284039150811115616740576040517f08c379a00000000000000000000000000000000000000000000000000000000081526004018080602001828103825260158152602001807f64732d6d6174682d7375622d756e646572666c6f77000000000000000000000081525060200191505060405180910390fd5b92915050565b60008084116167a0576040517f08c379a00000000000000000000000000000000000000000000000000000000081526004018080602001828103825260248152602001806170c16024913960400191505060405180910390fd5b6000831180156167b05750600082115b616805576040517f08c379a00000000000000000000000000000000000000000000000000000000081526004018080602001828103825260278152602001806170756027913960400191505060405180910390fd5b826168198386616ebd90919063ffffffff16565b8161682057fe5b0490509392505050565b6000808273ffffffffffffffffffffffffffffffffffffffff168473ffffffffffffffffffffffffffffffffffffffff1614156168b2576040517f08c379a00000000000000000000000000000000000000000000000000000000081526004018080602001828103825260248152602001806171336024913960400191505060405180910390fd5b8273ffffffffffffffffffffffffffffffffffffffff168473ffffffffffffffffffffffffffffffffffffffff16106168ec5782846168ef565b83835b8092508193505050600073ffffffffffffffffffffffffffffffffffffffff168273ffffffffffffffffffffffffffffffffffffffff16141561699a576040517f08c379a000000000000000000000000000000000000000000000000000000000815260040180806020018281038252601d8152602001807f4c696e6b737761704c6962726172793a205a45524f5f4144445245535300000081525060200191505060405180910390fd5b9250929050565b600080600073ffffffffffffffffffffffffffffffffffffffff167f000000000000000000000000000000000000000000000000000000000000000073ffffffffffffffffffffffffffffffffffffffff1663e6a439058a8a6040518363ffffffff1660e01b8152600401808373ffffffffffffffffffffffffffffffffffffffff1673ffffffffffffffffffffffffffffffffffffffff1681526020018273ffffffffffffffffffffffffffffffffffffffff1673ffffffffffffffffffffffffffffffffffffffff1681526020019250505060206040518083038186803b158015616a8d57600080fd5b505afa158015616aa1573d6000803e3d6000fd5b505050506040513d6020811015616ab757600080fd5b810190808051906020019092919050505073ffffffffffffffffffffffffffffffffffffffff161415616b52576040517f08c379a00000000000000000000000000000000000000000000000000000000081526004018080602001828103825260208152602001807f4c696e6b73776170526f757465723a20504149525f4e4f545f4352454154454481525060200191505060405180910390fd5b600080616b807f00000000000000000000000000000000000000000000000000000000000000008b8b616cb3565b91509150600082148015616b945750600081145b15616ba85787878094508195505050616ca6565b6000616bb5898484616746565b9050878111616c265785811015616c17576040517f08c379a000000000000000000000000000000000000000000000000000000000815260040180806020018281038252602581526020018061702a6025913960400191505060405180910390fd5b88818095508196505050616ca4565b6000616c33898486616746565b905089811115616c3f57fe5b87811015616c98576040517f08c379a000000000000000000000000000000000000000000000000000000000815260040180806020018281038252602581526020018061709c6025913960400191505060405180910390fd5b80898096508197505050505b505b5050965096945050505050565b6000806000616cc2858561682a565b5090506000808773ffffffffffffffffffffffffffffffffffffffff1663e6a4390588886040518363ffffffff1660e01b8152600401808373ffffffffffffffffffffffffffffffffffffffff1673ffffffffffffffffffffffffffffffffffffffff1681526020018273ffffffffffffffffffffffffffffffffffffffff1673ffffffffffffffffffffffffffffffffffffffff1681526020019250505060206040518083038186803b158015616d7957600080fd5b505afa158015616d8d573d6000803e3d6000fd5b505050506040513d6020811015616da357600080fd5b810190808051906020019092919050505073ffffffffffffffffffffffffffffffffffffffff16630902f1ac6040518163ffffffff1660e01b815260040160606040518083038186803b158015616df957600080fd5b505afa158015616e0d573d6000803e3d6000fd5b505050506040513d6060811015616e2357600080fd5b81019080805190602001909291908051906020019092919080519060200190929190505050506dffffffffffffffffffffffffffff1691506dffffffffffffffffffffffffffff1691508273ffffffffffffffffffffffffffffffffffffffff168773ffffffffffffffffffffffffffffffffffffffff1614616ea7578082616eaa565b81815b8095508196505050505050935093915050565b600080821480616eda5750828283850292508281616ed757fe5b04145b616f4c576040517f08c379a00000000000000000000000000000000000000000000000000000000081526004018080602001828103825260148152602001807f64732d6d6174682d6d756c2d6f766572666c6f7700000000000000000000000081525060200191505060405180910390fd5b92915050565b6000828284019150811015616fcf576040517f08c379a00000000000000000000000000000000000000000000000000000000081526004018080602001828103825260148152602001807f64732d6d6174682d6164642d6f766572666c6f7700000000000000000000000081525060200191505060405180910390fd5b9291505056fe4c696e6b737761704c6962726172793a20494e53554646494349454e545f494e5055545f414d4f554e544c696e6b73776170526f757465723a20494e53554646494349454e545f4f55545055545f414d4f554e544c696e6b73776170526f757465723a20494e53554646494349454e545f425f414d4f554e544c696e6b73776170526f757465723a204558434553534956455f494e5055545f414d4f554e544c696e6b737761704c6962726172793a20494e53554646494349454e545f4c49515549444954594c696e6b73776170526f757465723a20494e53554646494349454e545f415f414d4f554e544c696e6b737761704c6962726172793a20494e53554646494349454e545f414d4f554e545472616e7366657248656c7065723a204554485f5452414e534645525f4641494c45444c696e6b737761704c6962726172793a20494e53554646494349454e545f4f55545055545f414d4f554e544c696e6b737761704c6962726172793a204944454e544943414c5f4144445245535345535472616e7366657248656c7065723a205452414e534645525f46524f4d5f4641494c4544a2646970667358221220a3500e4ca01605b1a8e075a7fac9b9772714e6a56d911634d23dedc1bd33939f64736f6c63430006060033",
  "linkReferences": {},
  "deployedLinkReferences": {}
}