{
  "_format": "hh-sol-artifact-1",
  "contractName": "YFLink",
  "sourceName": "contracts/YFLink.sol",
  "abi": [
    {
      "inputs": [],
      "stateMutability": "nonpayable",
      "type": "constructor"
    },
    {
      "anonymous": false,
      "inputs": [
        {
          "indexed": true,
          "internalType": "address",
          "name": "owner",
          "type": "address"
        },
        {
          "indexed": true,
          "internalType": "address",
          "name": "spender",
          "type": "address"
        },
        {
          "indexed": false,
          "internalType": "uint256",
          "name": "value",
          "type": "uint256"
        }
      ],
      "name": "Approval",
      "type": "event"
    },
    {
      "anonymous": false,
      "inputs": [
        {
          "indexed": true,
          "internalType": "address",
          "name": "from",
          "type": "address"
        },
        {
          "indexed": true,
          "internalType": "address",
          "name": "to",
          "type": "address"
        },
        {
          "indexed": false,
          "internalType": "uint256",
          "name": "value",
          "type": "uint256"
        }
      ],
      "name": "Transfer",
      "type": "event"
    },
    {
      "inputs": [
        {
          "internalType": "address",
          "name": "_minter",
          "type": "address"
        }
      ],
      "name": "addMinter",
      "outputs": [],
      "stateMutability": "nonpayable",
      "type": "function"
    },
    {
      "inputs": [
        {
          "internalType": "address",
          "name": "owner",
          "type": "address"
        },
        {
          "internalType": "address",
          "name": "spender",
          "type": "address"
        }
      ],
      "name": "allowance",
      "outputs": [
        {
          "internalType": "uint256",
          "name": "",
          "type": "uint256"
        }
      ],
      "stateMutability": "view",
      "type": "function"
    },
    {
      "inputs": [
        {
          "internalType": "address",
          "name": "spender",
          "type": "address"
        },
        {
          "internalType": "uint256",
          "name": "amount",
          "type": "uint256"
        }
      ],
      "name": "approve",
      "outputs": [
        {
          "internalType": "bool",
          "name": "",
          "type": "bool"
        }
      ],
      "stateMutability": "nonpayable",
      "type": "function"
    },
    {
      "inputs": [
        {
          "internalType": "address",
          "name": "account",
          "type": "address"
        }
      ],
      "name": "balanceOf",
      "outputs": [
        {
          "internalType": "uint256",
          "name": "",
          "type": "uint256"
        }
      ],
      "stateMutability": "view",
      "type": "function"
    },
    {
      "inputs": [],
      "name": "decimals",
      "outputs": [
        {
          "internalType": "uint8",
          "name": "",
          "type": "uint8"
        }
      ],
      "stateMutability": "view",
      "type": "function"
    },
    {
      "inputs": [
        {
          "internalType": "address",
          "name": "spender",
          "type": "address"
        },
        {
          "internalType": "uint256",
          "name": "subtractedValue",
          "type": "uint256"
        }
      ],
      "name": "decreaseAllowance",
      "outputs": [
        {
          "internalType": "bool",
          "name": "",
          "type": "bool"
        }
      ],
      "stateMutability": "nonpayable",
      "type": "function"
    },
    {
      "inputs": [],
      "name": "governance",
      "outputs": [
        {
          "internalType": "address",
          "name": "",
          "type": "address"
        }
      ],
      "stateMutability": "view",
      "type": "function"
    },
    {
      "inputs": [
        {
          "internalType": "address",
          "name": "spender",
          "type": "address"
        },
        {
          "internalType": "uint256",
          "name": "addedValue",
          "type": "uint256"
        }
      ],
      "name": "increaseAllowance",
      "outputs": [
        {
          "internalType": "bool",
          "name": "",
          "type": "bool"
        }
      ],
      "stateMutability": "nonpayable",
      "type": "function"
    },
    {
      "inputs": [
        {
          "internalType": "address",
          "name": "account",
          "type": "address"
        },
        {
          "internalType": "uint256",
          "name": "amount",
          "type": "uint256"
        }
      ],
      "name": "mint",
      "outputs": [],
      "stateMutability": "nonpayable",
      "type": "function"
    },
    {
      "inputs": [
        {
          "internalType": "address",
          "name": "",
          "type": "address"
        }
      ],
      "name": "minters",
      "outputs": [
        {
          "internalType": "bool",
          "name": "",
          "type": "bool"
        }
      ],
      "stateMutability": "view",
      "type": "function"
    },
    {
      "inputs": [],
      "name": "name",
      "outputs": [
        {
          "internalType": "string",
          "name": "",
          "type": "string"
        }
      ],
      "stateMutability": "view",
      "type": "function"
    },
    {
      "inputs": [
        {
          "internalType": "address",
          "name": "_minter",
          "type": "address"
        }
      ],
      "name": "removeMinter",
      "outputs": [],
      "stateMutability": "nonpayable",
      "type": "function"
    },
    {
      "inputs": [
        {
          "internalType": "address",
          "name": "_governance",
          "type": "address"
        }
      ],
      "name": "setGovernance",
      "outputs": [],
      "stateMutability": "nonpayable",
      "type": "function"
    },
    {
      "inputs": [],
      "name": "symbol",
      "outputs": [
        {
          "internalType": "string",
          "name": "",
          "type": "string"
        }
      ],
      "stateMutability": "view",
      "type": "function"
    },
    {
      "inputs": [],
      "name": "totalSupply",
      "outputs": [
        {
          "internalType": "uint256",
          "name": "",
          "type": "uint256"
        }
      ],
      "stateMutability": "view",
      "type": "function"
    },
    {
      "inputs": [
        {
          "internalType": "address",
          "name": "recipient",
          "type": "address"
        },
        {
          "internalType": "uint256",
          "name": "amount",
          "type": "uint256"
        }
      ],
      "name": "transfer",
      "outputs": [
        {
          "internalType": "bool",
          "name": "",
          "type": "bool"
        }
      ],
      "stateMutability": "nonpayable",
      "type": "function"
    },
    {
      "inputs": [
        {
          "internalType": "address",
          "name": "sender",
          "type": "address"
        },
        {
          "internalType": "address",
          "name": "recipient",
          "type": "address"
        },
        {
          "internalType": "uint256",
          "name": "amount",
          "type": "uint256"
        }
      ],
      "name": "transferFrom",
      "outputs": [
        {
          "internalType": "bool",
          "name": "",
          "type": "bool"
        }
      ],
      "stateMutability": "nonpayable",
      "type": "function"
    }
  ],
  "bytecode": "0x608060405234801561001057600080fd5b506040518060400160405280600681526020016559464c696e6b60d01b8152506040518060400160405280600381526020016216519360ea1b81525081600390805190602001906100629291906100cd565b5080516100769060049060208401906100cd565b50506005805460ff1916601290811790915561009b91506001600160e01b036100b716565b60058054610100600160a81b0319163261010002179055610168565b6005805460ff191660ff92909216919091179055565b828054600181600116156101000203166002900490600052602060002090601f016020900481019282601f1061010e57805160ff191683800117855561013b565b8280016001018555821561013b579182015b8281111561013b578251825591602001919060010190610120565b5061014792915061014b565b5090565b61016591905b808211156101475760008155600101610151565b90565b610e4080620001786000396000f3fe608060405234801561001057600080fd5b506004361061010b5760003560e01c80635aa6e675116100a2578063a457c2d711610071578063a457c2d714610333578063a9059cbb1461035f578063ab033ea91461038b578063dd62ed3e146103b1578063f46eccc4146103df5761010b565b80635aa6e675146102bb57806370a08231146102df57806395d89b4114610305578063983b2d561461030d5761010b565b80633092afd5116100de5780633092afd51461021d578063313ce56714610245578063395093511461026357806340c10f191461028f5761010b565b806306fdde0314610110578063095ea7b31461018d57806318160ddd146101cd57806323b872dd146101e7575b600080fd5b610118610405565b6040805160208082528351818301528351919283929083019185019080838360005b8381101561015257818101518382015260200161013a565b50505050905090810190601f16801561017f5780820380516001836020036101000a031916815260200191505b509250505060405180910390f35b6101b9600480360360408110156101a357600080fd5b506001600160a01b03813516906020013561049b565b604080519115158252519081900360200190f35b6101d56104b8565b60408051918252519081900360200190f35b6101b9600480360360608110156101fd57600080fd5b506001600160a01b038135811691602081013590911690604001356104be565b6102436004803603602081101561023357600080fd5b50356001600160a01b031661054b565b005b61024d6105be565b6040805160ff9092168252519081900360200190f35b6101b96004803603604081101561027957600080fd5b506001600160a01b0381351690602001356105c7565b610243600480360360408110156102a557600080fd5b506001600160a01b03813516906020013561061b565b6102c3610677565b604080516001600160a01b039092168252519081900360200190f35b6101d5600480360360208110156102f557600080fd5b50356001600160a01b031661068b565b6101186106a6565b6102436004803603602081101561032357600080fd5b50356001600160a01b0316610707565b6101b96004803603604081101561034957600080fd5b506001600160a01b03813516906020013561077d565b6101b96004803603604081101561037557600080fd5b506001600160a01b0381351690602001356107eb565b610243600480360360208110156103a157600080fd5b50356001600160a01b03166107ff565b6101d5600480360360408110156103c757600080fd5b506001600160a01b0381358116916020013516610879565b6101b9600480360360208110156103f557600080fd5b50356001600160a01b03166108a4565b60038054604080516020601f60026000196101006001881615020190951694909404938401819004810282018101909252828152606093909290918301828280156104915780601f1061046657610100808354040283529160200191610491565b820191906000526020600020905b81548152906001019060200180831161047457829003601f168201915b5050505050905090565b60006104af6104a86108b9565b84846108bd565b50600192915050565b60025490565b60006104cb8484846109a9565b610541846104d76108b9565b61053c85604051806060016040528060288152602001610d75602891396001600160a01b038a166000908152600160205260408120906105156108b9565b6001600160a01b03168152602081019190915260400160002054919063ffffffff610b1016565b6108bd565b5060019392505050565b60055461010090046001600160a01b0316331461059d576040805162461bcd60e51b815260206004820152600b60248201526a21676f7665726e616e636560a81b604482015290519081900360640190fd5b6001600160a01b03166000908152600660205260409020805460ff19169055565b60055460ff1690565b60006104af6105d46108b9565b8461053c85600160006105e56108b9565b6001600160a01b03908116825260208083019390935260409182016000908120918c16815292529020549063ffffffff610ba716565b3360009081526006602052604090205460ff16610669576040805162461bcd60e51b815260206004820152600760248201526610b6b4b73a32b960c91b604482015290519081900360640190fd5b6106738282610c08565b5050565b60055461010090046001600160a01b031681565b6001600160a01b031660009081526020819052604090205490565b60048054604080516020601f60026000196101006001881615020190951694909404938401819004810282018101909252828152606093909290918301828280156104915780601f1061046657610100808354040283529160200191610491565b60055461010090046001600160a01b03163314610759576040805162461bcd60e51b815260206004820152600b60248201526a21676f7665726e616e636560a81b604482015290519081900360640190fd5b6001600160a01b03166000908152600660205260409020805460ff19166001179055565b60006104af61078a6108b9565b8461053c85604051806060016040528060258152602001610de660259139600160006107b46108b9565b6001600160a01b03908116825260208083019390935260409182016000908120918d1681529252902054919063ffffffff610b1016565b60006104af6107f86108b9565b84846109a9565b60055461010090046001600160a01b03163314610851576040805162461bcd60e51b815260206004820152600b60248201526a21676f7665726e616e636560a81b604482015290519081900360640190fd5b600580546001600160a01b0390921661010002610100600160a81b0319909216919091179055565b6001600160a01b03918216600090815260016020908152604080832093909416825291909152205490565b60066020526000908152604090205460ff1681565b3390565b6001600160a01b0383166109025760405162461bcd60e51b8152600401808060200182810382526024815260200180610dc26024913960400191505060405180910390fd5b6001600160a01b0382166109475760405162461bcd60e51b8152600401808060200182810382526022815260200180610d2d6022913960400191505060405180910390fd5b6001600160a01b03808416600081815260016020908152604080832094871680845294825291829020859055815185815291517f8c5be1e5ebec7d5bd14f71427d1e84f3dd0314c0f7b2291e5b200ac8c7c3b9259281900390910190a3505050565b6001600160a01b0383166109ee5760405162461bcd60e51b8152600401808060200182810382526025815260200180610d9d6025913960400191505060405180910390fd5b6001600160a01b038216610a335760405162461bcd60e51b8152600401808060200182810382526023815260200180610d0a6023913960400191505060405180910390fd5b610a3e838383610d04565b610a8181604051806060016040528060268152602001610d4f602691396001600160a01b038616600090815260208190526040902054919063ffffffff610b1016565b6001600160a01b038085166000908152602081905260408082209390935590841681522054610ab6908263ffffffff610ba716565b6001600160a01b038084166000818152602081815260409182902094909455805185815290519193928716927fddf252ad1be2c89b69c2b068fc378daa952ba7f163c4a11628f55a4df523b3ef92918290030190a3505050565b60008184841115610b9f5760405162461bcd60e51b81526004018080602001828103825283818151815260200191508051906020019080838360005b83811015610b64578181015183820152602001610b4c565b50505050905090810190601f168015610b915780820380516001836020036101000a031916815260200191505b509250505060405180910390fd5b505050900390565b600082820183811015610c01576040805162461bcd60e51b815260206004820152601b60248201527f536166654d6174683a206164646974696f6e206f766572666c6f770000000000604482015290519081900360640190fd5b9392505050565b6001600160a01b038216610c63576040805162461bcd60e51b815260206004820152601f60248201527f45524332303a206d696e7420746f20746865207a65726f206164647265737300604482015290519081900360640190fd5b610c6f60008383610d04565b600254610c82908263ffffffff610ba716565b6002556001600160a01b038216600090815260208190526040902054610cae908263ffffffff610ba716565b6001600160a01b0383166000818152602081815260408083209490945583518581529351929391927fddf252ad1be2c89b69c2b068fc378daa952ba7f163c4a11628f55a4df523b3ef9281900390910190a35050565b50505056fe45524332303a207472616e7366657220746f20746865207a65726f206164647265737345524332303a20617070726f766520746f20746865207a65726f206164647265737345524332303a207472616e7366657220616d6f756e7420657863656564732062616c616e636545524332303a207472616e7366657220616d6f756e74206578636565647320616c6c6f77616e636545524332303a207472616e736665722066726f6d20746865207a65726f206164647265737345524332303a20617070726f76652066726f6d20746865207a65726f206164647265737345524332303a2064656372656173656420616c6c6f77616e63652062656c6f77207a65726fa2646970667358221220200975f7775ccbc66386373a283bf9606f43075c4d0b21f7a40c493b29d7dc7364736f6c63430006060033",
  "linkReferences": {},
  "deployedLinkReferences": {}
}