{
  "_format": "hh-sol-artifact-1",
  "contractName": "YFLPurchaser",
  "sourceName": "contracts/YFLPurchaser.sol",
  "abi": [
    {
      "inputs": [
        {
          "internalType": "address",
          "name": "_governance",
          "type": "address"
        },
        {
          "internalType": "address",
          "name": "_link",
          "type": "address"
        },
        {
          "internalType": "address",
          "name": "_weth",
          "type": "address"
        },
        {
          "internalType": "address",
          "name": "_yfl",
          "type": "address"
        },
        {
          "internalType": "address",
          "name": "_linkWethPair",
          "type": "address"
        },
        {
          "internalType": "address",
          "name": "_yflWethPair",
          "type": "address"
        }
      ],
      "stateMutability": "nonpayable",
      "type": "constructor"
    },
    {
      "inputs": [
        {
          "internalType": "address[]",
          "name": "tokens",
          "type": "address[]"
        }
      ],
      "name": "emergencyWithdraw",
      "outputs": [],
      "stateMutability": "nonpayable",
      "type": "function"
    },
    {
      "inputs": [],
      "name": "governance",
      "outputs": [
        {
          "internalType": "address",
          "name": "",
          "type": "address"
        }
      ],
      "stateMutability": "view",
      "type": "function"
    },
    {
      "inputs": [],
      "name": "link",
      "outputs": [
        {
          "internalType": "address",
          "name": "",
          "type": "address"
        }
      ],
      "stateMutability": "view",
      "type": "function"
    },
    {
      "inputs": [],
      "name": "linkWethPair",
      "outputs": [
        {
          "internalType": "address",
          "name": "",
          "type": "address"
        }
      ],
      "stateMutability": "view",
      "type": "function"
    },
    {
      "inputs": [
        {
          "internalType": "address[]",
          "name": "tokens",
          "type": "address[]"
        }
      ],
      "name": "purchaseYfl",
      "outputs": [],
      "stateMutability": "nonpayable",
      "type": "function"
    },
    {
      "inputs": [],
      "name": "weth",
      "outputs": [
        {
          "internalType": "address",
          "name": "",
          "type": "address"
        }
      ],
      "stateMutability": "view",
      "type": "function"
    },
    {
      "inputs": [],
      "name": "yfl",
      "outputs": [
        {
          "internalType": "address",
          "name": "",
          "type": "address"
        }
      ],
      "stateMutability": "view",
      "type": "function"
    },
    {
      "inputs": [],
      "name": "yflWethPair",
      "outputs": [
        {
          "internalType": "address",
          "name": "",
          "type": "address"
        }
      ],
      "stateMutability": "view",
      "type": "function"
    }
  ],
  "bytecode": "0x61014060405234801561001157600080fd5b506040516113d33803806113d3833981810160405260c081101561003457600080fd5b508051602082015160408301516060840151608085015160a090950151600160005593949293919290916001600160a01b0386161580159061007e57506001600160a01b03851615155b801561009257506001600160a01b03841615155b80156100a657506001600160a01b03831615155b80156100ba57506001600160a01b03821615155b80156100ce57506001600160a01b03811615155b61011f576040805162461bcd60e51b815260206004820152601a60248201527f59464c5075726368617365723a205a45524f5f41444452455353000000000000604482015290519081900360640190fd5b6001600160601b0319606096871b811660805294861b851660a05292851b841660c05290841b831660e052831b82166101005290911b166101205260805160601c60a05160601c60c05160601c60e05160601c6101005160601c6101205160601c6111ba610219600039806108865280610c075280610c7a52508061034e528061067852806106eb5250806108625280610c595280610cb652508061037252806104cb52806106ca52806107185280610b675280610c3752508061032a5280610475528061056d52806105d852806106a85250806101c65280610262528061039f52806107b4528061083e5280610d5552506111ba6000f3fe608060405234801561001057600080fd5b50600436106100885760003560e01c80635168f1411161005b5780635168f141146101335780635aa6e675146101a35780637efbe068146101ab578063ee7c6b6c146101b357610088565b806301c1dfba1461008d5780631c4695f4146100ff578063366953da146101235780633fc8cef31461012b575b600080fd5b6100fd600480360360208110156100a357600080fd5b8101906020810181356401000000008111156100be57600080fd5b8201836020820111156100d057600080fd5b803590602001918460208302840111640100000000831117156100f257600080fd5b5090925090506101bb565b005b610107610328565b604080516001600160a01b039092168252519081900360200190f35b61010761034c565b610107610370565b6100fd6004803603602081101561014957600080fd5b81019060208101813564010000000081111561016457600080fd5b82018360208201111561017657600080fd5b8035906020019184602083028401116401000000008311171561019857600080fd5b509092509050610394565b61010761083c565b610107610860565b610107610884565b336001600160a01b037f00000000000000000000000000000000000000000000000000000000000000001614610232576040805162461bcd60e51b81526020600482015260176024820152762ca326283ab931b430b9b2b91d102327a92124a22222a760491b604482015290519081900360640190fd5b60005b8181101561032357600083838381811061024b57fe5b905060200201356001600160a01b0316905061031a7f0000000000000000000000000000000000000000000000000000000000000000826001600160a01b03166370a08231306040518263ffffffff1660e01b815260040180826001600160a01b03166001600160a01b0316815260200191505060206040518083038186803b1580156102d757600080fd5b505afa1580156102eb573d6000803e3d6000fd5b505050506040513d602081101561030157600080fd5b50516001600160a01b038416919063ffffffff6108a816565b50600101610235565b505050565b7f000000000000000000000000000000000000000000000000000000000000000081565b7f000000000000000000000000000000000000000000000000000000000000000081565b7f000000000000000000000000000000000000000000000000000000000000000081565b336001600160a01b037f0000000000000000000000000000000000000000000000000000000000000000161461040b576040805162461bcd60e51b81526020600482015260176024820152762ca326283ab931b430b9b2b91d102327a92124a22222a760491b604482015290519081900360640190fd5b60026000541415610463576040805162461bcd60e51b815260206004820152601f60248201527f5265656e7472616e637947756172643a207265656e7472616e742063616c6c00604482015290519081900360640190fd5b600260009081555b8181101561077b577f00000000000000000000000000000000000000000000000000000000000000006001600160a01b03168383838181106104a957fe5b905060200201356001600160a01b03166001600160a01b0316148061051a57507f00000000000000000000000000000000000000000000000000000000000000006001600160a01b03168383838181106104ff57fe5b905060200201356001600160a01b03166001600160a01b0316145b61056b576040805162461bcd60e51b815260206004820152601b60248201527f59464c5075726368617365723a20494e56414c49445f544f4b454e0000000000604482015290519081900360640190fd5b7f00000000000000000000000000000000000000000000000000000000000000006001600160a01b03168383838181106105a157fe5b905060200201356001600160a01b03166001600160a01b0316141561071657604080516370a0823160e01b815230600482015290517f0000000000000000000000000000000000000000000000000000000000000000916000916001600160a01b038416916370a08231916024808301926020929190829003018186803b15801561062b57600080fd5b505afa15801561063f573d6000803e3d6000fd5b505050506040513d602081101561065557600080fd5b50519050678ac7230489e8000081111561070f576106a36001600160a01b0383167f00000000000000000000000000000000000000000000000000000000000000008363ffffffff6108a816565b61070f7f0000000000000000000000000000000000000000000000000000000000000000827f00000000000000000000000000000000000000000000000000000000000000007f00000000000000000000000000000000000000000000000000000000000000006108fa565b5050610773565b7f00000000000000000000000000000000000000000000000000000000000000006001600160a01b031683838381811061074c57fe5b905060200201356001600160a01b03166001600160a01b0316141561077357610773610b4f565b60010161046b565b50610784610b4f565b60005b8181101561083257600083838381811061079d57fe5b905060200201356001600160a01b031690506108297f0000000000000000000000000000000000000000000000000000000000000000826001600160a01b03166370a08231306040518263ffffffff1660e01b815260040180826001600160a01b03166001600160a01b0316815260200191505060206040518083038186803b1580156102d757600080fd5b50600101610787565b5050600160005550565b7f000000000000000000000000000000000000000000000000000000000000000081565b7f000000000000000000000000000000000000000000000000000000000000000081565b7f000000000000000000000000000000000000000000000000000000000000000081565b604080516001600160a01b038416602482015260448082018490528251808303909101815260649091019091526020810180516001600160e01b031663a9059cbb60e01b179052610323908490610d87565b6000826001600160a01b0316856001600160a01b03161061091b578261091d565b845b90506000806000846001600160a01b0316630902f1ac6040518163ffffffff1660e01b815260040160606040518083038186803b15801561095d57600080fd5b505afa158015610971573d6000803e3d6000fd5b505050506040513d606081101561098757600080fd5b5080516020909101516dffffffffffffffffffffffffffff91821693501690506000806001600160a01b038a8116908716146109c45782846109c7565b83835b909250905060006109e08a6103e563ffffffff610e3816565b905060006109f4828463ffffffff610e3816565b90506000610a1a83610a0e876103e863ffffffff610e3816565b9063ffffffff610e9a16565b9050808281610a2557fe5b04975050505050505050600080836001600160a01b0316886001600160a01b031614610a5357826000610a57565b6000835b604080516000808252602082019283905263022c0d9f60e01b835260248201858152604483018590526001600160a01b038b1660648401819052608060848501908152845160a486018190529799509597509563022c0d9f95899589958e9590949360c4860192918190849084905b83811015610ade578181015183820152602001610ac6565b50505050905090810190601f168015610b0b5780820380516001836020036101000a031916815260200191505b5095505050505050600060405180830381600087803b158015610b2d57600080fd5b505af1158015610b41573d6000803e3d6000fd5b505050505050505050505050565b604080516370a0823160e01b815230600482015290517f0000000000000000000000000000000000000000000000000000000000000000916000916001600160a01b038416916370a08231916024808301926020929190829003018186803b158015610bba57600080fd5b505afa158015610bce573d6000803e3d6000fd5b505050506040513d6020811015610be457600080fd5b5051905067016345785d8a0000811115610d8357610c326001600160a01b0383167f00000000000000000000000000000000000000000000000000000000000000008363ffffffff6108a816565b610c9e7f0000000000000000000000000000000000000000000000000000000000000000827f00000000000000000000000000000000000000000000000000000000000000007f00000000000000000000000000000000000000000000000000000000000000006108fa565b604080516370a0823160e01b815230600482015290517f0000000000000000000000000000000000000000000000000000000000000000916000916001600160a01b038416916370a08231916024808301926020929190829003018186803b158015610d0957600080fd5b505afa158015610d1d573d6000803e3d6000fd5b505050506040513d6020811015610d3357600080fd5b50519050662386f26fc10000811115610d8057610d806001600160a01b0383167f00000000000000000000000000000000000000000000000000000000000000008363ffffffff6108a816565b50505b5050565b6060610ddc826040518060400160405280602081526020017f5361666545524332303a206c6f772d6c6576656c2063616c6c206661696c6564815250856001600160a01b0316610ef49092919063ffffffff16565b80519091501561032357808060200190516020811015610dfb57600080fd5b50516103235760405162461bcd60e51b815260040180806020018281038252602a81526020018061115b602a913960400191505060405180910390fd5b600082610e4757506000610e94565b82820282848281610e5457fe5b0414610e915760405162461bcd60e51b815260040180806020018281038252602181526020018061113a6021913960400191505060405180910390fd5b90505b92915050565b600082820183811015610e91576040805162461bcd60e51b815260206004820152601b60248201527f536166654d6174683a206164646974696f6e206f766572666c6f770000000000604482015290519081900360640190fd5b6060610f038484600085610f0d565b90505b9392505050565b606082471015610f4e5760405162461bcd60e51b81526004018080602001828103825260268152602001806111146026913960400191505060405180910390fd5b610f5785611069565b610fa8576040805162461bcd60e51b815260206004820152601d60248201527f416464726573733a2063616c6c20746f206e6f6e2d636f6e7472616374000000604482015290519081900360640190fd5b60006060866001600160a01b031685876040518082805190602001908083835b60208310610fe75780518252601f199092019160209182019101610fc8565b6001836020036101000a03801982511681845116808217855250505050505090500191505060006040518083038185875af1925050503d8060008114611049576040519150601f19603f3d011682016040523d82523d6000602084013e61104e565b606091505b509150915061105e82828661106f565b979650505050505050565b3b151590565b6060831561107e575081610f06565b82511561108e5782518084602001fd5b8160405162461bcd60e51b81526004018080602001828103825283818151815260200191508051906020019080838360005b838110156110d85781810151838201526020016110c0565b50505050905090810190601f1680156111055780820380516001836020036101000a031916815260200191505b509250505060405180910390fdfe416464726573733a20696e73756666696369656e742062616c616e636520666f722063616c6c536166654d6174683a206d756c7469706c69636174696f6e206f766572666c6f775361666545524332303a204552433230206f7065726174696f6e20646964206e6f742073756363656564a2646970667358221220bb2586fc1d5d166abfc48cb5f1fa748dff481519e3d571260fb0bd46040db5a364736f6c63430006060033",
  "linkReferences": {},
  "deployedLinkReferences": {}
}