{
  "_format": "hh-sol-artifact-1",
  "contractName": "yYFL",
  "sourceName": "contracts/yYFL.sol",
  "abi": [
    {
      "inputs": [
        {
          "internalType": "address",
          "name": "_yfl",
          "type": "address"
        },
        {
          "internalType": "address",
          "name": "_treasury",
          "type": "address"
        },
        {
          "internalType": "uint256",
          "name": "_blocksForNoWithdrawalFee",
          "type": "uint256"
        },
        {
          "internalType": "uint256",
          "name": "_votingPeriodBlocks",
          "type": "uint256"
        },
        {
          "internalType": "uint256",
          "name": "_executionPeriodBlocks",
          "type": "uint256"
        }
      ],
      "stateMutability": "nonpayable",
      "type": "constructor"
    },
    {
      "anonymous": false,
      "inputs": [
        {
          "indexed": true,
          "internalType": "address",
          "name": "owner",
          "type": "address"
        },
        {
          "indexed": true,
          "internalType": "address",
          "name": "spender",
          "type": "address"
        },
        {
          "indexed": false,
          "internalType": "uint256",
          "name": "value",
          "type": "uint256"
        }
      ],
      "name": "Approval",
      "type": "event"
    },
    {
      "anonymous": false,
      "inputs": [
        {
          "indexed": false,
          "internalType": "uint256",
          "name": "id",
          "type": "uint256"
        },
        {
          "indexed": true,
          "internalType": "address",
          "name": "proposer",
          "type": "address"
        },
        {
          "indexed": false,
          "internalType": "address[]",
          "name": "targets",
          "type": "address[]"
        },
        {
          "indexed": false,
          "internalType": "uint256[]",
          "name": "values",
          "type": "uint256[]"
        },
        {
          "indexed": false,
          "internalType": "string[]",
          "name": "signatures",
          "type": "string[]"
        },
        {
          "indexed": false,
          "internalType": "bytes[]",
          "name": "calldatas",
          "type": "bytes[]"
        },
        {
          "indexed": false,
          "internalType": "uint256",
          "name": "startBlock",
          "type": "uint256"
        },
        {
          "indexed": false,
          "internalType": "uint256",
          "name": "endBlock",
          "type": "uint256"
        },
        {
          "indexed": false,
          "internalType": "string",
          "name": "description",
          "type": "string"
        }
      ],
      "name": "ProposalCreated",
      "type": "event"
    },
    {
      "anonymous": false,
      "inputs": [
        {
          "indexed": false,
          "internalType": "uint256",
          "name": "id",
          "type": "uint256"
        },
        {
          "indexed": false,
          "internalType": "bool",
          "name": "success",
          "type": "bool"
        }
      ],
      "name": "ProposalExecuted",
      "type": "event"
    },
    {
      "anonymous": false,
      "inputs": [
        {
          "indexed": true,
          "internalType": "address",
          "name": "from",
          "type": "address"
        },
        {
          "indexed": true,
          "internalType": "address",
          "name": "to",
          "type": "address"
        },
        {
          "indexed": false,
          "internalType": "uint256",
          "name": "value",
          "type": "uint256"
        }
      ],
      "name": "Transfer",
      "type": "event"
    },
    {
      "anonymous": false,
      "inputs": [
        {
          "indexed": true,
          "internalType": "address",
          "name": "voter",
          "type": "address"
        },
        {
          "indexed": false,
          "internalType": "uint256",
          "name": "proposalId",
          "type": "uint256"
        },
        {
          "indexed": false,
          "internalType": "bool",
          "name": "support",
          "type": "bool"
        },
        {
          "indexed": false,
          "internalType": "uint256",
          "name": "votes",
          "type": "uint256"
        }
      ],
      "name": "VoteCast",
      "type": "event"
    },
    {
      "inputs": [],
      "name": "MAX_OPERATIONS",
      "outputs": [
        {
          "internalType": "uint256",
          "name": "",
          "type": "uint256"
        }
      ],
      "stateMutability": "view",
      "type": "function"
    },
    {
      "inputs": [],
      "name": "YFL",
      "outputs": [
        {
          "internalType": "contract IERC20",
          "name": "",
          "type": "address"
        }
      ],
      "stateMutability": "view",
      "type": "function"
    },
    {
      "inputs": [
        {
          "internalType": "address",
          "name": "owner",
          "type": "address"
        },
        {
          "internalType": "address",
          "name": "spender",
          "type": "address"
        }
      ],
      "name": "allowance",
      "outputs": [
        {
          "internalType": "uint256",
          "name": "",
          "type": "uint256"
        }
      ],
      "stateMutability": "view",
      "type": "function"
    },
    {
      "inputs": [
        {
          "internalType": "address",
          "name": "spender",
          "type": "address"
        },
        {
          "internalType": "uint256",
          "name": "amount",
          "type": "uint256"
        }
      ],
      "name": "approve",
      "outputs": [
        {
          "internalType": "bool",
          "name": "",
          "type": "bool"
        }
      ],
      "stateMutability": "nonpayable",
      "type": "function"
    },
    {
      "inputs": [
        {
          "internalType": "address",
          "name": "account",
          "type": "address"
        }
      ],
      "name": "balanceOf",
      "outputs": [
        {
          "internalType": "uint256",
          "name": "",
          "type": "uint256"
        }
      ],
      "stateMutability": "view",
      "type": "function"
    },
    {
      "inputs": [],
      "name": "blocksForNoWithdrawalFee",
      "outputs": [
        {
          "internalType": "uint256",
          "name": "",
          "type": "uint256"
        }
      ],
      "stateMutability": "view",
      "type": "function"
    },
    {
      "inputs": [
        {
          "internalType": "address[]",
          "name": "tokens",
          "type": "address[]"
        },
        {
          "internalType": "uint256[]",
          "name": "amounts",
          "type": "uint256[]"
        }
      ],
      "name": "convertTokensToYfl",
      "outputs": [],
      "stateMutability": "nonpayable",
      "type": "function"
    },
    {
      "inputs": [],
      "name": "decimals",
      "outputs": [
        {
          "internalType": "uint8",
          "name": "",
          "type": "uint8"
        }
      ],
      "stateMutability": "view",
      "type": "function"
    },
    {
      "inputs": [
        {
          "internalType": "address",
          "name": "spender",
          "type": "address"
        },
        {
          "internalType": "uint256",
          "name": "subtractedValue",
          "type": "uint256"
        }
      ],
      "name": "decreaseAllowance",
      "outputs": [
        {
          "internalType": "bool",
          "name": "",
          "type": "bool"
        }
      ],
      "stateMutability": "nonpayable",
      "type": "function"
    },
    {
      "inputs": [
        {
          "internalType": "address",
          "name": "",
          "type": "address"
        }
      ],
      "name": "earlyWithdrawalFeeExpiry",
      "outputs": [
        {
          "internalType": "uint256",
          "name": "",
          "type": "uint256"
        }
      ],
      "stateMutability": "view",
      "type": "function"
    },
    {
      "inputs": [],
      "name": "earlyWithdrawalFeePercent",
      "outputs": [
        {
          "internalType": "uint256",
          "name": "",
          "type": "uint256"
        }
      ],
      "stateMutability": "view",
      "type": "function"
    },
    {
      "inputs": [
        {
          "internalType": "uint256",
          "name": "id",
          "type": "uint256"
        }
      ],
      "name": "executeProposal",
      "outputs": [],
      "stateMutability": "payable",
      "type": "function"
    },
    {
      "inputs": [],
      "name": "executionPeriodBlocks",
      "outputs": [
        {
          "internalType": "uint256",
          "name": "",
          "type": "uint256"
        }
      ],
      "stateMutability": "view",
      "type": "function"
    },
    {
      "inputs": [],
      "name": "getPricePerFullShare",
      "outputs": [
        {
          "internalType": "uint256",
          "name": "",
          "type": "uint256"
        }
      ],
      "stateMutability": "view",
      "type": "function"
    },
    {
      "inputs": [
        {
          "internalType": "uint256",
          "name": "proposalId",
          "type": "uint256"
        }
      ],
      "name": "getProposalCalls",
      "outputs": [
        {
          "internalType": "address[]",
          "name": "targets",
          "type": "address[]"
        },
        {
          "internalType": "uint256[]",
          "name": "values",
          "type": "uint256[]"
        },
        {
          "internalType": "string[]",
          "name": "signatures",
          "type": "string[]"
        },
        {
          "internalType": "bytes[]",
          "name": "calldatas",
          "type": "bytes[]"
        }
      ],
      "stateMutability": "view",
      "type": "function"
    },
    {
      "inputs": [
        {
          "internalType": "address",
          "name": "staker",
          "type": "address"
        }
      ],
      "name": "getStakeYflValue",
      "outputs": [
        {
          "internalType": "uint256",
          "name": "",
          "type": "uint256"
        }
      ],
      "stateMutability": "view",
      "type": "function"
    },
    {
      "inputs": [
        {
          "internalType": "uint256",
          "name": "proposalId",
          "type": "uint256"
        },
        {
          "internalType": "address",
          "name": "voter",
          "type": "address"
        }
      ],
      "name": "getVotes",
      "outputs": [
        {
          "internalType": "bool",
          "name": "support",
          "type": "bool"
        },
        {
          "internalType": "uint256",
          "name": "voteAmount",
          "type": "uint256"
        }
      ],
      "stateMutability": "view",
      "type": "function"
    },
    {
      "inputs": [
        {
          "internalType": "address",
          "name": "",
          "type": "address"
        }
      ],
      "name": "hasActiveProposal",
      "outputs": [
        {
          "internalType": "bool",
          "name": "",
          "type": "bool"
        }
      ],
      "stateMutability": "view",
      "type": "function"
    },
    {
      "inputs": [
        {
          "internalType": "address",
          "name": "spender",
          "type": "address"
        },
        {
          "internalType": "uint256",
          "name": "addedValue",
          "type": "uint256"
        }
      ],
      "name": "increaseAllowance",
      "outputs": [
        {
          "internalType": "bool",
          "name": "",
          "type": "bool"
        }
      ],
      "stateMutability": "nonpayable",
      "type": "function"
    },
    {
      "inputs": [],
      "name": "minYflForProposal",
      "outputs": [
        {
          "internalType": "uint256",
          "name": "",
          "type": "uint256"
        }
      ],
      "stateMutability": "view",
      "type": "function"
    },
    {
      "inputs": [],
      "name": "name",
      "outputs": [
        {
          "internalType": "string",
          "name": "",
          "type": "string"
        }
      ],
      "stateMutability": "view",
      "type": "function"
    },
    {
      "inputs": [],
      "name": "proposalCount",
      "outputs": [
        {
          "internalType": "uint256",
          "name": "",
          "type": "uint256"
        }
      ],
      "stateMutability": "view",
      "type": "function"
    },
    {
      "inputs": [
        {
          "internalType": "uint256",
          "name": "",
          "type": "uint256"
        }
      ],
      "name": "proposals",
      "outputs": [
        {
          "internalType": "address",
          "name": "proposer",
          "type": "address"
        },
        {
          "internalType": "uint256",
          "name": "totalForVotes",
          "type": "uint256"
        },
        {
          "internalType": "uint256",
          "name": "totalAgainstVotes",
          "type": "uint256"
        },
        {
          "internalType": "uint256",
          "name": "quorumVotes",
          "type": "uint256"
        },
        {
          "internalType": "uint256",
          "name": "endBlock",
          "type": "uint256"
        },
        {
          "internalType": "bool",
          "name": "executed",
          "type": "bool"
        }
      ],
      "stateMutability": "view",
      "type": "function"
    },
    {
      "inputs": [
        {
          "internalType": "address[]",
          "name": "targets",
          "type": "address[]"
        },
        {
          "internalType": "uint256[]",
          "name": "values",
          "type": "uint256[]"
        },
        {
          "internalType": "string[]",
          "name": "signatures",
          "type": "string[]"
        },
        {
          "internalType": "bytes[]",
          "name": "calldatas",
          "type": "bytes[]"
        },
        {
          "internalType": "string",
          "name": "description",
          "type": "string"
        }
      ],
      "name": "propose",
      "outputs": [
        {
          "internalType": "uint256",
          "name": "id",
          "type": "uint256"
        }
      ],
      "stateMutability": "nonpayable",
      "type": "function"
    },
    {
      "inputs": [],
      "name": "quorumPercent",
      "outputs": [
        {
          "internalType": "uint256",
          "name": "",
          "type": "uint256"
        }
      ],
      "stateMutability": "view",
      "type": "function"
    },
    {
      "inputs": [
        {
          "internalType": "uint256",
          "name": "_blocksForNoWithdrawalFee",
          "type": "uint256"
        }
      ],
      "name": "setBlocksForNoWithdrawalFee",
      "outputs": [],
      "stateMutability": "nonpayable",
      "type": "function"
    },
    {
      "inputs": [
        {
          "internalType": "uint256",
          "name": "_earlyWithdrawalFeePercent",
          "type": "uint256"
        }
      ],
      "name": "setEarlyWithdrawalFeePercent",
      "outputs": [],
      "stateMutability": "nonpayable",
      "type": "function"
    },
    {
      "inputs": [
        {
          "internalType": "uint256",
          "name": "_executionPeriodBlocks",
          "type": "uint256"
        }
      ],
      "name": "setExecutionPeriodBlocks",
      "outputs": [],
      "stateMutability": "nonpayable",
      "type": "function"
    },
    {
      "inputs": [
        {
          "internalType": "uint256",
          "name": "_minYflForProposal",
          "type": "uint256"
        }
      ],
      "name": "setMinYflForProposal",
      "outputs": [],
      "stateMutability": "nonpayable",
      "type": "function"
    },
    {
      "inputs": [
        {
          "internalType": "uint256",
          "name": "_quorumPercent",
          "type": "uint256"
        }
      ],
      "name": "setQuorumPercent",
      "outputs": [],
      "stateMutability": "nonpayable",
      "type": "function"
    },
    {
      "inputs": [
        {
          "internalType": "address",
          "name": "_treasury",
          "type": "address"
        }
      ],
      "name": "setTreasury",
      "outputs": [],
      "stateMutability": "nonpayable",
      "type": "function"
    },
    {
      "inputs": [
        {
          "internalType": "uint256",
          "name": "_treasuryEarlyWithdrawalFeeShare",
          "type": "uint256"
        }
      ],
      "name": "setTreasuryEarlyWithdrawalFeeShare",
      "outputs": [],
      "stateMutability": "nonpayable",
      "type": "function"
    },
    {
      "inputs": [
        {
          "internalType": "uint256",
          "name": "_voteThresholdPercent",
          "type": "uint256"
        }
      ],
      "name": "setVoteThresholdPercent",
      "outputs": [],
      "stateMutability": "nonpayable",
      "type": "function"
    },
    {
      "inputs": [
        {
          "internalType": "uint256",
          "name": "_votingPeriodBlocks",
          "type": "uint256"
        }
      ],
      "name": "setVotingPeriodBlocks",
      "outputs": [],
      "stateMutability": "nonpayable",
      "type": "function"
    },
    {
      "inputs": [
        {
          "internalType": "address",
          "name": "_yflPurchaser",
          "type": "address"
        }
      ],
      "name": "setYflPurchaser",
      "outputs": [],
      "stateMutability": "nonpayable",
      "type": "function"
    },
    {
      "inputs": [
        {
          "internalType": "uint256",
          "name": "amount",
          "type": "uint256"
        }
      ],
      "name": "stake",
      "outputs": [],
      "stateMutability": "nonpayable",
      "type": "function"
    },
    {
      "inputs": [],
      "name": "symbol",
      "outputs": [
        {
          "internalType": "string",
          "name": "",
          "type": "string"
        }
      ],
      "stateMutability": "view",
      "type": "function"
    },
    {
      "inputs": [],
      "name": "totalSupply",
      "outputs": [
        {
          "internalType": "uint256",
          "name": "",
          "type": "uint256"
        }
      ],
      "stateMutability": "view",
      "type": "function"
    },
    {
      "inputs": [
        {
          "internalType": "address",
          "name": "recipient",
          "type": "address"
        },
        {
          "internalType": "uint256",
          "name": "amount",
          "type": "uint256"
        }
      ],
      "name": "transfer",
      "outputs": [
        {
          "internalType": "bool",
          "name": "",
          "type": "bool"
        }
      ],
      "stateMutability": "nonpayable",
      "type": "function"
    },
    {
      "inputs": [
        {
          "internalType": "address",
          "name": "sender",
          "type": "address"
        },
        {
          "internalType": "address",
          "name": "recipient",
          "type": "address"
        },
        {
          "internalType": "uint256",
          "name": "amount",
          "type": "uint256"
        }
      ],
      "name": "transferFrom",
      "outputs": [
        {
          "internalType": "bool",
          "name": "",
          "type": "bool"
        }
      ],
      "stateMutability": "nonpayable",
      "type": "function"
    },
    {
      "inputs": [],
      "name": "treasury",
      "outputs": [
        {
          "internalType": "address",
          "name": "",
          "type": "address"
        }
      ],
      "stateMutability": "view",
      "type": "function"
    },
    {
      "inputs": [],
      "name": "treasuryEarlyWithdrawalFeeShare",
      "outputs": [
        {
          "internalType": "uint256",
          "name": "",
          "type": "uint256"
        }
      ],
      "stateMutability": "view",
      "type": "function"
    },
    {
      "inputs": [
        {
          "internalType": "uint256",
          "name": "id",
          "type": "uint256"
        },
        {
          "internalType": "bool",
          "name": "support",
          "type": "bool"
        },
        {
          "internalType": "uint256",
          "name": "voteAmount",
          "type": "uint256"
        }
      ],
      "name": "vote",
      "outputs": [],
      "stateMutability": "nonpayable",
      "type": "function"
    },
    {
      "inputs": [
        {
          "internalType": "address",
          "name": "",
          "type": "address"
        }
      ],
      "name": "voteLockAmount",
      "outputs": [
        {
          "internalType": "uint256",
          "name": "",
          "type": "uint256"
        }
      ],
      "stateMutability": "view",
      "type": "function"
    },
    {
      "inputs": [
        {
          "internalType": "address",
          "name": "",
          "type": "address"
        }
      ],
      "name": "voteLockExpiry",
      "outputs": [
        {
          "internalType": "uint256",
          "name": "",
          "type": "uint256"
        }
      ],
      "stateMutability": "view",
      "type": "function"
    },
    {
      "inputs": [],
      "name": "voteThresholdPercent",
      "outputs": [
        {
          "internalType": "uint256",
          "name": "",
          "type": "uint256"
        }
      ],
      "stateMutability": "view",
      "type": "function"
    },
    {
      "inputs": [],
      "name": "votingPeriodBlocks",
      "outputs": [
        {
          "internalType": "uint256",
          "name": "",
          "type": "uint256"
        }
      ],
      "stateMutability": "view",
      "type": "function"
    },
    {
      "inputs": [
        {
          "internalType": "uint256",
          "name": "shares",
          "type": "uint256"
        }
      ],
      "name": "withdraw",
      "outputs": [],
      "stateMutability": "nonpayable",
      "type": "function"
    },
    {
      "inputs": [],
      "name": "yflPurchaser",
      "outputs": [
        {
          "internalType": "address",
          "name": "",
          "type": "address"
        }
      ],
      "stateMutability": "view",
      "type": "function"
    }
  ],
  "bytecode": "0x60a0604052612710600855620c3500600b5567016345785d8a000060135562030d406014556207a1206015553480156200003857600080fd5b5060405162004248380380620042488339810160408190526200005b91620002d4565b604080518082018252601481527f59464c696e6b205374616b696e672053686172650000000000000000000000006020808301918252835180850190945260048452631e56519360e21b908401528151919291620000bc9160039162000211565b508051620000d290600490602084019062000211565b50506005805460ff191660121790555060016006556001600160a01b038516158015906200010857506001600160a01b03841615155b620001305760405162461bcd60e51b8152600401620001279062000352565b60405180910390fd5b620001b8856001600160a01b031663313ce5676040518163ffffffff1660e01b815260040160206040518083038186803b1580156200016e57600080fd5b505afa15801562000183573d6000803e3d6000fd5b505050506040513d601f19601f82011682018060405250810190620001a9919062000328565b6001600160e01b03620001fb16565b60609490941b6001600160601b031916608052600a80546001600160a01b0319166001600160a01b0394909416939093179092556007556012556016556200037e565b6005805460ff191660ff92909216919091179055565b828054600181600116156101000203166002900490600052602060002090601f016020900481019282601f106200025457805160ff191683800117855562000284565b8280016001018555821562000284579182015b828111156200028457825182559160200191906001019062000267565b506200029292915062000296565b5090565b620002b391905b808211156200029257600081556001016200029d565b90565b80516001600160a01b0381168114620002ce57600080fd5b92915050565b600080600080600060a08688031215620002ec578081fd5b620002f88787620002b6565b9450620003098760208801620002b6565b6040870151606088015160809098015196999198509695945092505050565b6000602082840312156200033a578081fd5b815160ff811681146200034b578182fd5b9392505050565b6020808252601290820152717959464c3a205a45524f5f4144445245535360701b604082015260600190565b60805160601c613e75620003d360003980610e555280610f925280610fe2528061118252806112ca52806113c052806114c2528061193852806119c95280611a7c5280611bac528061206e5250613e756000f3fe6080604052600436106102ae5760003560e01c806384db62f411610175578063b83577c5116100dc578063dabee55411610095578063e91b2f251161006f578063e91b2f2514610807578063f0f4426014610827578063f81cbd2614610847578063ffafe4ad1461085c576102ae565b8063dabee554146107bd578063dd62ed3e146107d2578063e7113b6a146107f2576102ae565b8063b83577c51461071e578063b902421f14610733578063c934774014610748578063d46a5d7e14610768578063da35c66414610788578063da95691a1461079d576102ae565b8063a457c2d71161012e578063a457c2d714610674578063a4803b3314610694578063a694fc3a146106a9578063a7eea296146106c9578063a9059cbb146106e9578063b24b7ffd14610709576102ae565b806384db62f4146105af57806387be686a146105cf57806394924e55146105ef57806395d89b411461060f5780639f69053514610624578063a388133a14610654576102ae565b8063313ce5671161021957806368197360116101d257806368197360146104f75780636d6b086f1461052557806370a082311461054557806377c7b8fc14610565578063797294ac1461057a578063809c84b21461059a576102ae565b8063313ce5671461044957806338e440841461046b578063395093511461048057806357b223ba146104a05780635dc2803a146104c057806361d027b3146104d5576102ae565b80630f2049dd1161026b5780630f2049dd1461039f57806318160ddd146103bf57806323b872dd146103d4578063253fe18a146103f457806328a7878b146104095780632e1a7d4d14610429576102ae565b8063013cf08b146102b357806306fdde03146102ee578063089275ff14610310578063095ea7b31461033d5780630c9f441f1461036a5780630d61b5191461038c575b600080fd5b3480156102bf57600080fd5b506102d36102ce366004613272565b61087c565b6040516102e5969594939291906134e1565b60405180910390f35b3480156102fa57600080fd5b506103036108be565b6040516102e591906135cb565b34801561031c57600080fd5b5061033061032b366004613071565b610955565b6040516102e59190613c54565b34801561034957600080fd5b5061035d6103583660046130f7565b610967565b6040516102e591906135b0565b34801561037657600080fd5b5061038a610385366004613272565b6109b0565b005b61038a61039a366004613272565b6109e4565b3480156103ab57600080fd5b506103306103ba366004613071565b610d19565b3480156103cb57600080fd5b50610330610d2b565b3480156103e057600080fd5b5061035d6103ef3660046130b7565b610d31565b34801561040057600080fd5b50610330610d73565b34801561041557600080fd5b5061038a610424366004613272565b610d79565b34801561043557600080fd5b5061038a610444366004613272565b610dad565b34801561045557600080fd5b5061045e611018565b6040516102e59190613d06565b34801561047757600080fd5b50610330611021565b34801561048c57600080fd5b5061035d61049b3660046130f7565b611027565b3480156104ac57600080fd5b5061038a6104bb366004613272565b61105b565b3480156104cc57600080fd5b5061033061109d565b3480156104e157600080fd5b506104ea6110a2565b6040516102e59190613490565b34801561050357600080fd5b506105176105123660046132a2565b6110b1565b6040516102e59291906135bb565b34801561053157600080fd5b50610330610540366004613071565b61113a565b34801561055157600080fd5b50610330610560366004613071565b61114c565b34801561057157600080fd5b50610330611167565b34801561058657600080fd5b5061038a610595366004613272565b6111d1565b3480156105a657600080fd5b50610330611214565b3480156105bb57600080fd5b5061038a6105ca366004613272565b61121a565b3480156105db57600080fd5b5061038a6105ea366004613121565b61124e565b3480156105fb57600080fd5b5061038a61060a366004613272565b611571565b34801561061b57600080fd5b506103036115b3565b34801561063057600080fd5b5061064461063f366004613272565b611614565b6040516102e59493929190613564565b34801561066057600080fd5b5061038a61066f366004613272565b6118bf565b34801561068057600080fd5b5061035d61068f3660046130f7565b611902565b3480156106a057600080fd5b506104ea611936565b3480156106b557600080fd5b5061038a6106c4366004613272565b61195a565b3480156106d557600080fd5b5061038a6106e4366004613272565b611ae0565b3480156106f557600080fd5b5061035d6107043660046130f7565b611b2d565b34801561071557600080fd5b50610330611b61565b34801561072a57600080fd5b506104ea611b67565b34801561073f57600080fd5b50610330611b76565b34801561075457600080fd5b50610330610763366004613071565b611b7c565b34801561077457600080fd5b5061038a6107833660046132c5565b611be7565b34801561079457600080fd5b50610330611f09565b3480156107a957600080fd5b506103306107b836600461318a565b611f0f565b3480156107c957600080fd5b5061033061224d565b3480156107de57600080fd5b506103306107ed36600461308c565b612253565b3480156107fe57600080fd5b5061033061227e565b34801561081357600080fd5b5061038a610822366004613071565b612284565b34801561083357600080fd5b5061038a610842366004613071565b6122d8565b34801561085357600080fd5b50610330612319565b34801561086857600080fd5b5061035d610877366004613071565b61231f565b601060205260009081526040902080546003820154600483015460058401546006850154600b909501546001600160a01b039094169492939192909160ff1686565b60038054604080516020601f600260001961010060018816150201909516949094049384018190048102820181019092528281526060939092909183018282801561094a5780601f1061091f5761010080835404028352916020019161094a565b820191906000526020600020905b81548152906001019060200180831161092d57829003601f168201915b505050505090505b90565b600e6020526000908152604090205481565b6000600260065414156109955760405162461bcd60e51b815260040161098c90613b4e565b60405180910390fd5b60026006556109a48383612334565b50600160065592915050565b3330146109cf5760405162461bcd60e51b815260040161098c90613b85565b620f42408111156109df57600080fd5b600b55565b60026006541415610a075760405162461bcd60e51b815260040161098c90613b4e565b60026006556000818152601060205260409020600b81015460ff1615610a3f5760405162461bcd60e51b815260040161098c90613924565b80546001600160a01b0316610a665760405162461bcd60e51b815260040161098c9061399c565b8060060154431015610a8a5760405162461bcd60e51b815260040161098c9061381e565b80546001600160a01b03166000908152600f60205260408120805460ff1916905560048201546003830154610ac49163ffffffff61235116565b90508160050154811080610afb5750620f4240610aec6015548361237d90919063ffffffff16565b81610af357fe5b048260030154105b80610b1c57506016546006830154610b189163ffffffff61235116565b4310155b15610b28575050610d11565b5060013460005b6007840154811015610cc3576000846008018281548110610b4c57fe5b90600052602060002001541115610bb557836008018181548110610b6c57fe5b9060005260206000200154821015610b965760405162461bcd60e51b815260040161098c90613645565b836008018181548110610ba557fe5b9060005260206000200154820391505b836007018181548110610bc457fe5b6000918252602090912001546008850180546001600160a01b039092169183908110610bec57fe5b9060005260206000200154856009018381548110610c0657fe5b90600052602060002001604051610c1d9190613484565b604051809103902086600a018481548110610c3457fe5b90600052602060002001604051602001610c4f92919061344c565b60408051601f1981840301815290829052610c6991613468565b60006040518083038185875af1925050503d8060008114610ca6576040519150601f19603f3d011682016040523d82523d6000602084013e610cab565b606091505b50508093505082610cbb57610cc3565b600101610b2f565b50600b8301805460ff191660011790556040517f948f4a9cd986f1118c3fbd459f7a22b23c0693e1ca3ef06a6a8be5aa7d39cc0390610d059086908590613ce0565b60405180910390a15050505b506001600655565b60096020526000908152604090205481565b60025490565b600060026006541415610d565760405162461bcd60e51b815260040161098c90613b4e565b6002600655610d668484846123b7565b5060016006559392505050565b60085481565b333014610d985760405162461bcd60e51b815260040161098c90613b85565b620f4240811115610da857600080fd5b600855565b60026006541415610dd05760405162461bcd60e51b815260040161098c90613b4e565b600260065580610df25760405162461bcd60e51b815260040161098c90613621565b610dfa612444565b336000818152600d6020526040902054610e2391610e179061114c565b9063ffffffff61247a16565b811115610e425760405162461bcd60e51b815260040161098c90613855565b6000610f07610e4f610d2b565b610efb847f00000000000000000000000000000000000000000000000000000000000000006001600160a01b03166370a08231306040518263ffffffff1660e01b8152600401610e9f9190613490565b60206040518083038186803b158015610eb757600080fd5b505afa158015610ecb573d6000803e3d6000fd5b505050506040513d601f19601f82011682018060405250810190610eef919061328a565b9063ffffffff61237d16565b9063ffffffff6124bc16565b9050610f1333836124fe565b33600090815260096020526040902054431015610fd5576000620f4240610f456008548461237d90919063ffffffff16565b81610f4c57fe5b049050610fc1600a60009054906101000a90046001600160a01b0316620f4240610f81600b548561237d90919063ffffffff16565b81610f8857fe5b6001600160a01b037f0000000000000000000000000000000000000000000000000000000000000000169291900463ffffffff6125ec16565b610fd1828263ffffffff61247a16565b9150505b61100f6001600160a01b037f000000000000000000000000000000000000000000000000000000000000000016338363ffffffff6125ec16565b50506001600655565b60055460ff1690565b60075481565b60006002600654141561104c5760405162461bcd60e51b815260040161098c90613b4e565b60026006556109a48383612647565b33301461107a5760405162461bcd60e51b815260040161098c90613b85565b610780811015801561108f57506202a3008111155b61109857600080fd5b601655565b600a81565b600a546001600160a01b031681565b60008281526010602090815260408083206001600160a01b03851684526001019091528120541515908161110a5760008481526010602090815260408083206001600160a01b0387168452600201909152902054611131565b60008481526010602090815260408083206001600160a01b03871684526001019091529020545b90509250929050565b600d6020526000908152604090205481565b6001600160a01b031660009081526020819052604090205490565b60006111cc611174610d2b565b610efb670de0b6b3a76400007f00000000000000000000000000000000000000000000000000000000000000006001600160a01b03166370a08231306040518263ffffffff1660e01b8152600401610e9f9190613490565b905090565b3330146111f05760405162461bcd60e51b815260040161098c90613b85565b620186a081101580156112065750620509108111155b61120f57600080fd5b601455565b60155481565b3330146112395760405162461bcd60e51b815260040161098c90613b85565b6205460081111561124957600080fd5b600755565b600260065414156112715760405162461bcd60e51b815260040161098c90613b4e565b6002600655600c546001600160a01b031661129e5760405162461bcd60e51b815260040161098c906137a1565b8281146112bd5760405162461bcd60e51b815260040161098c9061371a565b60005b838110156113a5577f00000000000000000000000000000000000000000000000000000000000000006001600160a01b03168585838181106112fe57fe5b90506020020160208101906113139190613071565b6001600160a01b0316141561133a5760405162461bcd60e51b815260040161098c906138b6565b600085858381811061134857fe5b905060200201602081019061135d9190613071565b600c5490915061139c906001600160a01b031685858581811061137c57fe5b90506020020135836001600160a01b03166125ec9092919063ffffffff16565b506001016112c0565b506040516370a0823160e01b81526000906001600160a01b037f000000000000000000000000000000000000000000000000000000000000000016906370a08231906113f5903090600401613490565b60206040518083038186803b15801561140d57600080fd5b505afa158015611421573d6000803e3d6000fd5b505050506040513d601f19601f82011682018060405250810190611445919061328a565b600c54604051635168f14160e01b81529192506001600160a01b031690635168f141906114789088908890600401613516565b600060405180830381600087803b15801561149257600080fd5b505af11580156114a6573d6000803e3d6000fd5b50506040516370a0823160e01b81528392506001600160a01b037f00000000000000000000000000000000000000000000000000000000000000001691506370a08231906114f8903090600401613490565b60206040518083038186803b15801561151057600080fd5b505afa158015611524573d6000803e3d6000fd5b505050506040513d601f19601f82011682018060405250810190611548919061328a565b116115655760405162461bcd60e51b815260040161098c90613771565b50506001600655505050565b3330146115905760405162461bcd60e51b815260040161098c90613b85565b61078081101580156115a5575062013b008111155b6115ae57600080fd5b601255565b60048054604080516020601f600260001961010060018816150201909516949094049384018190048102820181019092528281526060939092909183018282801561094a5780601f1061091f5761010080835404028352916020019161094a565b6060806060806010600086815260200190815260200160002060070180548060200260200160405190810160405280929190818152602001828054801561168457602002820191906000526020600020905b81546001600160a01b03168152600190910190602001808311611666575b50505050509350601060008681526020019081526020016000206008018054806020026020016040519081016040528092919081815260200182805480156116eb57602002820191906000526020600020905b8154815260200190600101908083116116d7575b505050600088815260106020908152604080832060090180548251818502810185019093528083529699509095909450925084015b828210156117cb5760008481526020908190208301805460408051601f60026000196101006001871615020190941693909304928301859004850281018501909152818152928301828280156117b75780601f1061178c576101008083540402835291602001916117b7565b820191906000526020600020905b81548152906001019060200180831161179a57829003601f168201915b505050505081526020019060010190611720565b50505050915060106000868152602001908152602001600020600a01805480602002602001604051908101604052809291908181526020016000905b828210156118b25760008481526020908190208301805460408051601f600260001961010060018716150201909416939093049283018590048502810185019091528181529283018282801561189e5780601f106118735761010080835404028352916020019161189e565b820191906000526020600020905b81548152906001019060200180831161188157829003601f168201915b505050505081526020019060010190611807565b5050505090509193509193565b3330146118de5760405162461bcd60e51b815260040161098c90613b85565b6207a12081101580156118f45750620a12208111155b6118fd57600080fd5b601555565b6000600260065414156119275760405162461bcd60e51b815260040161098c90613b4e565b60026006556109a4838361269b565b7f000000000000000000000000000000000000000000000000000000000000000081565b6002600654141561197d5760405162461bcd60e51b815260040161098c90613b4e565b60026006558061199f5760405162461bcd60e51b815260040161098c90613621565b60006119a9610d2b565b15611a6b576040516370a0823160e01b8152611a66906001600160a01b037f000000000000000000000000000000000000000000000000000000000000000016906370a08231906119fe903090600401613490565b60206040518083038186803b158015611a1657600080fd5b505afa158015611a2a573d6000803e3d6000fd5b505050506040513d601f19601f82011682018060405250810190611a4e919061328a565b610efb611a59610d2b565b859063ffffffff61237d16565b611a6d565b815b9050611aaa6001600160a01b037f00000000000000000000000000000000000000000000000000000000000000001633308563ffffffff61270916565b611ab43382612730565b600754611ac7904363ffffffff61235116565b3360009081526009602052604090205550506001600655565b333014611aff5760405162461bcd60e51b815260040161098c90613b85565b662386f26fc100008110158015611b1f5750681c30731cec032000008111155b611b2857600080fd5b601355565b600060026006541415611b525760405162461bcd60e51b815260040161098c90613b4e565b60026006556109a483836127f0565b60125481565b600c546001600160a01b031681565b600b5481565b6000611be1611b89610d2b565b610efb611b958561114c565b6040516370a0823160e01b81526001600160a01b037f000000000000000000000000000000000000000000000000000000000000000016906370a0823190610e9f903090600401613490565b92915050565b60026006541415611c0a5760405162461bcd60e51b815260040161098c90613b4e565b6002600655600083815260106020526040902080546001600160a01b0316611c445760405162461bcd60e51b815260040161098c9061399c565b80600601544310611c675760405162461bcd60e51b815260040161098c906136ee565b60008211611c875760405162461bcd60e51b815260040161098c90613621565b611c903361114c565b821115611caf5760405162461bcd60e51b815260040161098c90613855565b611cb7612444565b336000908152600d6020526040902054821015611ce65760405162461bcd60e51b815260040161098c90613bae565b828015611d03575033600090815260018201602052604090205482145b80611d27575082158015611d27575033600090815260028201602052604090205482145b15611d445760405162461bcd60e51b815260040161098c90613748565b336000908152600d6020526040902054821115611d6e57336000908152600d602052604090208290555b336000908152600e6020526040902054600682015411611d9d57336000908152600e6020526040902054611da3565b80600601545b336000908152600e60205260409020558215611e3b573360009081526001820160205260409020546003820154611de59190610e17908563ffffffff61235116565b60038201553360009081526001820160209081526040808320859055600284019091529020546004820154611e1f9163ffffffff61247a16565b6004820155336000908152600282016020526040812055611eb9565b3360009081526002820160205260409020546004820154611e679190610e17908563ffffffff61235116565b60048201553360009081526002820160209081526040808320859055600184019091529020546003820154611ea19163ffffffff61247a16565b60038201553360009081526001820160205260408120555b336001600160a01b03167f877856338e13f63d0c36822ff0ef736b80934cd90574a3a5bc9262c39d217c46858585604051611ef693929190613cf0565b60405180910390a2505060016006555050565b60115481565b600060026006541415611f345760405162461bcd60e51b815260040161098c90613b4e565b6002600655336000908152600f602052604090205460ff1615611f695760405162461bcd60e51b815260040161098c906138ed565b84518651148015611f7b575083518651145b8015611f88575082518651145b611fa45760405162461bcd60e51b815260040161098c9061371a565b8551611fc25760405162461bcd60e51b815260040161098c9061388c565b600a86511115611fe45760405162461bcd60e51b815260040161098c90613a14565b601354611ffe611ff2610d2b565b610efb611b953361114c565b101561201c5760405162461bcd60e51b815260040161098c90613bda565b601254600090612032904363ffffffff61235116565b90506011549150604051806101400160405280336001600160a01b031681526020016000815260200160008152602001620f42406120b86014547f00000000000000000000000000000000000000000000000000000000000000006001600160a01b03166370a08231306040518263ffffffff1660e01b8152600401610e9f9190613490565b816120bf57fe5b048152602080820184905260408083018b905260608084018b905260808085018b905260a08086018b9052600060c09096018690528886526010855294839020865181546001600160a01b0319166001600160a01b0390911617815586850151600382015592860151600484015590850151600583015584015160068201559183015180516121549260078501920190612be6565b5060c08201518051612170916008840191602090910190612c4b565b5060e0820151805161218c916009840191602090910190612c92565b5061010082015180516121a991600a840191602090910190612ceb565b506101209190910151600b909101805491151560ff19928316179055336000908152600f60205260409020805490911660019081179091556011546121f39163ffffffff61235116565b60115560405133907f7d84a6263ae0d98d3329bd7b46bb4e8d6f98cd35a7adb45c274c8b7fd5ebd5e0906122369085908b908b908b908b9043908a908d90613c5d565b60405180910390a250600160065595945050505050565b60165481565b6001600160a01b03918216600090815260016020908152604080832093909416825291909152205490565b60135481565b3330146122a35760405162461bcd60e51b815260040161098c90613b85565b6001600160a01b0381166122b657600080fd5b600c80546001600160a01b0319166001600160a01b0392909216919091179055565b3330146122f75760405162461bcd60e51b815260040161098c90613b85565b600a80546001600160a01b0319166001600160a01b0392909216919091179055565b60145481565b600f6020526000908152604090205460ff1681565b6000612348612341612804565b8484612808565b50600192915050565b6000828201838110156123765760405162461bcd60e51b815260040161098c906136b7565b9392505050565b60008261238c57506000611be1565b8282028284828161239957fe5b04146123765760405162461bcd60e51b815260040161098c9061395b565b60006123c48484846128bc565b61243a846123d0612804565b61243585604051806060016040528060288152602001613df3602891396001600160a01b038a1660009081526001602052604081209061240e612804565b6001600160a01b03168152602081019190915260400160002054919063ffffffff6129dd16565b612808565b5060019392505050565b336000908152600e6020526040902054431061247857336000908152600e60209081526040808320839055600d9091528120555b565b600061237683836040518060400160405280601e81526020017f536166654d6174683a207375627472616374696f6e206f766572666c6f7700008152506129dd565b600061237683836040518060400160405280601a81526020017f536166654d6174683a206469766973696f6e206279207a65726f000000000000815250612a09565b6001600160a01b0382166125245760405162461bcd60e51b815260040161098c906139d3565b61253082600083612642565b61257381604051806060016040528060228152602001613dab602291396001600160a01b038516600090815260208190526040902054919063ffffffff6129dd16565b6001600160a01b03831660009081526020819052604090205560025461259f908263ffffffff61247a16565b6002556040516000906001600160a01b038416907fddf252ad1be2c89b69c2b068fc378daa952ba7f163c4a11628f55a4df523b3ef906125e0908590613c54565b60405180910390a35050565b6126428363a9059cbb60e01b848460405160240161260b9291906134c8565b60408051601f198184030181529190526020810180516001600160e01b03166001600160e01b031990931692909217909152612a40565b505050565b6000612348612654612804565b846124358560016000612665612804565b6001600160a01b03908116825260208083019390935260409182016000908120918c16815292529020549063ffffffff61235116565b60006123486126a8612804565b8461243585604051806060016040528060258152602001613e1b60259139600160006126d2612804565b6001600160a01b03908116825260208083019390935260409182016000908120918d1681529252902054919063ffffffff6129dd16565b61272a846323b872dd60e01b85858560405160240161260b939291906134a4565b50505050565b6001600160a01b0382166127565760405162461bcd60e51b815260040161098c90613c1d565b61276260008383612642565b600254612775908263ffffffff61235116565b6002556001600160a01b0382166000908152602081905260409020546127a1908263ffffffff61235116565b6001600160a01b0383166000818152602081905260408082209390935591519091907fddf252ad1be2c89b69c2b068fc378daa952ba7f163c4a11628f55a4df523b3ef906125e0908590613c54565b60006123486127fd612804565b84846128bc565b3390565b6001600160a01b03831661282e5760405162461bcd60e51b815260040161098c90613a89565b6001600160a01b0382166128545760405162461bcd60e51b815260040161098c90613675565b6001600160a01b0380841660008181526001602090815260408083209487168084529490915290819020849055517f8c5be1e5ebec7d5bd14f71427d1e84f3dd0314c0f7b2291e5b200ac8c7c3b925906128af908590613c54565b60405180910390a3505050565b6001600160a01b0383166128e25760405162461bcd60e51b815260040161098c90613a44565b6001600160a01b0382166129085760405162461bcd60e51b815260040161098c906135de565b612913838383612642565b61295681604051806060016040528060268152602001613dcd602691396001600160a01b038616600090815260208190526040902054919063ffffffff6129dd16565b6001600160a01b03808516600090815260208190526040808220939093559084168152205461298b908263ffffffff61235116565b6001600160a01b0380841660008181526020819052604090819020939093559151908516907fddf252ad1be2c89b69c2b068fc378daa952ba7f163c4a11628f55a4df523b3ef906128af908590613c54565b60008184841115612a015760405162461bcd60e51b815260040161098c91906135cb565b505050900390565b60008183612a2a5760405162461bcd60e51b815260040161098c91906135cb565b506000838581612a3657fe5b0495945050505050565b6060612a95826040518060400160405280602081526020017f5361666545524332303a206c6f772d6c6576656c2063616c6c206661696c6564815250856001600160a01b0316612acf9092919063ffffffff16565b8051909150156126425780806020019051810190612ab39190613256565b6126425760405162461bcd60e51b815260040161098c90613b04565b6060612ade8484600085612ae6565b949350505050565b606082471015612b085760405162461bcd60e51b815260040161098c906137d8565b612b1185612ba7565b612b2d5760405162461bcd60e51b815260040161098c90613acd565b60006060866001600160a01b03168587604051612b4a9190613468565b60006040518083038185875af1925050503d8060008114612b87576040519150601f19603f3d011682016040523d82523d6000602084013e612b8c565b606091505b5091509150612b9c828286612bad565b979650505050505050565b3b151590565b60608315612bbc575081612376565b825115612bcc5782518084602001fd5b8160405162461bcd60e51b815260040161098c91906135cb565b828054828255906000526020600020908101928215612c3b579160200282015b82811115612c3b57825182546001600160a01b0319166001600160a01b03909116178255602090920191600190910190612c06565b50612c47929150612d44565b5090565b828054828255906000526020600020908101928215612c86579160200282015b82811115612c86578251825591602001919060010190612c6b565b50612c47929150612d68565b828054828255906000526020600020908101928215612cdf579160200282015b82811115612cdf5782518051612ccf918491602090910190612d82565b5091602001919060010190612cb2565b50612c47929150612def565b828054828255906000526020600020908101928215612d38579160200282015b82811115612d385782518051612d28918491602090910190612d82565b5091602001919060010190612d0b565b50612c47929150612e12565b61095291905b80821115612c475780546001600160a01b0319168155600101612d4a565b61095291905b80821115612c475760008155600101612d6e565b828054600181600116156101000203166002900490600052602060002090601f016020900481019282601f10612dc357805160ff1916838001178555612c86565b82800160010185558215612c865791820182811115612c86578251825591602001919060010190612c6b565b61095291905b80821115612c47576000612e098282612e35565b50600101612df5565b61095291905b80821115612c47576000612e2c8282612e35565b50600101612e18565b50805460018160011615610100020316600290046000825580601f10612e5b5750612e79565b601f016020900490600052602060002090810190612e799190612d68565b50565b80356001600160a01b0381168114611be157600080fd5b60008083601f840112612ea4578182fd5b50813567ffffffffffffffff811115612ebb578182fd5b6020830191508360208083028501011115612ed557600080fd5b9250929050565b600082601f830112612eec578081fd5b8135612eff612efa82613d3b565b613d14565b818152915060208083019084810181840286018201871015612f2057600080fd5b60005b84811015612f4757612f358883612e7c565b84529282019290820190600101612f23565b505050505092915050565b600082601f830112612f62578081fd5b8135612f70612efa82613d3b565b818152915060208083019084810160005b84811015612f4757612f98888484358a0101613008565b84529282019290820190600101612f81565b600082601f830112612fba578081fd5b8135612fc8612efa82613d3b565b818152915060208083019084810181840286018201871015612fe957600080fd5b60005b84811015612f4757813584529282019290820190600101612fec565b600082601f830112613018578081fd5b813567ffffffffffffffff81111561302e578182fd5b613041601f8201601f1916602001613d14565b915080825283602082850101111561305857600080fd5b8060208401602084013760009082016020015292915050565b600060208284031215613082578081fd5b6123768383612e7c565b6000806040838503121561309e578081fd5b6130a88484612e7c565b91506111318460208501612e7c565b6000806000606084860312156130cb578081fd5b83356130d681613d87565b925060208401356130e681613d87565b929592945050506040919091013590565b60008060408385031215613109578182fd5b6131138484612e7c565b946020939093013593505050565b60008060008060408587031215613136578081fd5b843567ffffffffffffffff8082111561314d578283fd5b61315988838901612e93565b90965094506020870135915080821115613171578283fd5b5061317e87828801612e93565b95989497509550505050565b600080600080600060a086880312156131a1578081fd5b853567ffffffffffffffff808211156131b8578283fd5b6131c489838a01612edc565b965060208801359150808211156131d9578283fd5b6131e589838a01612faa565b955060408801359150808211156131fa578283fd5b61320689838a01612f52565b9450606088013591508082111561321b578283fd5b61322789838a01612f52565b9350608088013591508082111561323c578283fd5b5061324988828901613008565b9150509295509295909350565b600060208284031215613267578081fd5b815161237681613d9c565b600060208284031215613283578081fd5b5035919050565b60006020828403121561329b578081fd5b5051919050565b600080604083850312156132b4578182fd5b823591506111318460208501612e7c565b6000806000606084860312156132d9578081fd5b8335925060208401356130e681613d9c565b6000815180845260208085019450808401835b838110156133235781516001600160a01b0316875295820195908201906001016132fe565b509495945050505050565b6000815180845260208085018081965082840281019150828601855b858110156133745782840389526133628483516133b0565b9885019893509084019060010161334a565b5091979650505050505050565b6000815180845260208085019450808401835b8381101561332357815187529582019590820190600101613394565b600081518084526133c8816020860160208601613d5b565b601f01601f19169290920160200192915050565b600081546001808216600081146133fa576001811461341157613443565b60ff198316865260028304607f1686019350613443565b600283048560005260208060002060005b8381101561343b5781548a820152908501908201613422565b505050860193505b50505092915050565b6001600160e01b0319831681526000612ade60048301846133dc565b6000825161347a818460208701613d5b565b9190910192915050565b600061237682846133dc565b6001600160a01b0391909116815260200190565b6001600160a01b039384168152919092166020820152604081019190915260600190565b6001600160a01b03929092168252602082015260400190565b6001600160a01b039690961686526020860194909452604085019290925260608401526080830152151560a082015260c00190565b60208082528181018390526000908460408401835b86811015613559578284016001600160a01b036135488286612e7c565b16835292509083019060010161352b565b509695505050505050565b60006080825261357760808301876132eb565b82810360208401526135898187613381565b838103604085015261359b818761332e565b9150508281036060840152612b9c818561332e565b901515815260200190565b9115158252602082015260400190565b60006020825261237660208301846133b0565b60208082526023908201527f45524332303a207472616e7366657220746f20746865207a65726f206164647260408201526265737360e81b606082015260800190565b6020808252600a90820152697959464c3a205a45524f60b01b604082015260600190565b6020808252601690820152750f2b28c987440929ca6aa8c8c9286928a9ca8be8aa8960531b604082015260600190565b60208082526022908201527f45524332303a20617070726f766520746f20746865207a65726f206164647265604082015261737360f01b606082015260800190565b6020808252601b908201527f536166654d6174683a206164646974696f6e206f766572666c6f770000000000604082015260600190565b6020808252601290820152711e5651930e881593d5125391d7d15391115160721b604082015260600190565b6020808252601490820152730f2b28c98744082a492a8b2be9a92a69a82a886960631b604082015260600190565b6020808252600f908201526e7959464c3a2053414d455f564f544560881b604082015260600190565b6020808252601690820152751e5651930e881393d7d6519317d4155490d21054d15160521b604082015260600190565b6020808252601b908201527f7959464c3a20494e56414c49445f59464c5f5055524348415345520000000000604082015260600190565b60208082526026908201527f416464726573733a20696e73756666696369656e742062616c616e636520666f6040820152651c8818d85b1b60d21b606082015260800190565b60208082526018908201527f7959464c3a2050524f504f53414c5f494e5f564f54494e470000000000000000604082015260600190565b6020808252601a908201527f7959464c3a20494e53554646494349454e545f42414c414e4345000000000000604082015260600190565b60208082526010908201526f7959464c3a204e4f5f414354494f4e5360801b604082015260600190565b60208082526017908201527f7959464c3a20414c52454144595f434f4e564552544544000000000000000000604082015260600190565b60208082526019908201527f7959464c3a204841535f4143544956455f50524f504f53414c00000000000000604082015260600190565b6020808252601f908201527f7959464c3a2050524f504f53414c5f414c52454144595f455845435554454400604082015260600190565b60208082526021908201527f536166654d6174683a206d756c7469706c69636174696f6e206f766572666c6f6040820152607760f81b606082015260800190565b60208082526019908201527f7959464c3a20494e56414c49445f50524f504f53414c5f494400000000000000604082015260600190565b60208082526021908201527f45524332303a206275726e2066726f6d20746865207a65726f206164647265736040820152607360f81b606082015260800190565b6020808252601690820152757959464c3a20544f4f5f4d414e595f414354494f4e5360501b604082015260600190565b60208082526025908201527f45524332303a207472616e736665722066726f6d20746865207a65726f206164604082015264647265737360d81b606082015260800190565b60208082526024908201527f45524332303a20617070726f76652066726f6d20746865207a65726f206164646040820152637265737360e01b606082015260800190565b6020808252601d908201527f416464726573733a2063616c6c20746f206e6f6e2d636f6e7472616374000000604082015260600190565b6020808252602a908201527f5361666545524332303a204552433230206f7065726174696f6e20646964206e6040820152691bdd081cdd58d8d9595960b21b606082015260800190565b6020808252601f908201527f5265656e7472616e637947756172643a207265656e7472616e742063616c6c00604082015260600190565b6020808252600f908201526e3caca3261d102327a92124a22222a760891b604082015260600190565b6020808252601290820152717959464c3a20534d414c4c45525f564f544560701b604082015260600190565b60208082526023908201527f7959464c3a20494e53554646494349454e545f59464c5f464f525f50524f504f60408201526214d05360ea1b606082015260800190565b6020808252601f908201527f45524332303a206d696e7420746f20746865207a65726f206164647265737300604082015260600190565b90815260200190565b60006101008a8352806020840152613c778184018b6132eb565b8381036040850152613c89818b613381565b9150508281036060840152613c9e818961332e565b8381036080850152613cb0818961332e565b9150508560a08401528460c084015282810360e0840152613cd181856133b0565b9b9a5050505050505050505050565b9182521515602082015260400190565b9283529015156020830152604082015260600190565b60ff91909116815260200190565b60405181810167ffffffffffffffff81118282101715613d3357600080fd5b604052919050565b600067ffffffffffffffff821115613d51578081fd5b5060209081020190565b60005b83811015613d76578181015183820152602001613d5e565b8381111561272a5750506000910152565b6001600160a01b0381168114612e7957600080fd5b8015158114612e7957600080fdfe45524332303a206275726e20616d6f756e7420657863656564732062616c616e636545524332303a207472616e7366657220616d6f756e7420657863656564732062616c616e636545524332303a207472616e7366657220616d6f756e74206578636565647320616c6c6f77616e636545524332303a2064656372656173656420616c6c6f77616e63652062656c6f77207a65726fa264697066735822122016dbdd27d667fc38f851d288f27e9af2461e2254000bc2d86c12f3d59083261264736f6c63430006060033",
  "linkReferences": {},
  "deployedLinkReferences": {}
}