{
  "_format": "hh-sol-artifact-1",
  "contractName": "yYFL",
  "sourceName": "contracts/yYFL.sol",
  "abi": [
    {
      "inputs": [
        {
          "internalType": "address",
          "name": "_yfl",
          "type": "address"
        },
        {
          "internalType": "address",
          "name": "_treasury",
          "type": "address"
        },
        {
          "internalType": "uint256",
          "name": "_blocksForNoWithdrawalFee",
          "type": "uint256"
        },
        {
          "internalType": "uint256",
          "name": "_votingPeriodBlocks",
          "type": "uint256"
        },
        {
          "internalType": "uint256",
          "name": "_executionPeriodBlocks",
          "type": "uint256"
        }
      ],
      "stateMutability": "nonpayable",
      "type": "constructor"
    },
    {
      "anonymous": false,
      "inputs": [
        {
          "indexed": true,
          "internalType": "address",
          "name": "owner",
          "type": "address"
        },
        {
          "indexed": true,
          "internalType": "address",
          "name": "spender",
          "type": "address"
        },
        {
          "indexed": false,
          "internalType": "uint256",
          "name": "value",
          "type": "uint256"
        }
      ],
      "name": "Approval",
      "type": "event"
    },
    {
      "anonymous": false,
      "inputs": [
        {
          "indexed": false,
          "internalType": "uint256",
          "name": "id",
          "type": "uint256"
        },
        {
          "indexed": true,
          "internalType": "address",
          "name": "proposer",
          "type": "address"
        },
        {
          "indexed": false,
          "internalType": "address[]",
          "name": "targets",
          "type": "address[]"
        },
        {
          "indexed": false,
          "internalType": "uint256[]",
          "name": "values",
          "type": "uint256[]"
        },
        {
          "indexed": false,
          "internalType": "string[]",
          "name": "signatures",
          "type": "string[]"
        },
        {
          "indexed": false,
          "internalType": "bytes[]",
          "name": "calldatas",
          "type": "bytes[]"
        },
        {
          "indexed": false,
          "internalType": "uint256",
          "name": "startBlock",
          "type": "uint256"
        },
        {
          "indexed": false,
          "internalType": "uint256",
          "name": "endBlock",
          "type": "uint256"
        },
        {
          "indexed": false,
          "internalType": "string",
          "name": "description",
          "type": "string"
        }
      ],
      "name": "ProposalCreated",
      "type": "event"
    },
    {
      "anonymous": false,
      "inputs": [
        {
          "indexed": false,
          "internalType": "uint256",
          "name": "id",
          "type": "uint256"
        },
        {
          "indexed": false,
          "internalType": "bool",
          "name": "success",
          "type": "bool"
        }
      ],
      "name": "ProposalExecuted",
      "type": "event"
    },
    {
      "anonymous": false,
      "inputs": [
        {
          "indexed": true,
          "internalType": "address",
          "name": "from",
          "type": "address"
        },
        {
          "indexed": true,
          "internalType": "address",
          "name": "to",
          "type": "address"
        },
        {
          "indexed": false,
          "internalType": "uint256",
          "name": "value",
          "type": "uint256"
        }
      ],
      "name": "Transfer",
      "type": "event"
    },
    {
      "anonymous": false,
      "inputs": [
        {
          "indexed": true,
          "internalType": "address",
          "name": "voter",
          "type": "address"
        },
        {
          "indexed": false,
          "internalType": "uint256",
          "name": "proposalId",
          "type": "uint256"
        },
        {
          "indexed": false,
          "internalType": "bool",
          "name": "support",
          "type": "bool"
        },
        {
          "indexed": false,
          "internalType": "uint256",
          "name": "votes",
          "type": "uint256"
        }
      ],
      "name": "VoteCast",
      "type": "event"
    },
    {
      "inputs": [],
      "name": "MAX_OPERATIONS",
      "outputs": [
        {
          "internalType": "uint256",
          "name": "",
          "type": "uint256"
        }
      ],
      "stateMutability": "view",
      "type": "function"
    },
    {
      "inputs": [],
      "name": "YFL",
      "outputs": [
        {
          "internalType": "contract IERC20",
          "name": "",
          "type": "address"
        }
      ],
      "stateMutability": "view",
      "type": "function"
    },
    {
      "inputs": [
        {
          "internalType": "address",
          "name": "owner",
          "type": "address"
        },
        {
          "internalType": "address",
          "name": "spender",
          "type": "address"
        }
      ],
      "name": "allowance",
      "outputs": [
        {
          "internalType": "uint256",
          "name": "",
          "type": "uint256"
        }
      ],
      "stateMutability": "view",
      "type": "function"
    },
    {
      "inputs": [
        {
          "internalType": "address",
          "name": "spender",
          "type": "address"
        },
        {
          "internalType": "uint256",
          "name": "amount",
          "type": "uint256"
        }
      ],
      "name": "approve",
      "outputs": [
        {
          "internalType": "bool",
          "name": "",
          "type": "bool"
        }
      ],
      "stateMutability": "nonpayable",
      "type": "function"
    },
    {
      "inputs": [
        {
          "internalType": "address",
          "name": "account",
          "type": "address"
        }
      ],
      "name": "balanceOf",
      "outputs": [
        {
          "internalType": "uint256",
          "name": "",
          "type": "uint256"
        }
      ],
      "stateMutability": "view",
      "type": "function"
    },
    {
      "inputs": [],
      "name": "blocksForNoWithdrawalFee",
      "outputs": [
        {
          "internalType": "uint256",
          "name": "",
          "type": "uint256"
        }
      ],
      "stateMutability": "view",
      "type": "function"
    },
    {
      "inputs": [
        {
          "internalType": "address[]",
          "name": "tokens",
          "type": "address[]"
        },
        {
          "internalType": "uint256[]",
          "name": "amounts",
          "type": "uint256[]"
        }
      ],
      "name": "convertTokensToYfl",
      "outputs": [],
      "stateMutability": "nonpayable",
      "type": "function"
    },
    {
      "inputs": [],
      "name": "decimals",
      "outputs": [
        {
          "internalType": "uint8",
          "name": "",
          "type": "uint8"
        }
      ],
      "stateMutability": "view",
      "type": "function"
    },
    {
      "inputs": [
        {
          "internalType": "address",
          "name": "spender",
          "type": "address"
        },
        {
          "internalType": "uint256",
          "name": "subtractedValue",
          "type": "uint256"
        }
      ],
      "name": "decreaseAllowance",
      "outputs": [
        {
          "internalType": "bool",
          "name": "",
          "type": "bool"
        }
      ],
      "stateMutability": "nonpayable",
      "type": "function"
    },
    {
      "inputs": [
        {
          "internalType": "address",
          "name": "",
          "type": "address"
        }
      ],
      "name": "earlyWithdrawalFeeExpiry",
      "outputs": [
        {
          "internalType": "uint256",
          "name": "",
          "type": "uint256"
        }
      ],
      "stateMutability": "view",
      "type": "function"
    },
    {
      "inputs": [],
      "name": "earlyWithdrawalFeePercent",
      "outputs": [
        {
          "internalType": "uint256",
          "name": "",
          "type": "uint256"
        }
      ],
      "stateMutability": "view",
      "type": "function"
    },
    {
      "inputs": [
        {
          "internalType": "uint256",
          "name": "id",
          "type": "uint256"
        }
      ],
      "name": "executeProposal",
      "outputs": [],
      "stateMutability": "payable",
      "type": "function"
    },
    {
      "inputs": [],
      "name": "executionPeriodBlocks",
      "outputs": [
        {
          "internalType": "uint256",
          "name": "",
          "type": "uint256"
        }
      ],
      "stateMutability": "view",
      "type": "function"
    },
    {
      "inputs": [],
      "name": "getPricePerFullShare",
      "outputs": [
        {
          "internalType": "uint256",
          "name": "",
          "type": "uint256"
        }
      ],
      "stateMutability": "view",
      "type": "function"
    },
    {
      "inputs": [
        {
          "internalType": "uint256",
          "name": "proposalId",
          "type": "uint256"
        }
      ],
      "name": "getProposalCalls",
      "outputs": [
        {
          "internalType": "address[]",
          "name": "targets",
          "type": "address[]"
        },
        {
          "internalType": "uint256[]",
          "name": "values",
          "type": "uint256[]"
        },
        {
          "internalType": "string[]",
          "name": "signatures",
          "type": "string[]"
        },
        {
          "internalType": "bytes[]",
          "name": "calldatas",
          "type": "bytes[]"
        }
      ],
      "stateMutability": "view",
      "type": "function"
    },
    {
      "inputs": [
        {
          "internalType": "address",
          "name": "staker",
          "type": "address"
        }
      ],
      "name": "getStakeYflValue",
      "outputs": [
        {
          "internalType": "uint256",
          "name": "",
          "type": "uint256"
        }
      ],
      "stateMutability": "view",
      "type": "function"
    },
    {
      "inputs": [
        {
          "internalType": "uint256",
          "name": "proposalId",
          "type": "uint256"
        },
        {
          "internalType": "address",
          "name": "voter",
          "type": "address"
        }
      ],
      "name": "getVotes",
      "outputs": [
        {
          "internalType": "bool",
          "name": "support",
          "type": "bool"
        },
        {
          "internalType": "uint256",
          "name": "voteAmount",
          "type": "uint256"
        }
      ],
      "stateMutability": "view",
      "type": "function"
    },
    {
      "inputs": [
        {
          "internalType": "address",
          "name": "",
          "type": "address"
        }
      ],
      "name": "hasActiveProposal",
      "outputs": [
        {
          "internalType": "bool",
          "name": "",
          "type": "bool"
        }
      ],
      "stateMutability": "view",
      "type": "function"
    },
    {
      "inputs": [
        {
          "internalType": "address",
          "name": "spender",
          "type": "address"
        },
        {
          "internalType": "uint256",
          "name": "addedValue",
          "type": "uint256"
        }
      ],
      "name": "increaseAllowance",
      "outputs": [
        {
          "internalType": "bool",
          "name": "",
          "type": "bool"
        }
      ],
      "stateMutability": "nonpayable",
      "type": "function"
    },
    {
      "inputs": [],
      "name": "minYflForProposal",
      "outputs": [
        {
          "internalType": "uint256",
          "name": "",
          "type": "uint256"
        }
      ],
      "stateMutability": "view",
      "type": "function"
    },
    {
      "inputs": [],
      "name": "name",
      "outputs": [
        {
          "internalType": "string",
          "name": "",
          "type": "string"
        }
      ],
      "stateMutability": "view",
      "type": "function"
    },
    {
      "inputs": [],
      "name": "proposalCount",
      "outputs": [
        {
          "internalType": "uint256",
          "name": "",
          "type": "uint256"
        }
      ],
      "stateMutability": "view",
      "type": "function"
    },
    {
      "inputs": [
        {
          "internalType": "uint256",
          "name": "",
          "type": "uint256"
        }
      ],
      "name": "proposals",
      "outputs": [
        {
          "internalType": "address",
          "name": "proposer",
          "type": "address"
        },
        {
          "internalType": "uint256",
          "name": "totalForVotes",
          "type": "uint256"
        },
        {
          "internalType": "uint256",
          "name": "totalAgainstVotes",
          "type": "uint256"
        },
        {
          "internalType": "uint256",
          "name": "quorumVotes",
          "type": "uint256"
        },
        {
          "internalType": "uint256",
          "name": "endBlock",
          "type": "uint256"
        },
        {
          "internalType": "bool",
          "name": "executed",
          "type": "bool"
        }
      ],
      "stateMutability": "view",
      "type": "function"
    },
    {
      "inputs": [
        {
          "internalType": "address[]",
          "name": "targets",
          "type": "address[]"
        },
        {
          "internalType": "uint256[]",
          "name": "values",
          "type": "uint256[]"
        },
        {
          "internalType": "string[]",
          "name": "signatures",
          "type": "string[]"
        },
        {
          "internalType": "bytes[]",
          "name": "calldatas",
          "type": "bytes[]"
        },
        {
          "internalType": "string",
          "name": "description",
          "type": "string"
        }
      ],
      "name": "propose",
      "outputs": [
        {
          "internalType": "uint256",
          "name": "id",
          "type": "uint256"
        }
      ],
      "stateMutability": "nonpayable",
      "type": "function"
    },
    {
      "inputs": [],
      "name": "quorumPercent",
      "outputs": [
        {
          "internalType": "uint256",
          "name": "",
          "type": "uint256"
        }
      ],
      "stateMutability": "view",
      "type": "function"
    },
    {
      "inputs": [
        {
          "internalType": "uint256",
          "name": "_blocksForNoWithdrawalFee",
          "type": "uint256"
        }
      ],
      "name": "setBlocksForNoWithdrawalFee",
      "outputs": [],
      "stateMutability": "nonpayable",
      "type": "function"
    },
    {
      "inputs": [
        {
          "internalType": "uint256",
          "name": "_earlyWithdrawalFeePercent",
          "type": "uint256"
        }
      ],
      "name": "setEarlyWithdrawalFeePercent",
      "outputs": [],
      "stateMutability": "nonpayable",
      "type": "function"
    },
    {
      "inputs": [
        {
          "internalType": "uint256",
          "name": "_executionPeriodBlocks",
          "type": "uint256"
        }
      ],
      "name": "setExecutionPeriodBlocks",
      "outputs": [],
      "stateMutability": "nonpayable",
      "type": "function"
    },
    {
      "inputs": [
        {
          "internalType": "uint256",
          "name": "_minYflForProposal",
          "type": "uint256"
        }
      ],
      "name": "setMinYflForProposal",
      "outputs": [],
      "stateMutability": "nonpayable",
      "type": "function"
    },
    {
      "inputs": [
        {
          "internalType": "uint256",
          "name": "_quorumPercent",
          "type": "uint256"
        }
      ],
      "name": "setQuorumPercent",
      "outputs": [],
      "stateMutability": "nonpayable",
      "type": "function"
    },
    {
      "inputs": [
        {
          "internalType": "address",
          "name": "_treasury",
          "type": "address"
        }
      ],
      "name": "setTreasury",
      "outputs": [],
      "stateMutability": "nonpayable",
      "type": "function"
    },
    {
      "inputs": [
        {
          "internalType": "uint256",
          "name": "_treasuryEarlyWithdrawalFeeShare",
          "type": "uint256"
        }
      ],
      "name": "setTreasuryEarlyWithdrawalFeeShare",
      "outputs": [],
      "stateMutability": "nonpayable",
      "type": "function"
    },
    {
      "inputs": [
        {
          "internalType": "uint256",
          "name": "_voteThresholdPercent",
          "type": "uint256"
        }
      ],
      "name": "setVoteThresholdPercent",
      "outputs": [],
      "stateMutability": "nonpayable",
      "type": "function"
    },
    {
      "inputs": [
        {
          "internalType": "uint256",
          "name": "_votingPeriodBlocks",
          "type": "uint256"
        }
      ],
      "name": "setVotingPeriodBlocks",
      "outputs": [],
      "stateMutability": "nonpayable",
      "type": "function"
    },
    {
      "inputs": [
        {
          "internalType": "address",
          "name": "_yflPurchaser",
          "type": "address"
        }
      ],
      "name": "setYflPurchaser",
      "outputs": [],
      "stateMutability": "nonpayable",
      "type": "function"
    },
    {
      "inputs": [
        {
          "internalType": "uint256",
          "name": "amount",
          "type": "uint256"
        }
      ],
      "name": "stake",
      "outputs": [],
      "stateMutability": "nonpayable",
      "type": "function"
    },
    {
      "inputs": [],
      "name": "symbol",
      "outputs": [
        {
          "internalType": "string",
          "name": "",
          "type": "string"
        }
      ],
      "stateMutability": "view",
      "type": "function"
    },
    {
      "inputs": [],
      "name": "totalSupply",
      "outputs": [
        {
          "internalType": "uint256",
          "name": "",
          "type": "uint256"
        }
      ],
      "stateMutability": "view",
      "type": "function"
    },
    {
      "inputs": [
        {
          "internalType": "address",
          "name": "recipient",
          "type": "address"
        },
        {
          "internalType": "uint256",
          "name": "amount",
          "type": "uint256"
        }
      ],
      "name": "transfer",
      "outputs": [
        {
          "internalType": "bool",
          "name": "",
          "type": "bool"
        }
      ],
      "stateMutability": "nonpayable",
      "type": "function"
    },
    {
      "inputs": [
        {
          "internalType": "address",
          "name": "sender",
          "type": "address"
        },
        {
          "internalType": "address",
          "name": "recipient",
          "type": "address"
        },
        {
          "internalType": "uint256",
          "name": "amount",
          "type": "uint256"
        }
      ],
      "name": "transferFrom",
      "outputs": [
        {
          "internalType": "bool",
          "name": "",
          "type": "bool"
        }
      ],
      "stateMutability": "nonpayable",
      "type": "function"
    },
    {
      "inputs": [],
      "name": "treasury",
      "outputs": [
        {
          "internalType": "address",
          "name": "",
          "type": "address"
        }
      ],
      "stateMutability": "view",
      "type": "function"
    },
    {
      "inputs": [],
      "name": "treasuryEarlyWithdrawalFeeShare",
      "outputs": [
        {
          "internalType": "uint256",
          "name": "",
          "type": "uint256"
        }
      ],
      "stateMutability": "view",
      "type": "function"
    },
    {
      "inputs": [
        {
          "internalType": "uint256",
          "name": "id",
          "type": "uint256"
        },
        {
          "internalType": "bool",
          "name": "support",
          "type": "bool"
        },
        {
          "internalType": "uint256",
          "name": "voteAmount",
          "type": "uint256"
        }
      ],
      "name": "vote",
      "outputs": [],
      "stateMutability": "nonpayable",
      "type": "function"
    },
    {
      "inputs": [
        {
          "internalType": "address",
          "name": "",
          "type": "address"
        }
      ],
      "name": "voteLockAmount",
      "outputs": [
        {
          "internalType": "uint256",
          "name": "",
          "type": "uint256"
        }
      ],
      "stateMutability": "view",
      "type": "function"
    },
    {
      "inputs": [
        {
          "internalType": "address",
          "name": "",
          "type": "address"
        }
      ],
      "name": "voteLockExpiry",
      "outputs": [
        {
          "internalType": "uint256",
          "name": "",
          "type": "uint256"
        }
      ],
      "stateMutability": "view",
      "type": "function"
    },
    {
      "inputs": [],
      "name": "voteThresholdPercent",
      "outputs": [
        {
          "internalType": "uint256",
          "name": "",
          "type": "uint256"
        }
      ],
      "stateMutability": "view",
      "type": "function"
    },
    {
      "inputs": [],
      "name": "votingPeriodBlocks",
      "outputs": [
        {
          "internalType": "uint256",
          "name": "",
          "type": "uint256"
        }
      ],
      "stateMutability": "view",
      "type": "function"
    },
    {
      "inputs": [
        {
          "internalType": "uint256",
          "name": "shares",
          "type": "uint256"
        }
      ],
      "name": "withdraw",
      "outputs": [],
      "stateMutability": "nonpayable",
      "type": "function"
    },
    {
      "inputs": [],
      "name": "yflPurchaser",
      "outputs": [
        {
          "internalType": "address",
          "name": "",
          "type": "address"
        }
      ],
      "stateMutability": "view",
      "type": "function"
    }
  ],
  "bytecode": "0x60a0604052612710600855620c3500600b5567016345785d8a000060135562030d406014556207a1206015553480156200003857600080fd5b506040516200759c3803806200759c83398181016040528101906200005e91906200040b565b6040518060400160405280601481526020017f59464c696e6b205374616b696e672053686172650000000000000000000000008152506040518060400160405280600481526020017f7959464c000000000000000000000000000000000000000000000000000000008152508160039080519060200190620000e292919062000317565b508060049080519060200190620000fb92919062000317565b506012600560006101000a81548160ff021916908360ff16021790555050506001600681905550600073ffffffffffffffffffffffffffffffffffffffff168573ffffffffffffffffffffffffffffffffffffffff16141580156200018d5750600073ffffffffffffffffffffffffffffffffffffffff168473ffffffffffffffffffffffffffffffffffffffff1614155b620001cf576040517f08c379a0000000000000000000000000000000000000000000000000000000008152600401620001c690620004fb565b60405180910390fd5b620002618573ffffffffffffffffffffffffffffffffffffffff1663313ce5676040518163ffffffff1660e01b815260040160206040518083038186803b1580156200021a57600080fd5b505afa1580156200022f573d6000803e3d6000fd5b505050506040513d601f19601f820116820180604052508101906200025591906200048d565b620002f960201b60201c565b8473ffffffffffffffffffffffffffffffffffffffff1660808173ffffffffffffffffffffffffffffffffffffffff1660601b8152505083600a60006101000a81548173ffffffffffffffffffffffffffffffffffffffff021916908373ffffffffffffffffffffffffffffffffffffffff1602179055508260078190555081601281905550806016819055505050505050620005c7565b80600560006101000a81548160ff021916908360ff16021790555050565b828054600181600116156101000203166002900490600052602060002090601f016020900481019282601f106200035a57805160ff19168380011785556200038b565b828001600101855582156200038b579182015b828111156200038a5782518255916020019190600101906200036d565b5b5090506200039a91906200039e565b5090565b620003c391905b80821115620003bf576000816000905550600101620003a5565b5090565b90565b600081519050620003d78162000579565b92915050565b600081519050620003ee8162000593565b92915050565b6000815190506200040581620005ad565b92915050565b600080600080600060a086880312156200042457600080fd5b60006200043488828901620003c6565b95505060206200044788828901620003c6565b94505060406200045a88828901620003dd565b93505060606200046d88828901620003dd565b92505060806200048088828901620003dd565b9150509295509295909350565b600060208284031215620004a057600080fd5b6000620004b084828501620003f4565b91505092915050565b6000620004c86012836200051d565b91507f7959464c3a205a45524f5f4144445245535300000000000000000000000000006000830152602082019050919050565b600060208201905081810360008301526200051681620004b9565b9050919050565b600082825260208201905092915050565b60006200053b8262000542565b9050919050565b600073ffffffffffffffffffffffffffffffffffffffff82169050919050565b6000819050919050565b600060ff82169050919050565b62000584816200052e565b81146200059057600080fd5b50565b6200059e8162000562565b8114620005aa57600080fd5b50565b620005b8816200056c565b8114620005c457600080fd5b50565b60805160601c616f7b620006216000398061155552806116d9528061173b5280611a655280611d8d5280611ed1528061200c528061263d528061270552806127e552806129ef528061346752806135cb5250616f7b6000f3fe6080604052600436106102ae5760003560e01c806384db62f411610175578063b83577c5116100dc578063dabee55411610095578063e91b2f251161006f578063e91b2f2514610b32578063f0f4426014610b5b578063f81cbd2614610b84578063ffafe4ad14610baf576102ae565b8063dabee55414610a9f578063dd62ed3e14610aca578063e7113b6a14610b07576102ae565b8063b83577c51461097b578063b902421f146109a6578063c9347740146109d1578063d46a5d7e14610a0e578063da35c66414610a37578063da95691a14610a62576102ae565b8063a457c2d71161012e578063a457c2d714610859578063a4803b3314610896578063a694fc3a146108c1578063a7eea296146108ea578063a9059cbb14610913578063b24b7ffd14610950576102ae565b806384db62f41461074a57806387be686a1461077357806394924e551461079c57806395d89b41146107c55780639f690535146107f0578063a388133a14610830576102ae565b8063313ce5671161021957806368197360116101d257806368197360146106135780636d6b086f1461065157806370a082311461068e57806377c7b8fc146106cb578063797294ac146106f6578063809c84b21461071f576102ae565b8063313ce5671461050157806338e440841461052c578063395093511461055757806357b223ba146105945780635dc2803a146105bd57806361d027b3146105e8576102ae565b80630f2049dd1161026b5780630f2049dd146103df57806318160ddd1461041c57806323b872dd14610447578063253fe18a1461048457806328a7878b146104af5780632e1a7d4d146104d8576102ae565b8063013cf08b146102b357806306fdde03146102f5578063089275ff14610320578063095ea7b31461035d5780630c9f441f1461039a5780630d61b519146103c3575b600080fd5b3480156102bf57600080fd5b506102da60048036038101906102d59190615585565b610bec565b6040516102ec96959493929190616476565b60405180910390f35b34801561030157600080fd5b5061030a610c55565b60405161031791906165bb565b60405180910390f35b34801561032c57600080fd5b5061034760048036038101906103429190615308565b610cf7565b604051610354919061697d565b60405180910390f35b34801561036957600080fd5b50610384600480360381019061037f91906153bc565b610d0f565b604051610391919061655c565b60405180910390f35b3480156103a657600080fd5b506103c160048036038101906103bc9190615585565b610d78565b005b6103dd60048036038101906103d89190615585565b610e00565b005b3480156103eb57600080fd5b5061040660048036038101906104019190615308565b6112f2565b604051610413919061697d565b60405180910390f35b34801561042857600080fd5b5061043161130a565b60405161043e919061697d565b60405180910390f35b34801561045357600080fd5b5061046e6004803603810190610469919061536d565b611314565b60405161047b919061655c565b60405180910390f35b34801561049057600080fd5b5061049961137f565b6040516104a6919061697d565b60405180910390f35b3480156104bb57600080fd5b506104d660048036038101906104d19190615585565b611385565b005b3480156104e457600080fd5b506104ff60048036038101906104fa9190615585565b61140d565b005b34801561050d57600080fd5b5061051661178b565b6040516105239190616a99565b60405180910390f35b34801561053857600080fd5b506105416117a2565b60405161054e919061697d565b60405180910390f35b34801561056357600080fd5b5061057e600480360381019061057991906153bc565b6117a8565b60405161058b919061655c565b60405180910390f35b3480156105a057600080fd5b506105bb60048036038101906105b69190615585565b611811565b005b3480156105c957600080fd5b506105d26118a7565b6040516105df919061697d565b60405180910390f35b3480156105f457600080fd5b506105fd6118ac565b60405161060a91906163fb565b60405180910390f35b34801561061f57600080fd5b5061063a600480360381019061063591906155d7565b6118d2565b604051610648929190616577565b60405180910390f35b34801561065d57600080fd5b5061067860048036038101906106739190615308565b6119ea565b604051610685919061697d565b60405180910390f35b34801561069a57600080fd5b506106b560048036038101906106b09190615308565b611a02565b6040516106c2919061697d565b60405180910390f35b3480156106d757600080fd5b506106e0611a4a565b6040516106ed919061697d565b60405180910390f35b34801561070257600080fd5b5061071d60048036038101906107189190615585565b611b2d565b005b34801561072b57600080fd5b50610734611bc4565b604051610741919061697d565b60405180910390f35b34801561075657600080fd5b50610771600480360381019061076c9190615585565b611bca565b005b34801561077f57600080fd5b5061079a600480360381019061079591906153f8565b611c52565b005b3480156107a857600080fd5b506107c360048036038101906107be9190615585565b612102565b005b3480156107d157600080fd5b506107da612198565b6040516107e791906165bb565b60405180910390f35b3480156107fc57600080fd5b5061081760048036038101906108129190615585565b61223a565b60405161082794939291906164fb565b60405180910390f35b34801561083c57600080fd5b5061085760048036038101906108529190615585565b61253b565b005b34801561086557600080fd5b50610880600480360381019061087b91906153bc565b6125d2565b60405161088d919061655c565b60405180910390f35b3480156108a257600080fd5b506108ab61263b565b6040516108b891906165a0565b60405180910390f35b3480156108cd57600080fd5b506108e860048036038101906108e39190615585565b61265f565b005b3480156108f657600080fd5b50610911600480360381019061090c9190615585565b612898565b005b34801561091f57600080fd5b5061093a600480360381019061093591906153bc565b612939565b604051610947919061655c565b60405180910390f35b34801561095c57600080fd5b506109656129a2565b604051610972919061697d565b60405180910390f35b34801561098757600080fd5b506109906129a8565b60405161099d91906163fb565b60405180910390f35b3480156109b257600080fd5b506109bb6129ce565b6040516109c8919061697d565b60405180910390f35b3480156109dd57600080fd5b506109f860048036038101906109f39190615308565b6129d4565b604051610a05919061697d565b60405180910390f35b348015610a1a57600080fd5b50610a356004803603810190610a309190615613565b612ab9565b005b348015610a4357600080fd5b50610a4c613280565b604051610a59919061697d565b60405180910390f35b348015610a6e57600080fd5b50610a896004803603810190610a84919061546d565b613286565b604051610a96919061697d565b60405180910390f35b348015610aab57600080fd5b50610ab46138af565b604051610ac1919061697d565b60405180910390f35b348015610ad657600080fd5b50610af16004803603810190610aec9190615331565b6138b5565b604051610afe919061697d565b60405180910390f35b348015610b1357600080fd5b50610b1c61393c565b604051610b29919061697d565b60405180910390f35b348015610b3e57600080fd5b50610b596004803603810190610b549190615308565b613942565b005b348015610b6757600080fd5b50610b826004803603810190610b7d9190615308565b613a2e565b005b348015610b9057600080fd5b50610b99613ae0565b604051610ba6919061697d565b60405180910390f35b348015610bbb57600080fd5b50610bd66004803603810190610bd19190615308565b613ae6565b604051610be3919061655c565b60405180910390f35b60106020528060005260406000206000915090508060000160009054906101000a900473ffffffffffffffffffffffffffffffffffffffff169080600301549080600401549080600501549080600601549080600b0160009054906101000a900460ff16905086565b606060038054600181600116156101000203166002900480601f016020809104026020016040519081016040528092919081815260200182805460018160011615610100020316600290048015610ced5780601f10610cc257610100808354040283529160200191610ced565b820191906000526020600020905b815481529060010190602001808311610cd057829003601f168201915b5050505050905090565b600e6020528060005260406000206000915090505481565b600060026006541415610d57576040517f08c379a0000000000000000000000000000000000000000000000000000000008152600401610d4e906168dd565b60405180910390fd5b6002600681905550610d698383613b06565b50600160068190555092915050565b3073ffffffffffffffffffffffffffffffffffffffff163373ffffffffffffffffffffffffffffffffffffffff1614610de6576040517f08c379a0000000000000000000000000000000000000000000000000000000008152600401610ddd906168fd565b60405180910390fd5b620f4240811115610df657600080fd5b80600b8190555050565b60026006541415610e46576040517f08c379a0000000000000000000000000000000000000000000000000000000008152600401610e3d906168dd565b60405180910390fd5b6002600681905550600060106000838152602001908152602001600020905080600b0160009054906101000a900460ff1615610eb7576040517f08c379a0000000000000000000000000000000000000000000000000000000008152600401610eae906167bd565b60405180910390fd5b600073ffffffffffffffffffffffffffffffffffffffff168160000160009054906101000a900473ffffffffffffffffffffffffffffffffffffffff1673ffffffffffffffffffffffffffffffffffffffff161415610f4b576040517f08c379a0000000000000000000000000000000000000000000000000000000008152600401610f42906167fd565b60405180910390fd5b8060060154431015610f92576040517f08c379a0000000000000000000000000000000000000000000000000000000008152600401610f899061671d565b60405180910390fd5b6000600f60008360000160009054906101000a900473ffffffffffffffffffffffffffffffffffffffff1673ffffffffffffffffffffffffffffffffffffffff1673ffffffffffffffffffffffffffffffffffffffff16815260200190815260200160002060006101000a81548160ff021916908315150217905550600061102b82600401548360030154613b2490919063ffffffff16565b905081600501548110806110625750620f424061105360155483613b7990919063ffffffff16565b8161105a57fe5b048260030154105b8061108557506110816016548360060154613b2490919063ffffffff16565b4310155b156110915750506112e7565b50600060019050600034905060008090505b836007018054905081101561128c5760008460080182815481106110c357fe5b9060005260206000200154111561114f578360080181815481106110e357fe5b9060005260206000200154821015611130576040517f08c379a00000000000000000000000000000000000000000000000000000000081526004016111279061661d565b60405180910390fd5b83600801818154811061113f57fe5b9060005260206000200154820391505b83600701818154811061115e57fe5b9060005260206000200160009054906101000a900473ffffffffffffffffffffffffffffffffffffffff1673ffffffffffffffffffffffffffffffffffffffff168460080182815481106111ae57fe5b90600052602060002001548560090183815481106111c857fe5b906000526020600020016040516111df91906163e4565b604051809103902086600a0184815481106111f657fe5b906000526020600020016040516020016112119291906163a5565b60405160208183030381529060405260405161122d91906163cd565b60006040518083038185875af1925050503d806000811461126a576040519150601f19603f3d011682016040523d82523d6000602084013e61126f565b606091505b5050809350508261127f5761128c565b80806001019150506110a3565b50600183600b0160006101000a81548160ff0219169083151502179055507f948f4a9cd986f1118c3fbd459f7a22b23c0693e1ca3ef06a6a8be5aa7d39cc0384836040516112db929190616a39565b60405180910390a15050505b600160068190555050565b60096020528060005260406000206000915090505481565b6000600254905090565b60006002600654141561135c576040517f08c379a0000000000000000000000000000000000000000000000000000000008152600401611353906168dd565b60405180910390fd5b600260068190555061136f848484613be9565b5060016006819055509392505050565b60085481565b3073ffffffffffffffffffffffffffffffffffffffff163373ffffffffffffffffffffffffffffffffffffffff16146113f3576040517f08c379a00000000000000000000000000000000000000000000000000000000081526004016113ea906168fd565b60405180910390fd5b620f424081111561140357600080fd5b8060088190555050565b60026006541415611453576040517f08c379a000000000000000000000000000000000000000000000000000000000815260040161144a906168dd565b60405180910390fd5b60026006819055506000811161149e576040517f08c379a0000000000000000000000000000000000000000000000000000000008152600401611495906165fd565b60405180910390fd5b6114a6613cc2565b611500600d60003373ffffffffffffffffffffffffffffffffffffffff1673ffffffffffffffffffffffffffffffffffffffff168152602001908152602001600020546114f233611a02565b613d9590919063ffffffff16565b811115611542576040517f08c379a00000000000000000000000000000000000000000000000000000000081526004016115399061673d565b60405180910390fd5b600061161861154f61130a565b61160a847f000000000000000000000000000000000000000000000000000000000000000073ffffffffffffffffffffffffffffffffffffffff166370a08231306040518263ffffffff1660e01b81526004016115ac91906163fb565b60206040518083038186803b1580156115c457600080fd5b505afa1580156115d8573d6000803e3d6000fd5b505050506040513d601f19601f820116820180604052508101906115fc91906155ae565b613b7990919063ffffffff16565b613ddf90919063ffffffff16565b90506116243383613e29565b600960003373ffffffffffffffffffffffffffffffffffffffff1673ffffffffffffffffffffffffffffffffffffffff16815260200190815260200160002054431015611734576000620f424061168660085484613b7990919063ffffffff16565b8161168d57fe5b04905061171d600a60009054906101000a900473ffffffffffffffffffffffffffffffffffffffff16620f42406116cf600b5485613b7990919063ffffffff16565b816116d657fe5b047f000000000000000000000000000000000000000000000000000000000000000073ffffffffffffffffffffffffffffffffffffffff16613fd79092919063ffffffff16565b6117308183613d9590919063ffffffff16565b9150505b61177f33827f000000000000000000000000000000000000000000000000000000000000000073ffffffffffffffffffffffffffffffffffffffff16613fd79092919063ffffffff16565b50600160068190555050565b6000600560009054906101000a900460ff16905090565b60075481565b6000600260065414156117f0576040517f08c379a00000000000000000000000000000000000000000000000000000000081526004016117e7906168dd565b60405180910390fd5b6002600681905550611802838361405d565b50600160068190555092915050565b3073ffffffffffffffffffffffffffffffffffffffff163373ffffffffffffffffffffffffffffffffffffffff161461187f576040517f08c379a0000000000000000000000000000000000000000000000000000000008152600401611876906168fd565b60405180910390fd5b610780811015801561189457506202a3008111155b61189d57600080fd5b8060168190555050565b600a81565b600a60009054906101000a900473ffffffffffffffffffffffffffffffffffffffff1681565b60008060006010600086815260200190815260200160002060010160008573ffffffffffffffffffffffffffffffffffffffff1673ffffffffffffffffffffffffffffffffffffffff168152602001908152602001600020541191508161198c576010600085815260200190815260200160002060020160008473ffffffffffffffffffffffffffffffffffffffff1673ffffffffffffffffffffffffffffffffffffffff168152602001908152602001600020546119e1565b6010600085815260200190815260200160002060010160008473ffffffffffffffffffffffffffffffffffffffff1673ffffffffffffffffffffffffffffffffffffffff168152602001908152602001600020545b90509250929050565b600d6020528060005260406000206000915090505481565b60008060008373ffffffffffffffffffffffffffffffffffffffff1673ffffffffffffffffffffffffffffffffffffffff168152602001908152602001600020549050919050565b6000611b28611a5761130a565b611b1a670de0b6b3a76400007f000000000000000000000000000000000000000000000000000000000000000073ffffffffffffffffffffffffffffffffffffffff166370a08231306040518263ffffffff1660e01b8152600401611abc91906163fb565b60206040518083038186803b158015611ad457600080fd5b505afa158015611ae8573d6000803e3d6000fd5b505050506040513d601f19601f82011682018060405250810190611b0c91906155ae565b613b7990919063ffffffff16565b613ddf90919063ffffffff16565b905090565b3073ffffffffffffffffffffffffffffffffffffffff163373ffffffffffffffffffffffffffffffffffffffff1614611b9b576040517f08c379a0000000000000000000000000000000000000000000000000000000008152600401611b92906168fd565b60405180910390fd5b620186a08110158015611bb15750620509108111155b611bba57600080fd5b8060148190555050565b60155481565b3073ffffffffffffffffffffffffffffffffffffffff163373ffffffffffffffffffffffffffffffffffffffff1614611c38576040517f08c379a0000000000000000000000000000000000000000000000000000000008152600401611c2f906168fd565b60405180910390fd5b62054600811115611c4857600080fd5b8060078190555050565b60026006541415611c98576040517f08c379a0000000000000000000000000000000000000000000000000000000008152600401611c8f906168dd565b60405180910390fd5b6002600681905550600073ffffffffffffffffffffffffffffffffffffffff16600c60009054906101000a900473ffffffffffffffffffffffffffffffffffffffff1673ffffffffffffffffffffffffffffffffffffffff161415611d32576040517f08c379a0000000000000000000000000000000000000000000000000000000008152600401611d29906166fd565b60405180910390fd5b818190508484905014611d7a576040517f08c379a0000000000000000000000000000000000000000000000000000000008152600401611d719061669d565b60405180910390fd5b60008090505b84849050811015611ecc577f000000000000000000000000000000000000000000000000000000000000000073ffffffffffffffffffffffffffffffffffffffff16858583818110611dce57fe5b9050602002016020810190611de39190615308565b73ffffffffffffffffffffffffffffffffffffffff161415611e3a576040517f08c379a0000000000000000000000000000000000000000000000000000000008152600401611e319061677d565b60405180910390fd5b6000858583818110611e4857fe5b9050602002016020810190611e5d9190615308565b9050611ebe600c60009054906101000a900473ffffffffffffffffffffffffffffffffffffffff16858585818110611e9157fe5b905060200201358373ffffffffffffffffffffffffffffffffffffffff16613fd79092919063ffffffff16565b508080600101915050611d80565b5060007f000000000000000000000000000000000000000000000000000000000000000073ffffffffffffffffffffffffffffffffffffffff166370a08231306040518263ffffffff1660e01b8152600401611f2891906163fb565b60206040518083038186803b158015611f4057600080fd5b505afa158015611f54573d6000803e3d6000fd5b505050506040513d601f19601f82011682018060405250810190611f7891906155ae565b9050600c60009054906101000a900473ffffffffffffffffffffffffffffffffffffffff1673ffffffffffffffffffffffffffffffffffffffff16635168f14186866040518363ffffffff1660e01b8152600401611fd79291906164d7565b600060405180830381600087803b158015611ff157600080fd5b505af1158015612005573d6000803e3d6000fd5b50505050807f000000000000000000000000000000000000000000000000000000000000000073ffffffffffffffffffffffffffffffffffffffff166370a08231306040518263ffffffff1660e01b815260040161206391906163fb565b60206040518083038186803b15801561207b57600080fd5b505afa15801561208f573d6000803e3d6000fd5b505050506040513d601f19601f820116820180604052508101906120b391906155ae565b116120f3576040517f08c379a00000000000000000000000000000000000000000000000000000000081526004016120ea906166dd565b60405180910390fd5b50600160068190555050505050565b3073ffffffffffffffffffffffffffffffffffffffff163373ffffffffffffffffffffffffffffffffffffffff1614612170576040517f08c379a0000000000000000000000000000000000000000000000000000000008152600401612167906168fd565b60405180910390fd5b6107808110158015612185575062013b008111155b61218e57600080fd5b8060128190555050565b606060048054600181600116156101000203166002900480601f0160208091040260200160405190810160405280929190818152602001828054600181600116156101000203166002900480156122305780601f1061220557610100808354040283529160200191612230565b820191906000526020600020905b81548152906001019060200180831161221357829003601f168201915b5050505050905090565b606080606080601060008681526020019081526020016000206007018054806020026020016040519081016040528092919081815260200182805480156122d657602002820191906000526020600020905b8160009054906101000a900473ffffffffffffffffffffffffffffffffffffffff1673ffffffffffffffffffffffffffffffffffffffff168152602001906001019080831161228c575b505050505093506010600086815260200190815260200160002060080180548060200260200160405190810160405280929190818152602001828054801561233d57602002820191906000526020600020905b815481526020019060010190808311612329575b5050505050925060106000868152602001908152602001600020600901805480602002602001604051908101604052809291908181526020016000905b82821015612436578382906000526020600020018054600181600116156101000203166002900480601f0160208091040260200160405190810160405280929190818152602001828054600181600116156101000203166002900480156124225780601f106123f757610100808354040283529160200191612422565b820191906000526020600020905b81548152906001019060200180831161240557829003601f168201915b50505050508152602001906001019061237a565b50505050915060106000868152602001908152602001600020600a01805480602002602001604051908101604052809291908181526020016000905b8282101561252e578382906000526020600020018054600181600116156101000203166002900480601f01602080910402602001604051908101604052809291908181526020018280546001816001161561010002031660029004801561251a5780601f106124ef5761010080835404028352916020019161251a565b820191906000526020600020905b8154815290600101906020018083116124fd57829003601f168201915b505050505081526020019060010190612472565b5050505090509193509193565b3073ffffffffffffffffffffffffffffffffffffffff163373ffffffffffffffffffffffffffffffffffffffff16146125a9576040517f08c379a00000000000000000000000000000000000000000000000000000000081526004016125a0906168fd565b60405180910390fd5b6207a12081101580156125bf5750620a12208111155b6125c857600080fd5b8060158190555050565b60006002600654141561261a576040517f08c379a0000000000000000000000000000000000000000000000000000000008152600401612611906168dd565b60405180910390fd5b600260068190555061262c8383614110565b50600160068190555092915050565b7f000000000000000000000000000000000000000000000000000000000000000081565b600260065414156126a5576040517f08c379a000000000000000000000000000000000000000000000000000000000815260040161269c906168dd565b60405180910390fd5b6002600681905550600081116126f0576040517f08c379a00000000000000000000000000000000000000000000000000000000081526004016126e7906165fd565b60405180910390fd5b6000806126fb61130a565b146127d9576127d47f000000000000000000000000000000000000000000000000000000000000000073ffffffffffffffffffffffffffffffffffffffff166370a08231306040518263ffffffff1660e01b815260040161275c91906163fb565b60206040518083038186803b15801561277457600080fd5b505afa158015612788573d6000803e3d6000fd5b505050506040513d601f19601f820116820180604052508101906127ac91906155ae565b6127c66127b761130a565b85613b7990919063ffffffff16565b613ddf90919063ffffffff16565b6127db565b815b905061282a3330847f000000000000000000000000000000000000000000000000000000000000000073ffffffffffffffffffffffffffffffffffffffff166141dd909392919063ffffffff16565b6128343382614266565b61284943600754613b2490919063ffffffff16565b600960003373ffffffffffffffffffffffffffffffffffffffff1673ffffffffffffffffffffffffffffffffffffffff1681526020019081526020016000208190555050600160068190555050565b3073ffffffffffffffffffffffffffffffffffffffff163373ffffffffffffffffffffffffffffffffffffffff1614612906576040517f08c379a00000000000000000000000000000000000000000000000000000000081526004016128fd906168fd565b60405180910390fd5b662386f26fc1000081101580156129265750681c30731cec032000008111155b61292f57600080fd5b8060138190555050565b600060026006541415612981576040517f08c379a0000000000000000000000000000000000000000000000000000000008152600401612978906168dd565b60405180910390fd5b600260068190555061299383836143fa565b50600160068190555092915050565b60125481565b600c60009054906101000a900473ffffffffffffffffffffffffffffffffffffffff1681565b600b5481565b6000612ab26129e161130a565b612aa46129ed85611a02565b7f000000000000000000000000000000000000000000000000000000000000000073ffffffffffffffffffffffffffffffffffffffff166370a08231306040518263ffffffff1660e01b8152600401612a4691906163fb565b60206040518083038186803b158015612a5e57600080fd5b505afa158015612a72573d6000803e3d6000fd5b505050506040513d601f19601f82011682018060405250810190612a9691906155ae565b613b7990919063ffffffff16565b613ddf90919063ffffffff16565b9050919050565b60026006541415612aff576040517f08c379a0000000000000000000000000000000000000000000000000000000008152600401612af6906168dd565b60405180910390fd5b60026006819055506000601060008581526020019081526020016000209050600073ffffffffffffffffffffffffffffffffffffffff168160000160009054906101000a900473ffffffffffffffffffffffffffffffffffffffff1673ffffffffffffffffffffffffffffffffffffffff161415612bb2576040517f08c379a0000000000000000000000000000000000000000000000000000000008152600401612ba9906167fd565b60405180910390fd5b80600601544310612bf8576040517f08c379a0000000000000000000000000000000000000000000000000000000008152600401612bef9061667d565b60405180910390fd5b60008211612c3b576040517f08c379a0000000000000000000000000000000000000000000000000000000008152600401612c32906165fd565b60405180910390fd5b612c4433611a02565b821115612c86576040517f08c379a0000000000000000000000000000000000000000000000000000000008152600401612c7d9061673d565b60405180910390fd5b612c8e613cc2565b600d60003373ffffffffffffffffffffffffffffffffffffffff1673ffffffffffffffffffffffffffffffffffffffff16815260200190815260200160002054821015612d10576040517f08c379a0000000000000000000000000000000000000000000000000000000008152600401612d079061691d565b60405180910390fd5b828015612d5d57508060010160003373ffffffffffffffffffffffffffffffffffffffff1673ffffffffffffffffffffffffffffffffffffffff1681526020019081526020016000205482145b80612db2575082158015612db157508060020160003373ffffffffffffffffffffffffffffffffffffffff1673ffffffffffffffffffffffffffffffffffffffff1681526020019081526020016000205482145b5b15612df2576040517f08c379a0000000000000000000000000000000000000000000000000000000008152600401612de9906166bd565b60405180910390fd5b600d60003373ffffffffffffffffffffffffffffffffffffffff1673ffffffffffffffffffffffffffffffffffffffff16815260200190815260200160002054821115612e7e5781600d60003373ffffffffffffffffffffffffffffffffffffffff1673ffffffffffffffffffffffffffffffffffffffff168152602001908152602001600020819055505b600e60003373ffffffffffffffffffffffffffffffffffffffff1673ffffffffffffffffffffffffffffffffffffffff16815260200190815260200160002054816006015411612f0d57600e60003373ffffffffffffffffffffffffffffffffffffffff1673ffffffffffffffffffffffffffffffffffffffff16815260200190815260200160002054612f13565b80600601545b600e60003373ffffffffffffffffffffffffffffffffffffffff1673ffffffffffffffffffffffffffffffffffffffff1681526020019081526020016000208190555082156130c057612fc68160010160003373ffffffffffffffffffffffffffffffffffffffff1673ffffffffffffffffffffffffffffffffffffffff16815260200190815260200160002054612fb8848460030154613b2490919063ffffffff16565b613d9590919063ffffffff16565b8160030181905550818160010160003373ffffffffffffffffffffffffffffffffffffffff1673ffffffffffffffffffffffffffffffffffffffff1681526020019081526020016000208190555061306c8160020160003373ffffffffffffffffffffffffffffffffffffffff1673ffffffffffffffffffffffffffffffffffffffff168152602001908152602001600020548260040154613d9590919063ffffffff16565b816004018190555060008160020160003373ffffffffffffffffffffffffffffffffffffffff1673ffffffffffffffffffffffffffffffffffffffff16815260200190815260200160002081905550613220565b61312a8160020160003373ffffffffffffffffffffffffffffffffffffffff1673ffffffffffffffffffffffffffffffffffffffff1681526020019081526020016000205461311c848460040154613b2490919063ffffffff16565b613d9590919063ffffffff16565b8160040181905550818160020160003373ffffffffffffffffffffffffffffffffffffffff1673ffffffffffffffffffffffffffffffffffffffff168152602001908152602001600020819055506131d08160010160003373ffffffffffffffffffffffffffffffffffffffff1673ffffffffffffffffffffffffffffffffffffffff168152602001908152602001600020548260030154613d9590919063ffffffff16565b816003018190555060008160010160003373ffffffffffffffffffffffffffffffffffffffff1673ffffffffffffffffffffffffffffffffffffffff168152602001908152602001600020819055505b3373ffffffffffffffffffffffffffffffffffffffff167f877856338e13f63d0c36822ff0ef736b80934cd90574a3a5bc9262c39d217c4685858560405161326a93929190616a62565b60405180910390a2506001600681905550505050565b60115481565b6000600260065414156132ce576040517f08c379a00000000000000000000000000000000000000000000000000000000081526004016132c5906168dd565b60405180910390fd5b6002600681905550600f60003373ffffffffffffffffffffffffffffffffffffffff1673ffffffffffffffffffffffffffffffffffffffff16815260200190815260200160002060009054906101000a900460ff1615613363576040517f08c379a000000000000000000000000000000000000000000000000000000000815260040161335a9061679d565b60405180910390fd5b84518651148015613375575083518651145b8015613382575082518651145b6133c1576040517f08c379a00000000000000000000000000000000000000000000000000000000081526004016133b89061669d565b60405180910390fd5b600086511415613406576040517f08c379a00000000000000000000000000000000000000000000000000000000081526004016133fd9061675d565b60405180910390fd5b600a8651111561344b576040517f08c379a00000000000000000000000000000000000000000000000000000000081526004016134429061683d565b60405180910390fd5b60135461352a61345961130a565b61351c61346533611a02565b7f000000000000000000000000000000000000000000000000000000000000000073ffffffffffffffffffffffffffffffffffffffff166370a08231306040518263ffffffff1660e01b81526004016134be91906163fb565b60206040518083038186803b1580156134d657600080fd5b505afa1580156134ea573d6000803e3d6000fd5b505050506040513d601f19601f8201168201806040525081019061350e91906155ae565b613b7990919063ffffffff16565b613ddf90919063ffffffff16565b101561356b576040517f08c379a00000000000000000000000000000000000000000000000000000000081526004016135629061693d565b60405180910390fd5b600061358243601254613b2490919063ffffffff16565b905060115491506040518061014001604052803373ffffffffffffffffffffffffffffffffffffffff1681526020016000815260200160008152602001620f42406136806014547f000000000000000000000000000000000000000000000000000000000000000073ffffffffffffffffffffffffffffffffffffffff166370a08231306040518263ffffffff1660e01b815260040161362291906163fb565b60206040518083038186803b15801561363a57600080fd5b505afa15801561364e573d6000803e3d6000fd5b505050506040513d601f19601f8201168201806040525081019061367291906155ae565b613b7990919063ffffffff16565b8161368757fe5b048152602001828152602001888152602001878152602001868152602001858152602001600015158152506010600084815260200190815260200160002060008201518160000160006101000a81548173ffffffffffffffffffffffffffffffffffffffff021916908373ffffffffffffffffffffffffffffffffffffffff1602179055506020820151816003015560408201518160040155606082015181600501556080820151816006015560a0820151816007019080519060200190613750929190614b8e565b5060c082015181600801908051906020019061376d929190614c18565b5060e082015181600901908051906020019061378a929190614c65565b5061010082015181600a0190805190602001906137a8929190614cc5565b5061012082015181600b0160006101000a81548160ff0219169083151502179055509050506001600f60003373ffffffffffffffffffffffffffffffffffffffff1673ffffffffffffffffffffffffffffffffffffffff16815260200190815260200160002060006101000a81548160ff02191690831515021790555061383b6001601154613b2490919063ffffffff16565b6011819055503373ffffffffffffffffffffffffffffffffffffffff167f7d84a6263ae0d98d3329bd7b46bb4e8d6f98cd35a7adb45c274c8b7fd5ebd5e0838989898943888b604051613895989796959493929190616998565b60405180910390a250600160068190555095945050505050565b60165481565b6000600160008473ffffffffffffffffffffffffffffffffffffffff1673ffffffffffffffffffffffffffffffffffffffff16815260200190815260200160002060008373ffffffffffffffffffffffffffffffffffffffff1673ffffffffffffffffffffffffffffffffffffffff16815260200190815260200160002054905092915050565b60135481565b3073ffffffffffffffffffffffffffffffffffffffff163373ffffffffffffffffffffffffffffffffffffffff16146139b0576040517f08c379a00000000000000000000000000000000000000000000000000000000081526004016139a7906168fd565b60405180910390fd5b600073ffffffffffffffffffffffffffffffffffffffff168173ffffffffffffffffffffffffffffffffffffffff1614156139ea57600080fd5b80600c60006101000a81548173ffffffffffffffffffffffffffffffffffffffff021916908373ffffffffffffffffffffffffffffffffffffffff16021790555050565b3073ffffffffffffffffffffffffffffffffffffffff163373ffffffffffffffffffffffffffffffffffffffff1614613a9c576040517f08c379a0000000000000000000000000000000000000000000000000000000008152600401613a93906168fd565b60405180910390fd5b80600a60006101000a81548173ffffffffffffffffffffffffffffffffffffffff021916908373ffffffffffffffffffffffffffffffffffffffff16021790555050565b60145481565b600f6020528060005260406000206000915054906101000a900460ff1681565b6000613b1a613b13614418565b8484614420565b6001905092915050565b600080828401905083811015613b6f576040517f08c379a0000000000000000000000000000000000000000000000000000000008152600401613b669061665d565b60405180910390fd5b8091505092915050565b600080831415613b8c5760009050613be3565b6000828402905082848281613b9d57fe5b0414613bde576040517f08c379a0000000000000000000000000000000000000000000000000000000008152600401613bd5906167dd565b60405180910390fd5b809150505b92915050565b6000613bf68484846145eb565b613cb784613c02614418565b613cb285604051806060016040528060288152602001616ef960289139600160008b73ffffffffffffffffffffffffffffffffffffffff1673ffffffffffffffffffffffffffffffffffffffff1681526020019081526020016000206000613c68614418565b73ffffffffffffffffffffffffffffffffffffffff1673ffffffffffffffffffffffffffffffffffffffff168152602001908152602001600020546148809092919063ffffffff16565b614420565b600190509392505050565b600e60003373ffffffffffffffffffffffffffffffffffffffff1673ffffffffffffffffffffffffffffffffffffffff168152602001908152602001600020544310613d93576000600e60003373ffffffffffffffffffffffffffffffffffffffff1673ffffffffffffffffffffffffffffffffffffffff168152602001908152602001600020819055506000600d60003373ffffffffffffffffffffffffffffffffffffffff1673ffffffffffffffffffffffffffffffffffffffff168152602001908152602001600020819055505b565b6000613dd783836040518060400160405280601e81526020017f536166654d6174683a207375627472616374696f6e206f766572666c6f770000815250614880565b905092915050565b6000613e2183836040518060400160405280601a81526020017f536166654d6174683a206469766973696f6e206279207a65726f0000000000008152506148db565b905092915050565b600073ffffffffffffffffffffffffffffffffffffffff168273ffffffffffffffffffffffffffffffffffffffff161415613e99576040517f08c379a0000000000000000000000000000000000000000000000000000000008152600401613e909061681d565b60405180910390fd5b613ea58260008361493c565b613f1081604051806060016040528060228152602001616eb1602291396000808673ffffffffffffffffffffffffffffffffffffffff1673ffffffffffffffffffffffffffffffffffffffff168152602001908152602001600020546148809092919063ffffffff16565b6000808473ffffffffffffffffffffffffffffffffffffffff1673ffffffffffffffffffffffffffffffffffffffff16815260200190815260200160002081905550613f6781600254613d9590919063ffffffff16565b600281905550600073ffffffffffffffffffffffffffffffffffffffff168273ffffffffffffffffffffffffffffffffffffffff167fddf252ad1be2c89b69c2b068fc378daa952ba7f163c4a11628f55a4df523b3ef83604051613fcb919061697d565b60405180910390a35050565b6140588363a9059cbb60e01b8484604051602401613ff692919061644d565b604051602081830303815290604052907bffffffffffffffffffffffffffffffffffffffffffffffffffffffff19166020820180517bffffffffffffffffffffffffffffffffffffffffffffffffffffffff8381831617835250505050614941565b505050565b600061410661406a614418565b84614101856001600061407b614418565b73ffffffffffffffffffffffffffffffffffffffff1673ffffffffffffffffffffffffffffffffffffffff16815260200190815260200160002060008973ffffffffffffffffffffffffffffffffffffffff1673ffffffffffffffffffffffffffffffffffffffff16815260200190815260200160002054613b2490919063ffffffff16565b614420565b6001905092915050565b60006141d361411d614418565b846141ce85604051806060016040528060258152602001616f216025913960016000614147614418565b73ffffffffffffffffffffffffffffffffffffffff1673ffffffffffffffffffffffffffffffffffffffff16815260200190815260200160002060008a73ffffffffffffffffffffffffffffffffffffffff1673ffffffffffffffffffffffffffffffffffffffff168152602001908152602001600020546148809092919063ffffffff16565b614420565b6001905092915050565b614260846323b872dd60e01b8585856040516024016141fe93929190616416565b604051602081830303815290604052907bffffffffffffffffffffffffffffffffffffffffffffffffffffffff19166020820180517bffffffffffffffffffffffffffffffffffffffffffffffffffffffff8381831617835250505050614941565b50505050565b600073ffffffffffffffffffffffffffffffffffffffff168273ffffffffffffffffffffffffffffffffffffffff1614156142d6576040517f08c379a00000000000000000000000000000000000000000000000000000000081526004016142cd9061695d565b60405180910390fd5b6142e26000838361493c565b6142f781600254613b2490919063ffffffff16565b60028190555061434e816000808573ffffffffffffffffffffffffffffffffffffffff1673ffffffffffffffffffffffffffffffffffffffff16815260200190815260200160002054613b2490919063ffffffff16565b6000808473ffffffffffffffffffffffffffffffffffffffff1673ffffffffffffffffffffffffffffffffffffffff168152602001908152602001600020819055508173ffffffffffffffffffffffffffffffffffffffff16600073ffffffffffffffffffffffffffffffffffffffff167fddf252ad1be2c89b69c2b068fc378daa952ba7f163c4a11628f55a4df523b3ef836040516143ee919061697d565b60405180910390a35050565b600061440e614407614418565b84846145eb565b6001905092915050565b600033905090565b600073ffffffffffffffffffffffffffffffffffffffff168373ffffffffffffffffffffffffffffffffffffffff161415614490576040517f08c379a00000000000000000000000000000000000000000000000000000000081526004016144879061687d565b60405180910390fd5b600073ffffffffffffffffffffffffffffffffffffffff168273ffffffffffffffffffffffffffffffffffffffff161415614500576040517f08c379a00000000000000000000000000000000000000000000000000000000081526004016144f79061663d565b60405180910390fd5b80600160008573ffffffffffffffffffffffffffffffffffffffff1673ffffffffffffffffffffffffffffffffffffffff16815260200190815260200160002060008473ffffffffffffffffffffffffffffffffffffffff1673ffffffffffffffffffffffffffffffffffffffff168152602001908152602001600020819055508173ffffffffffffffffffffffffffffffffffffffff168373ffffffffffffffffffffffffffffffffffffffff167f8c5be1e5ebec7d5bd14f71427d1e84f3dd0314c0f7b2291e5b200ac8c7c3b925836040516145de919061697d565b60405180910390a3505050565b600073ffffffffffffffffffffffffffffffffffffffff168373ffffffffffffffffffffffffffffffffffffffff16141561465b576040517f08c379a00000000000000000000000000000000000000000000000000000000081526004016146529061685d565b60405180910390fd5b600073ffffffffffffffffffffffffffffffffffffffff168273ffffffffffffffffffffffffffffffffffffffff1614156146cb576040517f08c379a00000000000000000000000000000000000000000000000000000000081526004016146c2906165dd565b60405180910390fd5b6146d683838361493c565b61474181604051806060016040528060268152602001616ed3602691396000808773ffffffffffffffffffffffffffffffffffffffff1673ffffffffffffffffffffffffffffffffffffffff168152602001908152602001600020546148809092919063ffffffff16565b6000808573ffffffffffffffffffffffffffffffffffffffff1673ffffffffffffffffffffffffffffffffffffffff168152602001908152602001600020819055506147d4816000808573ffffffffffffffffffffffffffffffffffffffff1673ffffffffffffffffffffffffffffffffffffffff16815260200190815260200160002054613b2490919063ffffffff16565b6000808473ffffffffffffffffffffffffffffffffffffffff1673ffffffffffffffffffffffffffffffffffffffff168152602001908152602001600020819055508173ffffffffffffffffffffffffffffffffffffffff168373ffffffffffffffffffffffffffffffffffffffff167fddf252ad1be2c89b69c2b068fc378daa952ba7f163c4a11628f55a4df523b3ef83604051614873919061697d565b60405180910390a3505050565b60008383111582906148c8576040517f08c379a00000000000000000000000000000000000000000000000000000000081526004016148bf91906165bb565b60405180910390fd5b5060008385039050809150509392505050565b60008083118290614922576040517f08c379a000000000000000000000000000000000000000000000000000000000815260040161491991906165bb565b60405180910390fd5b50600083858161492e57fe5b049050809150509392505050565b505050565b60606149a3826040518060400160405280602081526020017f5361666545524332303a206c6f772d6c6576656c2063616c6c206661696c65648152508573ffffffffffffffffffffffffffffffffffffffff16614a089092919063ffffffff16565b9050600081511115614a0357808060200190518101906149c3919061555c565b614a02576040517f08c379a00000000000000000000000000000000000000000000000000000000081526004016149f9906168bd565b60405180910390fd5b5b505050565b6060614a178484600085614a20565b90509392505050565b6060614a2b85614b43565b614a6a576040517f08c379a0000000000000000000000000000000000000000000000000000000008152600401614a619061689d565b60405180910390fd5b600060608673ffffffffffffffffffffffffffffffffffffffff168587604051614a9491906163cd565b60006040518083038185875af1925050503d8060008114614ad1576040519150601f19603f3d011682016040523d82523d6000602084013e614ad6565b606091505b50915091508115614aeb578092505050614b3b565b600081511115614afe5780518082602001fd5b836040517f08c379a0000000000000000000000000000000000000000000000000000000008152600401614b3291906165bb565b60405180910390fd5b949350505050565b60008060007fc5d2460186f7233c927e7db2dcc703c0e500b653ca82273b7bfad8045d85a47060001b9050833f9150808214158015614b8557506000801b8214155b92505050919050565b828054828255906000526020600020908101928215614c07579160200282015b82811115614c065782518260006101000a81548173ffffffffffffffffffffffffffffffffffffffff021916908373ffffffffffffffffffffffffffffffffffffffff16021790555091602001919060010190614bae565b5b509050614c149190614d25565b5090565b828054828255906000526020600020908101928215614c54579160200282015b82811115614c53578251825591602001919060010190614c38565b5b509050614c619190614d68565b5090565b828054828255906000526020600020908101928215614cb4579160200282015b82811115614cb3578251829080519060200190614ca3929190614d8d565b5091602001919060010190614c85565b5b509050614cc19190614e0d565b5090565b828054828255906000526020600020908101928215614d14579160200282015b82811115614d13578251829080519060200190614d03929190614e39565b5091602001919060010190614ce5565b5b509050614d219190614eb9565b5090565b614d6591905b80821115614d6157600081816101000a81549073ffffffffffffffffffffffffffffffffffffffff021916905550600101614d2b565b5090565b90565b614d8a91905b80821115614d86576000816000905550600101614d6e565b5090565b90565b828054600181600116156101000203166002900490600052602060002090601f016020900481019282601f10614dce57805160ff1916838001178555614dfc565b82800160010185558215614dfc579182015b82811115614dfb578251825591602001919060010190614de0565b5b509050614e099190614d68565b5090565b614e3691905b80821115614e325760008181614e299190614ee5565b50600101614e13565b5090565b90565b828054600181600116156101000203166002900490600052602060002090601f016020900481019282601f10614e7a57805160ff1916838001178555614ea8565b82800160010185558215614ea8579182015b82811115614ea7578251825591602001919060010190614e8c565b5b509050614eb59190614d68565b5090565b614ee291905b80821115614ede5760008181614ed59190614f2d565b50600101614ebf565b5090565b90565b50805460018160011615610100020316600290046000825580601f10614f0b5750614f2a565b601f016020900490600052602060002090810190614f299190614d68565b5b50565b50805460018160011615610100020316600290046000825580601f10614f535750614f72565b601f016020900490600052602060002090810190614f719190614d68565b5b50565b600081359050614f8481616e6b565b92915050565b60008083601f840112614f9c57600080fd5b8235905067ffffffffffffffff811115614fb557600080fd5b602083019150836020820283011115614fcd57600080fd5b9250929050565b600082601f830112614fe557600080fd5b8135614ff8614ff382616ae1565b616ab4565b9150818183526020840193506020810190508385602084028201111561501d57600080fd5b60005b8381101561504d57816150338882614f75565b845260208401935060208301925050600181019050615020565b5050505092915050565b600082601f83011261506857600080fd5b813561507b61507682616b09565b616ab4565b9150818183526020840193506020810190508360005b838110156150c157813586016150a78882615236565b845260208401935060208301925050600181019050615091565b5050505092915050565b600082601f8301126150dc57600080fd5b81356150ef6150ea82616b31565b616ab4565b9150818183526020840193506020810190508360005b83811015615135578135860161511b888261528a565b845260208401935060208301925050600181019050615105565b5050505092915050565b60008083601f84011261515157600080fd5b8235905067ffffffffffffffff81111561516a57600080fd5b60208301915083602082028301111561518257600080fd5b9250929050565b600082601f83011261519a57600080fd5b81356151ad6151a882616b59565b616ab4565b915081818352602084019350602081019050838560208402820111156151d257600080fd5b60005b8381101561520257816151e888826152de565b8452602084019350602083019250506001810190506151d5565b5050505092915050565b60008135905061521b81616e82565b92915050565b60008151905061523081616e82565b92915050565b600082601f83011261524757600080fd5b813561525a61525582616b81565b616ab4565b9150808252602083016020830185838301111561527657600080fd5b615281838284616e0e565b50505092915050565b600082601f83011261529b57600080fd5b81356152ae6152a982616bad565b616ab4565b915080825260208301602083018583830111156152ca57600080fd5b6152d5838284616e0e565b50505092915050565b6000813590506152ed81616e99565b92915050565b60008151905061530281616e99565b92915050565b60006020828403121561531a57600080fd5b600061532884828501614f75565b91505092915050565b6000806040838503121561534457600080fd5b600061535285828601614f75565b925050602061536385828601614f75565b9150509250929050565b60008060006060848603121561538257600080fd5b600061539086828701614f75565b93505060206153a186828701614f75565b92505060406153b2868287016152de565b9150509250925092565b600080604083850312156153cf57600080fd5b60006153dd85828601614f75565b92505060206153ee858286016152de565b9150509250929050565b6000806000806040858703121561540e57600080fd5b600085013567ffffffffffffffff81111561542857600080fd5b61543487828801614f8a565b9450945050602085013567ffffffffffffffff81111561545357600080fd5b61545f8782880161513f565b925092505092959194509250565b600080600080600060a0868803121561548557600080fd5b600086013567ffffffffffffffff81111561549f57600080fd5b6154ab88828901614fd4565b955050602086013567ffffffffffffffff8111156154c857600080fd5b6154d488828901615189565b945050604086013567ffffffffffffffff8111156154f157600080fd5b6154fd888289016150cb565b935050606086013567ffffffffffffffff81111561551a57600080fd5b61552688828901615057565b925050608086013567ffffffffffffffff81111561554357600080fd5b61554f8882890161528a565b9150509295509295909350565b60006020828403121561556e57600080fd5b600061557c84828501615221565b91505092915050565b60006020828403121561559757600080fd5b60006155a5848285016152de565b91505092915050565b6000602082840312156155c057600080fd5b60006155ce848285016152f3565b91505092915050565b600080604083850312156155ea57600080fd5b60006155f8858286016152de565b925050602061560985828601614f75565b9150509250929050565b60008060006060848603121561562857600080fd5b6000615636868287016152de565b93505060206156478682870161520c565b9250506040615658868287016152de565b9150509250925092565b600061566e83836156ba565b60208301905092915050565b60006156868383615901565b905092915050565b600061569a8383615a96565b905092915050565b60006156ae8383616378565b60208301905092915050565b6156c381616d69565b82525050565b6156d281616d69565b82525050565b60006156e48385616cd0565b93506156ef82616bd9565b8060005b85811015615728576157058284616d52565b61570f8882615662565b975061571a83616c8f565b9250506001810190506156f3565b5085925050509392505050565b600061574082616c4d565b61574a8185616cd0565b935061575583616be3565b8060005b8381101561578657815161576d8882615662565b975061577883616c9c565b925050600181019050615759565b5085935050505092915050565b600061579e82616c58565b6157a88185616ce1565b9350836020820285016157ba85616bf3565b8060005b858110156157f657848403895281516157d7858261567a565b94506157e283616ca9565b925060208a019950506001810190506157be565b50829750879550505050505092915050565b600061581382616c63565b61581d8185616cf2565b93508360208202850161582f85616c03565b8060005b8581101561586b578484038952815161584c858261568e565b945061585783616cb6565b925060208a01995050600181019050615833565b50829750879550505050505092915050565b600061588882616c6e565b6158928185616d03565b935061589d83616c13565b8060005b838110156158ce5781516158b588826156a2565b97506158c083616cc3565b9250506001810190506158a1565b5085935050505092915050565b6158e481616d7b565b82525050565b6158fb6158f682616d87565b616e50565b82525050565b600061590c82616c79565b6159168185616d14565b9350615926818560208601616e1d565b61592f81616e5a565b840191505092915050565b600061594582616c79565b61594f8185616d25565b935061595f818560208601616e1d565b80840191505092915050565b60008154600181166000811461598857600181146159ad576159f1565b607f60028304166159998187616d25565b955060ff19831686528086019350506159f1565b600282046159bb8187616d25565b95506159c685616c38565b60005b828110156159e8578154818901526001820191506020810190506159c9565b82880195505050505b505092915050565b600081546001811660008114615a165760018114615a3b57615a7f565b607f6002830416615a278187616d25565b955060ff1983168652808601935050615a7f565b60028204615a498187616d25565b9550615a5485616c23565b60005b82811015615a7657815481890152600182019150602081019050615a57565b82880195505050505b505092915050565b615a9081616dea565b82525050565b6000615aa182616c84565b615aab8185616d30565b9350615abb818560208601616e1d565b615ac481616e5a565b840191505092915050565b6000615ada82616c84565b615ae48185616d41565b9350615af4818560208601616e1d565b615afd81616e5a565b840191505092915050565b6000615b15602383616d41565b91507f45524332303a207472616e7366657220746f20746865207a65726f206164647260008301527f65737300000000000000000000000000000000000000000000000000000000006020830152604082019050919050565b6000615b7b600a83616d41565b91507f7959464c3a205a45524f000000000000000000000000000000000000000000006000830152602082019050919050565b6000615bbb601683616d41565b91507f7959464c3a20494e53554646494349454e545f455448000000000000000000006000830152602082019050919050565b6000615bfb602283616d41565b91507f45524332303a20617070726f766520746f20746865207a65726f20616464726560008301527f73730000000000000000000000000000000000000000000000000000000000006020830152604082019050919050565b6000615c61601b83616d41565b91507f536166654d6174683a206164646974696f6e206f766572666c6f7700000000006000830152602082019050919050565b6000615ca1601283616d41565b91507f7959464c3a20564f54494e475f454e44454400000000000000000000000000006000830152602082019050919050565b6000615ce1601483616d41565b91507f7959464c3a2041524954595f4d49534d415443480000000000000000000000006000830152602082019050919050565b6000615d21600f83616d41565b91507f7959464c3a2053414d455f564f544500000000000000000000000000000000006000830152602082019050919050565b6000615d61601683616d41565b91507f7959464c3a204e4f5f59464c5f505552434841534544000000000000000000006000830152602082019050919050565b6000615da1601b83616d41565b91507f7959464c3a20494e56414c49445f59464c5f50555243484153455200000000006000830152602082019050919050565b6000615de1601883616d41565b91507f7959464c3a2050524f504f53414c5f494e5f564f54494e4700000000000000006000830152602082019050919050565b6000615e21601a83616d41565b91507f7959464c3a20494e53554646494349454e545f42414c414e43450000000000006000830152602082019050919050565b6000615e61601083616d41565b91507f7959464c3a204e4f5f414354494f4e53000000000000000000000000000000006000830152602082019050919050565b6000615ea1601783616d41565b91507f7959464c3a20414c52454144595f434f4e5645525445440000000000000000006000830152602082019050919050565b6000615ee1601983616d41565b91507f7959464c3a204841535f4143544956455f50524f504f53414c000000000000006000830152602082019050919050565b6000615f21601f83616d41565b91507f7959464c3a2050524f504f53414c5f414c52454144595f4558454355544544006000830152602082019050919050565b6000615f61602183616d41565b91507f536166654d6174683a206d756c7469706c69636174696f6e206f766572666c6f60008301527f77000000000000000000000000000000000000000000000000000000000000006020830152604082019050919050565b6000615fc7601983616d41565b91507f7959464c3a20494e56414c49445f50524f504f53414c5f4944000000000000006000830152602082019050919050565b6000616007602183616d41565b91507f45524332303a206275726e2066726f6d20746865207a65726f2061646472657360008301527f73000000000000000000000000000000000000000000000000000000000000006020830152604082019050919050565b600061606d601683616d41565b91507f7959464c3a20544f4f5f4d414e595f414354494f4e53000000000000000000006000830152602082019050919050565b60006160ad602583616d41565b91507f45524332303a207472616e736665722066726f6d20746865207a65726f20616460008301527f64726573730000000000000000000000000000000000000000000000000000006020830152604082019050919050565b6000616113602483616d41565b91507f45524332303a20617070726f76652066726f6d20746865207a65726f2061646460008301527f72657373000000000000000000000000000000000000000000000000000000006020830152604082019050919050565b6000616179601d83616d41565b91507f416464726573733a2063616c6c20746f206e6f6e2d636f6e74726163740000006000830152602082019050919050565b60006161b9602a83616d41565b91507f5361666545524332303a204552433230206f7065726174696f6e20646964206e60008301527f6f742073756363656564000000000000000000000000000000000000000000006020830152604082019050919050565b600061621f601f83616d41565b91507f5265656e7472616e637947756172643a207265656e7472616e742063616c6c006000830152602082019050919050565b600061625f600f83616d41565b91507f7959464c3a20464f5242494444454e00000000000000000000000000000000006000830152602082019050919050565b600061629f601283616d41565b91507f7959464c3a20534d414c4c45525f564f544500000000000000000000000000006000830152602082019050919050565b60006162df602383616d41565b91507f7959464c3a20494e53554646494349454e545f59464c5f464f525f50524f504f60008301527f53414c00000000000000000000000000000000000000000000000000000000006020830152604082019050919050565b6000616345601f83616d41565b91507f45524332303a206d696e7420746f20746865207a65726f2061646472657373006000830152602082019050919050565b61638181616dd3565b82525050565b61639081616dd3565b82525050565b61639f81616ddd565b82525050565b60006163b182856158ea565b6004820191506163c182846159f9565b91508190509392505050565b60006163d9828461593a565b915081905092915050565b60006163f0828461596b565b915081905092915050565b600060208201905061641060008301846156c9565b92915050565b600060608201905061642b60008301866156c9565b61643860208301856156c9565b6164456040830184616387565b949350505050565b600060408201905061646260008301856156c9565b61646f6020830184616387565b9392505050565b600060c08201905061648b60008301896156c9565b6164986020830188616387565b6164a56040830187616387565b6164b26060830186616387565b6164bf6080830185616387565b6164cc60a08301846158db565b979650505050505050565b600060208201905081810360008301526164f28184866156d8565b90509392505050565b600060808201905081810360008301526165158187615735565b90508181036020830152616529818661587d565b9050818103604083015261653d8185615808565b905081810360608301526165518184615793565b905095945050505050565b600060208201905061657160008301846158db565b92915050565b600060408201905061658c60008301856158db565b6165996020830184616387565b9392505050565b60006020820190506165b56000830184615a87565b92915050565b600060208201905081810360008301526165d58184615acf565b905092915050565b600060208201905081810360008301526165f681615b08565b9050919050565b6000602082019050818103600083015261661681615b6e565b9050919050565b6000602082019050818103600083015261663681615bae565b9050919050565b6000602082019050818103600083015261665681615bee565b9050919050565b6000602082019050818103600083015261667681615c54565b9050919050565b6000602082019050818103600083015261669681615c94565b9050919050565b600060208201905081810360008301526166b681615cd4565b9050919050565b600060208201905081810360008301526166d681615d14565b9050919050565b600060208201905081810360008301526166f681615d54565b9050919050565b6000602082019050818103600083015261671681615d94565b9050919050565b6000602082019050818103600083015261673681615dd4565b9050919050565b6000602082019050818103600083015261675681615e14565b9050919050565b6000602082019050818103600083015261677681615e54565b9050919050565b6000602082019050818103600083015261679681615e94565b9050919050565b600060208201905081810360008301526167b681615ed4565b9050919050565b600060208201905081810360008301526167d681615f14565b9050919050565b600060208201905081810360008301526167f681615f54565b9050919050565b6000602082019050818103600083015261681681615fba565b9050919050565b6000602082019050818103600083015261683681615ffa565b9050919050565b6000602082019050818103600083015261685681616060565b9050919050565b60006020820190508181036000830152616876816160a0565b9050919050565b6000602082019050818103600083015261689681616106565b9050919050565b600060208201905081810360008301526168b68161616c565b9050919050565b600060208201905081810360008301526168d6816161ac565b9050919050565b600060208201905081810360008301526168f681616212565b9050919050565b6000602082019050818103600083015261691681616252565b9050919050565b6000602082019050818103600083015261693681616292565b9050919050565b60006020820190508181036000830152616956816162d2565b9050919050565b6000602082019050818103600083015261697681616338565b9050919050565b60006020820190506169926000830184616387565b92915050565b6000610100820190506169ae600083018b616387565b81810360208301526169c0818a615735565b905081810360408301526169d4818961587d565b905081810360608301526169e88188615808565b905081810360808301526169fc8187615793565b9050616a0b60a0830186616387565b616a1860c0830185616387565b81810360e0830152616a2a8184615acf565b90509998505050505050505050565b6000604082019050616a4e6000830185616387565b616a5b60208301846158db565b9392505050565b6000606082019050616a776000830186616387565b616a8460208301856158db565b616a916040830184616387565b949350505050565b6000602082019050616aae6000830184616396565b92915050565b6000604051905081810181811067ffffffffffffffff82111715616ad757600080fd5b8060405250919050565b600067ffffffffffffffff821115616af857600080fd5b602082029050602081019050919050565b600067ffffffffffffffff821115616b2057600080fd5b602082029050602081019050919050565b600067ffffffffffffffff821115616b4857600080fd5b602082029050602081019050919050565b600067ffffffffffffffff821115616b7057600080fd5b602082029050602081019050919050565b600067ffffffffffffffff821115616b9857600080fd5b601f19601f8301169050602081019050919050565b600067ffffffffffffffff821115616bc457600080fd5b601f19601f8301169050602081019050919050565b6000819050919050565b6000819050602082019050919050565b6000819050602082019050919050565b6000819050602082019050919050565b6000819050602082019050919050565b60008190508160005260206000209050919050565b60008190508160005260206000209050919050565b600081519050919050565b600081519050919050565b600081519050919050565b600081519050919050565b600081519050919050565b600081519050919050565b6000602082019050919050565b6000602082019050919050565b6000602082019050919050565b6000602082019050919050565b6000602082019050919050565b600082825260208201905092915050565b600082825260208201905092915050565b600082825260208201905092915050565b600082825260208201905092915050565b600082825260208201905092915050565b600081905092915050565b600082825260208201905092915050565b600082825260208201905092915050565b6000616d616020840184614f75565b905092915050565b6000616d7482616db3565b9050919050565b60008115159050919050565b60007fffffffff0000000000000000000000000000000000000000000000000000000082169050919050565b600073ffffffffffffffffffffffffffffffffffffffff82169050919050565b6000819050919050565b600060ff82169050919050565b6000616df582616dfc565b9050919050565b6000616e0782616db3565b9050919050565b82818337600083830152505050565b60005b83811015616e3b578082015181840152602081019050616e20565b83811115616e4a576000848401525b50505050565b6000819050919050565b6000601f19601f8301169050919050565b616e7481616d69565b8114616e7f57600080fd5b50565b616e8b81616d7b565b8114616e9657600080fd5b50565b616ea281616dd3565b8114616ead57600080fd5b5056fe45524332303a206275726e20616d6f756e7420657863656564732062616c616e636545524332303a207472616e7366657220616d6f756e7420657863656564732062616c616e636545524332303a207472616e7366657220616d6f756e74206578636565647320616c6c6f77616e636545524332303a2064656372656173656420616c6c6f77616e63652062656c6f77207a65726fa2646970667358221220b538cabb5c1c0feab5e893950b07a3210caf530eecf551eaef408de9c176a14664736f6c63430006060033",
  "linkReferences": {},
  "deployedLinkReferences": {}
}